{
  "_format": "hh-sol-artifact-1",
  "contractName": "MockUSDC",
  "sourceName": "contracts/MockUSDC.sol",
  "abi": [
    {
      "inputs": [
        {
          "internalType": "address",
          "name": "_initialOwner",
          "type": "address"
        }
      ],
      "stateMutability": "nonpayable",
      "type": "constructor"
    },
    {
      "inputs": [
        {
          "internalType": "address",
          "name": "spender",
          "type": "address"
        },
        {
          "internalType": "uint256",
          "name": "allowance",
          "type": "uint256"
        },
        {
          "internalType": "uint256",
          "name": "needed",
          "type": "uint256"
        }
      ],
      "name": "ERC20InsufficientAllowance",
      "type": "error"
    },
    {
      "inputs": [
        {
          "internalType": "address",
          "name": "sender",
          "type": "address"
        },
        {
          "internalType": "uint256",
          "name": "balance",
          "type": "uint256"
        },
        {
          "internalType": "uint256",
          "name": "needed",
          "type": "uint256"
        }
      ],
      "name": "ERC20InsufficientBalance",
      "type": "error"
    },
    {
      "inputs": [
        {
          "internalType": "address",
          "name": "approver",
          "type": "address"
        }
      ],
      "name": "ERC20InvalidApprover",
      "type": "error"
    },
    {
      "inputs": [
        {
          "internalType": "address",
          "name": "receiver",
          "type": "address"
        }
      ],
      "name": "ERC20InvalidReceiver",
      "type": "error"
    },
    {
      "inputs": [
        {
          "internalType": "address",
          "name": "sender",
          "type": "address"
        }
      ],
      "name": "ERC20InvalidSender",
      "type": "error"
    },
    {
      "inputs": [
        {
          "internalType": "address",
          "name": "spender",
          "type": "address"
        }
      ],
      "name": "ERC20InvalidSpender",
      "type": "error"
    },
    {
      "inputs": [
        {
          "internalType": "address",
          "name": "owner",
          "type": "address"
        }
      ],
      "name": "OwnableInvalidOwner",
      "type": "error"
    },
    {
      "inputs": [
        {
          "internalType": "address",
          "name": "account",
          "type": "address"
        }
      ],
      "name": "OwnableUnauthorizedAccount",
      "type": "error"
    },
    {
      "anonymous": false,
      "inputs": [
        {
          "indexed": true,
          "internalType": "address",
          "name": "owner",
          "type": "address"
        },
        {
          "indexed": true,
          "internalType": "address",
          "name": "spender",
          "type": "address"
        },
        {
          "indexed": false,
          "internalType": "uint256",
          "name": "value",
          "type": "uint256"
        }
      ],
      "name": "Approval",
      "type": "event"
    },
    {
      "anonymous": false,
      "inputs": [
        {
          "indexed": true,
          "internalType": "address",
          "name": "previousOwner",
          "type": "address"
        },
        {
          "indexed": true,
          "internalType": "address",
          "name": "newOwner",
          "type": "address"
        }
      ],
      "name": "OwnershipTransferred",
      "type": "event"
    },
    {
      "anonymous": false,
      "inputs": [
        {
          "indexed": true,
          "internalType": "address",
          "name": "from",
          "type": "address"
        },
        {
          "indexed": false,
          "internalType": "uint256",
          "name": "amount",
          "type": "uint256"
        }
      ],
      "name": "TokensBurned",
      "type": "event"
    },
    {
      "anonymous": false,
      "inputs": [
        {
          "indexed": true,
          "internalType": "address",
          "name": "to",
          "type": "address"
        },
        {
          "indexed": false,
          "internalType": "uint256",
          "name": "amount",
          "type": "uint256"
        }
      ],
      "name": "TokensMinted",
      "type": "event"
    },
    {
      "anonymous": false,
      "inputs": [
        {
          "indexed": true,
          "internalType": "address",
          "name": "from",
          "type": "address"
        },
        {
          "indexed": true,
          "internalType": "address",
          "name": "to",
          "type": "address"
        },
        {
          "indexed": false,
          "internalType": "uint256",
          "name": "value",
          "type": "uint256"
        }
      ],
      "name": "Transfer",
      "type": "event"
    },
    {
      "inputs": [
        {
          "internalType": "address",
          "name": "owner",
          "type": "address"
        },
        {
          "internalType": "address",
          "name": "spender",
          "type": "address"
        }
      ],
      "name": "allowance",
      "outputs": [
        {
          "internalType": "uint256",
          "name": "",
          "type": "uint256"
        }
      ],
      "stateMutability": "view",
      "type": "function"
    },
    {
      "inputs": [
        {
          "internalType": "address",
          "name": "spender",
          "type": "address"
        },
        {
          "internalType": "uint256",
          "name": "value",
          "type": "uint256"
        }
      ],
      "name": "approve",
      "outputs": [
        {
          "internalType": "bool",
          "name": "",
          "type": "bool"
        }
      ],
      "stateMutability": "nonpayable",
      "type": "function"
    },
    {
      "inputs": [
        {
          "internalType": "address",
          "name": "account",
          "type": "address"
        }
      ],
      "name": "balanceOf",
      "outputs": [
        {
          "internalType": "uint256",
          "name": "",
          "type": "uint256"
        }
      ],
      "stateMutability": "view",
      "type": "function"
    },
    {
      "inputs": [
        {
          "internalType": "address[]",
          "name": "recipients",
          "type": "address[]"
        },
        {
          "internalType": "uint256[]",
          "name": "amounts",
          "type": "uint256[]"
        }
      ],
      "name": "batchMint",
      "outputs": [],
      "stateMutability": "nonpayable",
      "type": "function"
    },
    {
      "inputs": [
        {
          "internalType": "uint256",
          "name": "amount",
          "type": "uint256"
        }
      ],
      "name": "burn",
      "outputs": [],
      "stateMutability": "nonpayable",
      "type": "function"
    },
    {
      "inputs": [],
      "name": "decimals",
      "outputs": [
        {
          "internalType": "uint8",
          "name": "",
          "type": "uint8"
        }
      ],
      "stateMutability": "pure",
      "type": "function"
    },
    {
      "inputs": [
        {
          "internalType": "uint256",
          "name": "amount",
          "type": "uint256"
        }
      ],
      "name": "faucet",
      "outputs": [],
      "stateMutability": "nonpayable",
      "type": "function"
    },
    {
      "inputs": [],
      "name": "getTestTokens",
      "outputs": [],
      "stateMutability": "nonpayable",
      "type": "function"
    },
    {
      "inputs": [
        {
          "internalType": "address",
          "name": "to",
          "type": "address"
        },
        {
          "internalType": "uint256",
          "name": "amount",
          "type": "uint256"
        }
      ],
      "name": "mint",
      "outputs": [],
      "stateMutability": "nonpayable",
      "type": "function"
    },
    {
      "inputs": [],
      "name": "name",
      "outputs": [
        {
          "internalType": "string",
          "name": "",
          "type": "string"
        }
      ],
      "stateMutability": "view",
      "type": "function"
    },
    {
      "inputs": [],
      "name": "owner",
      "outputs": [
        {
          "internalType": "address",
          "name": "",
          "type": "address"
        }
      ],
      "stateMutability": "view",
      "type": "function"
    },
    {
      "inputs": [],
      "name": "renounceOwnership",
      "outputs": [],
      "stateMutability": "nonpayable",
      "type": "function"
    },
    {
      "inputs": [],
      "name": "symbol",
      "outputs": [
        {
          "internalType": "string",
          "name": "",
          "type": "string"
        }
      ],
      "stateMutability": "view",
      "type": "function"
    },
    {
      "inputs": [],
      "name": "totalSupply",
      "outputs": [
        {
          "internalType": "uint256",
          "name": "",
          "type": "uint256"
        }
      ],
      "stateMutability": "view",
      "type": "function"
    },
    {
      "inputs": [
        {
          "internalType": "address",
          "name": "to",
          "type": "address"
        },
        {
          "internalType": "uint256",
          "name": "value",
          "type": "uint256"
        }
      ],
      "name": "transfer",
      "outputs": [
        {
          "internalType": "bool",
          "name": "",
          "type": "bool"
        }
      ],
      "stateMutability": "nonpayable",
      "type": "function"
    },
    {
      "inputs": [
        {
          "internalType": "address",
          "name": "from",
          "type": "address"
        },
        {
          "internalType": "address",
          "name": "to",
          "type": "address"
        },
        {
          "internalType": "uint256",
          "name": "value",
          "type": "uint256"
        }
      ],
      "name": "transferFrom",
      "outputs": [
        {
          "internalType": "bool",
          "name": "",
          "type": "bool"
        }
      ],
      "stateMutability": "nonpayable",
      "type": "function"
    },
    {
      "inputs": [
        {
          "internalType": "address",
          "name": "newOwner",
          "type": "address"
        }
      ],
      "name": "transferOwnership",
      "outputs": [],
      "stateMutability": "nonpayable",
      "type": "function"
    }
  ],
  "bytecode": "0x6080346200040e57601f1990601f6001600160401b03620012df38819003838101861685018381118682101762000413578592829160405283396020948591810103126200040e57516001600160a01b0380821695909290918690036200040e576200006a62000429565b600d81526c26b7b1b5902aa9a21021b7b4b760991b868201526200008d62000429565b90600495868352635553444360e01b888401528151928484116200030f576003938454936001948581811c9116801562000403575b8c821014620003ee57908b828685941162000395575b50508b90858311600114620003305760009262000324575b505060001982871b1c191690841b1784555b80519485116200030f5787548381811c9116801562000304575b8a821014620002ef57828111620002a4575b50889185116001146200023b57849550908492916000956200022f575b50501b92600019911b1c19161782555b83156200021757600580546001600160a01b0319811686179091558491167f8be0079c531659141344cd1fd0a4f28419497f9722a3daafe3b4186f6b6457e0600080a360025464e8d4a51000918282018092116200020257506002556000838152808352604080822080548401905551918252917fddf252ad1be2c89b69c2b068fc378daa952ba7f163c4a11628f55a4df523b3ef91a3604051610e9590816200044a8239f35b601190634e487b7160e01b6000525260246000fd5b604051631e4fbdf760e01b8152600081840152602490fd5b0151935038806200014b565b9291948416928760005284896000209460005b8b898383106200028c575050501062000271575b50505050811b0182556200015b565b01519060f884600019921b161c191690553880808062000262565b8686015189559097019694850194889350016200024e565b88600052896000208380880160051c8201928c8910620002e5575b0160051c019084905b828110620002d85750506200012e565b60008155018490620002c8565b92508192620002bf565b602289634e487b7160e01b6000525260246000fd5b90607f16906200011c565b604188634e487b7160e01b6000525260246000fd5b015190503880620000f0565b908c918a8895168960005283600020936000905b8282106200037d575050841162000364575b505050811b01845562000102565b015160001983891b60f8161c1916905538808062000356565b8385015186558a979095019493840193018f62000344565b909192508760005285826000209181860160051c8301938610620003e4575b918891869594930160051c01915b828110620003d457508d9150620000d8565b60008155859450889101620003c2565b92508192620003b4565b60228b634e487b7160e01b6000525260246000fd5b90607f1690620000c2565b600080fd5b634e487b7160e01b600052604160045260246000fd5b60408051919082016001600160401b03811183821017620004135760405256fe6080604081815260048036101561001557600080fd5b600092833560e01c90816306fdde0314610a9d57508063095ea7b3146109f457806318160ddd146109d557806323b872dd146108e2578063313ce567146108c657806340c10f191461081a57806342966c68146106f85780635791589714610670578063685731071461046a57806370a0823114610433578063715018a6146103d35780638da5cb5b146103aa57806395d89b411461028a578063a9059cbb14610259578063d1300eb6146101bd578063dd62ed3e146101705763f2fde38b146100de57600080fd5b3461016c57602036600319011261016c576100f7610bdb565b90610100610c3d565b6001600160a01b03918216928315610156575050600554826bffffffffffffffffffffffff60a01b821617600555167f8be0079c531659141344cd1fd0a4f28419497f9722a3daafe3b4186f6b6457e08380a380f35b51631e4fbdf760e01b8152908101849052602490fd5b8280fd5b5050346101b957806003193601126101b9578060209261018e610bdb565b610196610bf6565b6001600160a01b0391821683526001865283832091168252845220549051908152f35b5080fd5b50903461016c578260031936011261016c57331561024457600254633b9aca0092838201809211610231575060025533835282602052808320828154019055805182815283600080516020610e4083398151915260203393a351908152600080516020610e2083398151915260203392a280f35b634e487b7160e01b855260119052602484fd5b91602492519163ec442f0560e01b8352820152fd5b5050346101b957806003193601126101b957602090610283610279610bdb565b6024359033610c69565b5160018152f35b509190346101b957816003193601126101b957805190828454600181811c908083169283156103a0575b602093848410811461038d57838852908115610371575060011461031c575b505050829003601f01601f191682019267ffffffffffffffff8411838510176103095750829182610305925282610b92565b0390f35b634e487b7160e01b815260418552602490fd5b8787529192508591837f8a35acfbc15ff81a39ae7d344fd709f28e8600b4aa8c65c6b64bfe7fe36bd19b5b83851061035d57505050508301013880806102d3565b805488860183015293019284908201610347565b60ff1916878501525050151560051b84010190503880806102d3565b634e487b7160e01b895260228a52602489fd5b91607f16916102b4565b5050346101b957816003193601126101b95760055490516001600160a01b039091168152602090f35b83346104305780600319360112610430576103ec610c3d565b600580546001600160a01b0319811690915581906001600160a01b03167f8be0079c531659141344cd1fd0a4f28419497f9722a3daafe3b4186f6b6457e08280a380f35b80fd5b5050346101b95760203660031901126101b95760209181906001600160a01b0361045b610bdb565b16815280845220549051908152f35b50903461016c578060031936011261016c5767ffffffffffffffff91803583811161066c5761049c9036908301610c0c565b92906024948535908111610668576104b79036908501610c0c565b6104bf610c3d565b80860361062d5785156105fc57875b8681106104d9578880f35b6001600160a01b03806104f56104f0848b89610de5565b610e0b565b16156105ba57610506828486610de5565b35156105875761052f61051d6104f0848b89610de5565b610528848688610de5565b3590610d80565b600080516020610e20833981519152602061054e6104f0858c8a610de5565b9261055a858789610de5565b359389519485521692a26000198114610575576001016104ce565b634e487b7160e01b8952601186528789fd5b855162461bcd60e51b8152602081890152600e818b01526d125b9d985b1a5908185b5bdd5b9d60921b6044820152606490fd5b855162461bcd60e51b81526020818901526019818b01527f496e76616c696420726563697069656e742061646472657373000000000000006044820152606490fd5b835162461bcd60e51b8152602081870152600c818901526b456d7074792061727261797360a01b6044820152606490fd5b835162461bcd60e51b815260208187015260168189015275082e4e4c2f2e640d8cadccee8d040dad2e6dac2e8c6d60531b6044820152606490fd5b8680fd5b8480fd5b50903461016c57602036600319011261016c57813591610691831515610d35565b6402540be40083116106c357506106a88233610d80565b51908152600080516020610e2083398151915260203392a280f35b6020606492519162461bcd60e51b8352820152601060248201526f416d6f756e7420746f6f206c6172676560801b6044820152fd5b509190346101b95760208060031936011261016c5783359161071b831515610d35565b3384528382528281852054106107e05733156107ca57338452838252808420549483861061079f5750827ffd38818f5291bf0bb3a2a48aadc06ba8757865d1dabd804585338aab3009dcb693949533875286845203818620558360025403600255848151858152600080516020610e40833981519152843392a3519283523392a280f35b905163391434e360e21b81523391810191825260208201869052604082018490529081906060010390fd5b51634b637e8f60e11b8152808501849052602490fd5b5162461bcd60e51b8152808501919091526014602482015273496e73756666696369656e742062616c616e636560601b6044820152606490fd5b50903461016c578060031936011261016c57610834610bdb565b9060243591610841610c3d565b6001600160a01b03811693841561088357509160209161087b82600080516020610e2083398151915295610876821515610d35565b610d80565b51908152a280f35b606490602084519162461bcd60e51b8352820152601b60248201527f43616e6e6f74206d696e7420746f207a65726f206164647265737300000000006044820152fd5b5050346101b957816003193601126101b9576020905160068152f35b508234610430576060366003190112610430576108fd610bdb565b610905610bf6565b916044359360018060a01b038316808352600160205286832033845260205286832054916000198310610941575b602088610283898989610c69565b8683106109a957811561099257331561097b5750825260016020908152868320338452815291869020908590039055829061028387610933565b8751634a1406b160e11b8152908101849052602490fd5b875163e602df0560e01b8152908101849052602490fd5b8751637dc7a0d960e11b8152339181019182526020820193909352604081018790528291506060010390fd5b5050346101b957816003193601126101b9576020906002549051908152f35b503461016c578160031936011261016c57610a0d610bdb565b602435903315610a86576001600160a01b0316918215610a6f57508083602095338152600187528181208582528752205582519081527f8c5be1e5ebec7d5bd14f71427d1e84f3dd0314c0f7b2291e5b200ac8c7c3b925843392a35160018152f35b8351634a1406b160e11b8152908101859052602490fd5b835163e602df0560e01b8152808401869052602490fd5b849150833461016c578260031936011261016c5782600354600181811c90808316928315610b88575b602093848410811461038d57838852908115610b6c5750600114610b1657505050829003601f01601f191682019267ffffffffffffffff8411838510176103095750829182610305925282610b92565b600387529192508591837fc2575a0e9e593c00f959f8c92f12db2869c3395a3b0502d05e2516446f71f85b5b838510610b5857505050508301018580806102d3565b805488860183015293019284908201610b42565b60ff1916878501525050151560051b84010190508580806102d3565b91607f1691610ac6565b6020808252825181830181905290939260005b828110610bc757505060409293506000838284010152601f8019910116010190565b818101860151848201604001528501610ba5565b600435906001600160a01b0382168203610bf157565b600080fd5b602435906001600160a01b0382168203610bf157565b9181601f84011215610bf15782359167ffffffffffffffff8311610bf1576020808501948460051b010111610bf157565b6005546001600160a01b03163303610c5157565b60405163118cdaa760e01b8152336004820152602490fd5b916001600160a01b03808416928315610d1c5716928315610d035760009083825281602052604082205490838210610cd157509160408282600080516020610e40833981519152958760209652828652038282205586815220818154019055604051908152a3565b60405163391434e360e21b81526001600160a01b03919091166004820152602481019190915260448101839052606490fd5b60405163ec442f0560e01b815260006004820152602490fd5b604051634b637e8f60e11b815260006004820152602490fd5b15610d3c57565b606460405162461bcd60e51b815260206004820152602060248201527f416d6f756e74206d7573742062652067726561746572207468616e207a65726f6044820152fd5b6001600160a01b0316908115610d035760025490808201809211610dcf576020600080516020610e408339815191529160009360025584845283825260408420818154019055604051908152a3565b634e487b7160e01b600052601160045260246000fd5b9190811015610df55760051b0190565b634e487b7160e01b600052603260045260246000fd5b356001600160a01b0381168103610bf1579056fe3f2c9d57c068687834f0de942a9babb9e5acab57d516d3480a3c16ee165a4273ddf252ad1be2c89b69c2b068fc378daa952ba7f163c4a11628f55a4df523b3efa2646970667358221220975b814e86f8e4c0f0684761cb565c3a4c7f61534d85667c381ae9462e9fe41364736f6c63430008140033",
  "linkReferences": {},
  "deployedLinkReferences": {}
}