{
  "_format": "hh-sol-artifact-1",
  "contractName": "MockFund",
  "sourceName": "contracts/MockFund.sol",
  "abi": [
    {
      "inputs": [
        {
          "internalType": "string",
          "name": "_shareTokenName",
          "type": "string"
        },
        {
          "internalType": "string",
          "name": "_shareTokenSymbol",
          "type": "string"
        },
        {
          "internalType": "address",
          "name": "_initialOwner",
          "type": "address"
        },
        {
          "internalType": "uint256",
          "name": "_managementFeeRate",
          "type": "uint256"
        },
        {
          "internalType": "address",
          "name": "_priceOracle",
          "type": "address"
        },
        {
          "internalType": "address",
          "name": "_uniswapIntegration",
          "type": "address"
        }
      ],
      "stateMutability": "nonpayable",
      "type": "constructor"
    },
    {
      "inputs": [],
      "name": "EnforcedPause",
      "type": "error"
    },
    {
      "inputs": [],
      "name": "ExpectedPause",
      "type": "error"
    },
    {
      "inputs": [
        {
          "internalType": "address",
          "name": "owner",
          "type": "address"
        }
      ],
      "name": "OwnableInvalidOwner",
      "type": "error"
    },
    {
      "inputs": [
        {
          "internalType": "address",
          "name": "account",
          "type": "address"
        }
      ],
      "name": "OwnableUnauthorizedAccount",
      "type": "error"
    },
    {
      "inputs": [],
      "name": "ReentrancyGuardReentrantCall",
      "type": "error"
    },
    {
      "inputs": [
        {
          "internalType": "address",
          "name": "token",
          "type": "address"
        }
      ],
      "name": "SafeERC20FailedOperation",
      "type": "error"
    },
    {
      "anonymous": false,
      "inputs": [
        {
          "indexed": true,
          "internalType": "address",
          "name": "token",
          "type": "address"
        },
        {
          "indexed": false,
          "internalType": "uint256",
          "name": "oldAllocation",
          "type": "uint256"
        },
        {
          "indexed": false,
          "internalType": "uint256",
          "name": "newAllocation",
          "type": "uint256"
        }
      ],
      "name": "AllocationUpdated",
      "type": "event"
    },
    {
      "anonymous": false,
      "inputs": [
        {
          "indexed": true,
          "internalType": "address",
          "name": "investor",
          "type": "address"
        },
        {
          "indexed": false,
          "internalType": "uint256",
          "name": "usdcAmount",
          "type": "uint256"
        },
        {
          "indexed": false,
          "internalType": "uint256",
          "name": "sharesIssued",
          "type": "uint256"
        }
      ],
      "name": "Investment",
      "type": "event"
    },
    {
      "anonymous": false,
      "inputs": [
        {
          "indexed": false,
          "internalType": "uint256",
          "name": "amount",
          "type": "uint256"
        },
        {
          "indexed": false,
          "internalType": "uint256",
          "name": "timestamp",
          "type": "uint256"
        }
      ],
      "name": "ManagementFeeCollected",
      "type": "event"
    },
    {
      "anonymous": false,
      "inputs": [
        {
          "indexed": true,
          "internalType": "address",
          "name": "previousOwner",
          "type": "address"
        },
        {
          "indexed": true,
          "internalType": "address",
          "name": "newOwner",
          "type": "address"
        }
      ],
      "name": "OwnershipTransferred",
      "type": "event"
    },
    {
      "anonymous": false,
      "inputs": [
        {
          "indexed": false,
          "internalType": "string",
          "name": "parameter",
          "type": "string"
        },
        {
          "indexed": false,
          "internalType": "uint256",
          "name": "oldValue",
          "type": "uint256"
        },
        {
          "indexed": false,
          "internalType": "uint256",
          "name": "newValue",
          "type": "uint256"
        }
      ],
      "name": "ParameterUpdated",
      "type": "event"
    },
    {
      "anonymous": false,
      "inputs": [
        {
          "indexed": false,
          "internalType": "address",
          "name": "account",
          "type": "address"
        }
      ],
      "name": "Paused",
      "type": "event"
    },
    {
      "anonymous": false,
      "inputs": [
        {
          "indexed": true,
          "internalType": "address",
          "name": "investor",
          "type": "address"
        },
        {
          "indexed": false,
          "internalType": "uint256",
          "name": "sharesRedeemed",
          "type": "uint256"
        },
        {
          "indexed": false,
          "internalType": "uint256",
          "name": "usdcAmount",
          "type": "uint256"
        }
      ],
      "name": "Redemption",
      "type": "event"
    },
    {
      "anonymous": false,
      "inputs": [
        {
          "indexed": true,
          "internalType": "address",
          "name": "token",
          "type": "address"
        },
        {
          "indexed": false,
          "internalType": "uint256",
          "name": "targetAllocation",
          "type": "uint256"
        }
      ],
      "name": "TokenAdded",
      "type": "event"
    },
    {
      "anonymous": false,
      "inputs": [
        {
          "indexed": true,
          "internalType": "address",
          "name": "token",
          "type": "address"
        }
      ],
      "name": "TokenRemoved",
      "type": "event"
    },
    {
      "anonymous": false,
      "inputs": [
        {
          "indexed": false,
          "internalType": "address",
          "name": "account",
          "type": "address"
        }
      ],
      "name": "Unpaused",
      "type": "event"
    },
    {
      "inputs": [],
      "name": "BASIS_POINTS",
      "outputs": [
        {
          "internalType": "uint256",
          "name": "",
          "type": "uint256"
        }
      ],
      "stateMutability": "view",
      "type": "function"
    },
    {
      "inputs": [],
      "name": "MAX_MANAGEMENT_FEE",
      "outputs": [
        {
          "internalType": "uint256",
          "name": "",
          "type": "uint256"
        }
      ],
      "stateMutability": "view",
      "type": "function"
    },
    {
      "inputs": [],
      "name": "MAX_REDEMPTION_FEE",
      "outputs": [
        {
          "internalType": "uint256",
          "name": "",
          "type": "uint256"
        }
      ],
      "stateMutability": "view",
      "type": "function"
    },
    {
      "inputs": [
        {
          "internalType": "address",
          "name": "_token",
          "type": "address"
        },
        {
          "internalType": "uint256",
          "name": "_targetAllocation",
          "type": "uint256"
        }
      ],
      "name": "addSupportedToken",
      "outputs": [],
      "stateMutability": "nonpayable",
      "type": "function"
    },
    {
      "inputs": [],
      "name": "collectManagementFee",
      "outputs": [],
      "stateMutability": "nonpayable",
      "type": "function"
    },
    {
      "inputs": [],
      "name": "getCurrentAllocations",
      "outputs": [
        {
          "internalType": "address[]",
          "name": "tokens",
          "type": "address[]"
        },
        {
          "internalType": "uint256[]",
          "name": "allocations",
          "type": "uint256[]"
        }
      ],
      "stateMutability": "view",
      "type": "function"
    },
    {
      "inputs": [],
      "name": "getCurrentNAV",
      "outputs": [
        {
          "internalType": "uint256",
          "name": "",
          "type": "uint256"
        }
      ],
      "stateMutability": "view",
      "type": "function"
    },
    {
      "inputs": [],
      "name": "getFundStats",
      "outputs": [
        {
          "internalType": "uint256",
          "name": "",
          "type": "uint256"
        },
        {
          "internalType": "uint256",
          "name": "",
          "type": "uint256"
        },
        {
          "internalType": "uint256",
          "name": "",
          "type": "uint256"
        }
      ],
      "stateMutability": "view",
      "type": "function"
    },
    {
      "inputs": [],
      "name": "getPortfolioBreakdown",
      "outputs": [
        {
          "internalType": "address[]",
          "name": "tokens",
          "type": "address[]"
        },
        {
          "internalType": "uint256[]",
          "name": "holdings",
          "type": "uint256[]"
        },
        {
          "internalType": "uint256[]",
          "name": "values",
          "type": "uint256[]"
        },
        {
          "internalType": "uint256[]",
          "name": "allocations",
          "type": "uint256[]"
        },
        {
          "internalType": "uint256",
          "name": "totalValue",
          "type": "uint256"
        }
      ],
      "stateMutability": "view",
      "type": "function"
    },
    {
      "inputs": [],
      "name": "getSupportedTokens",
      "outputs": [
        {
          "internalType": "address[]",
          "name": "",
          "type": "address[]"
        }
      ],
      "stateMutability": "view",
      "type": "function"
    },
    {
      "inputs": [],
      "name": "getTokenHoldings",
      "outputs": [
        {
          "internalType": "address[]",
          "name": "tokens",
          "type": "address[]"
        },
        {
          "internalType": "uint256[]",
          "name": "holdings",
          "type": "uint256[]"
        }
      ],
      "stateMutability": "view",
      "type": "function"
    },
    {
      "inputs": [],
      "name": "getUSDCAddress",
      "outputs": [
        {
          "internalType": "address",
          "name": "",
          "type": "address"
        }
      ],
      "stateMutability": "view",
      "type": "function"
    },
    {
      "inputs": [
        {
          "internalType": "uint256",
          "name": "_usdcAmount",
          "type": "uint256"
        }
      ],
      "name": "invest",
      "outputs": [],
      "stateMutability": "nonpayable",
      "type": "function"
    },
    {
      "inputs": [
        {
          "internalType": "address",
          "name": "",
          "type": "address"
        }
      ],
      "name": "isSupportedToken",
      "outputs": [
        {
          "internalType": "bool",
          "name": "",
          "type": "bool"
        }
      ],
      "stateMutability": "view",
      "type": "function"
    },
    {
      "inputs": [],
      "name": "lastFeeCollection",
      "outputs": [
        {
          "internalType": "uint256",
          "name": "",
          "type": "uint256"
        }
      ],
      "stateMutability": "view",
      "type": "function"
    },
    {
      "inputs": [],
      "name": "managementFeeRate",
      "outputs": [
        {
          "internalType": "uint256",
          "name": "",
          "type": "uint256"
        }
      ],
      "stateMutability": "view",
      "type": "function"
    },
    {
      "inputs": [],
      "name": "minimumInvestment",
      "outputs": [
        {
          "internalType": "uint256",
          "name": "",
          "type": "uint256"
        }
      ],
      "stateMutability": "view",
      "type": "function"
    },
    {
      "inputs": [],
      "name": "minimumRedemption",
      "outputs": [
        {
          "internalType": "uint256",
          "name": "",
          "type": "uint256"
        }
      ],
      "stateMutability": "view",
      "type": "function"
    },
    {
      "inputs": [],
      "name": "owner",
      "outputs": [
        {
          "internalType": "address",
          "name": "",
          "type": "address"
        }
      ],
      "stateMutability": "view",
      "type": "function"
    },
    {
      "inputs": [],
      "name": "pause",
      "outputs": [],
      "stateMutability": "nonpayable",
      "type": "function"
    },
    {
      "inputs": [],
      "name": "paused",
      "outputs": [
        {
          "internalType": "bool",
          "name": "",
          "type": "bool"
        }
      ],
      "stateMutability": "view",
      "type": "function"
    },
    {
      "inputs": [],
      "name": "priceOracle",
      "outputs": [
        {
          "internalType": "contract PriceOracle",
          "name": "",
          "type": "address"
        }
      ],
      "stateMutability": "view",
      "type": "function"
    },
    {
      "inputs": [
        {
          "internalType": "uint256",
          "name": "_shareAmount",
          "type": "uint256"
        }
      ],
      "name": "redeem",
      "outputs": [],
      "stateMutability": "nonpayable",
      "type": "function"
    },
    {
      "inputs": [],
      "name": "redemptionFeeRate",
      "outputs": [
        {
          "internalType": "uint256",
          "name": "",
          "type": "uint256"
        }
      ],
      "stateMutability": "view",
      "type": "function"
    },
    {
      "inputs": [
        {
          "internalType": "address",
          "name": "_token",
          "type": "address"
        }
      ],
      "name": "removeSupportedToken",
      "outputs": [],
      "stateMutability": "nonpayable",
      "type": "function"
    },
    {
      "inputs": [],
      "name": "renounceOwnership",
      "outputs": [],
      "stateMutability": "nonpayable",
      "type": "function"
    },
    {
      "inputs": [
        {
          "internalType": "address",
          "name": "_usdcToken",
          "type": "address"
        }
      ],
      "name": "setUSDCToken",
      "outputs": [],
      "stateMutability": "nonpayable",
      "type": "function"
    },
    {
      "inputs": [],
      "name": "shareToken",
      "outputs": [
        {
          "internalType": "contract FundShareToken",
          "name": "",
          "type": "address"
        }
      ],
      "stateMutability": "view",
      "type": "function"
    },
    {
      "inputs": [
        {
          "internalType": "uint256",
          "name": "",
          "type": "uint256"
        }
      ],
      "name": "supportedTokens",
      "outputs": [
        {
          "internalType": "address",
          "name": "",
          "type": "address"
        }
      ],
      "stateMutability": "view",
      "type": "function"
    },
    {
      "inputs": [
        {
          "internalType": "address",
          "name": "",
          "type": "address"
        }
      ],
      "name": "targetAllocations",
      "outputs": [
        {
          "internalType": "uint256",
          "name": "",
          "type": "uint256"
        }
      ],
      "stateMutability": "view",
      "type": "function"
    },
    {
      "inputs": [
        {
          "internalType": "address",
          "name": "",
          "type": "address"
        }
      ],
      "name": "tokenHoldings",
      "outputs": [
        {
          "internalType": "uint256",
          "name": "",
          "type": "uint256"
        }
      ],
      "stateMutability": "view",
      "type": "function"
    },
    {
      "inputs": [],
      "name": "totalAssets",
      "outputs": [
        {
          "internalType": "uint256",
          "name": "",
          "type": "uint256"
        }
      ],
      "stateMutability": "view",
      "type": "function"
    },
    {
      "inputs": [
        {
          "internalType": "address",
          "name": "newOwner",
          "type": "address"
        }
      ],
      "name": "transferOwnership",
      "outputs": [],
      "stateMutability": "nonpayable",
      "type": "function"
    },
    {
      "inputs": [],
      "name": "uniswapIntegration",
      "outputs": [
        {
          "internalType": "contract UniswapIntegration",
          "name": "",
          "type": "address"
        }
      ],
      "stateMutability": "view",
      "type": "function"
    },
    {
      "inputs": [],
      "name": "unpause",
      "outputs": [],
      "stateMutability": "nonpayable",
      "type": "function"
    },
    {
      "inputs": [
        {
          "internalType": "address",
          "name": "_newOracle",
          "type": "address"
        }
      ],
      "name": "updatePriceOracle",
      "outputs": [],
      "stateMutability": "nonpayable",
      "type": "function"
    },
    {
      "inputs": [
        {
          "internalType": "address",
          "name": "_token",
          "type": "address"
        },
        {
          "internalType": "uint256",
          "name": "_newAllocation",
          "type": "uint256"
        }
      ],
      "name": "updateTargetAllocation",
      "outputs": [],
      "stateMutability": "nonpayable",
      "type": "function"
    },
    {
      "inputs": [],
      "name": "usdcToken",
      "outputs": [
        {
          "internalType": "address",
          "name": "",
          "type": "address"
        }
      ],
      "stateMutability": "view",
      "type": "function"
    }
  ],
  "bytecode": "0x60a0604090808252346200036b57620042d5803803809162000022828562000370565b8339810160c0828203126200036b5781516001600160401b0392908381116200036b578262000053918301620003cf565b916020820151908482116200036b576200006f918301620003cf565b906200007d8582016200042a565b6060820151946200009f60a062000097608086016200042a565b94016200042a565b6001600160a01b039283169490929085156200035357600080546001600160a01b031980821689178355979195919084167f8be0079c531659141344cd1fd0a4f28419497f9722a3daafe3b4186f6b6457e08780a3600180556101f489116200030f5782861615620002cb5782169687156200027b57895191611c6e9182840192848410878511176200026757916200014e6200015d928695946200266787396060855260608501906200043f565b9083820360208501526200043f565b908b30910152039084f080156200025d578060805216803b1562000259579082809260248a5180968193632c8a25d560e11b83523060048401525af180156200024f5762000228575b50505060025490610100600160a81b039060081b1690610100600160a81b0319161760025560035416176003556009556305f5e100600c5562989680600d556032600e5542600a555161220090816200046782396080518181816101e80152818161041601528181610db4015281816114d601528181611d870152611f4b0152f35b82116200023b57508552388080620001a6565b634e487b7160e01b81526041600452602490fd5b88513d84823e3d90fd5b8280fd5b88513d85823e3d90fd5b634e487b7160e01b88526041600452602488fd5b895162461bcd60e51b815260206004820152602360248201527f496e76616c696420556e697377617020696e746567726174696f6e206164647260448201526265737360e81b6064820152608490fd5b895162461bcd60e51b815260206004820152601c60248201527f496e76616c6964207072696365206f7261636c652061646472657373000000006044820152606490fd5b895162461bcd60e51b815260206004820152601760248201527f4d616e6167656d656e742066656520746f6f20686967680000000000000000006044820152606490fd5b8851631e4fbdf760e01b815260006004820152602490fd5b600080fd5b601f909101601f19168101906001600160401b038211908210176200039457604052565b634e487b7160e01b600052604160045260246000fd5b60005b838110620003be5750506000910152565b8181015183820152602001620003ad565b81601f820112156200036b5780516001600160401b03811162000394576040519262000406601f8301601f19166020018562000370565b818452602082840101116200036b57620004279160208085019101620003aa565b90565b51906001600160a01b03821682036200036b57565b906020916200045a81518092818552858086019101620003aa565b601f01601f191601019056fe608080604052600436101561001357600080fd5b600090813560e01c90816301e1d114146119f8575080630f5a9d01146119705780631182446c146118d757806311eac855146118ae57806317a9e19814611890578063240028e8146118515780632630c12f146118245780632afcf480146112625780632b925b251461124457806339d1fc82146111ad5780633f4ba83a1461114257806341826c2d1461104a578063473897d1146110115780634d8e3d3b14610e455780635abd98db14610e295780635c975abb14610e06578063693de59214610de35780636c9fa59e14610d9e578063715018a614610d445780637631919014610bdd5780638456cb5914610b825780638da5cb5b14610b5b5780638f50ea9214610b3d57806391a543b614610b1f5780639908840c14610b025780639c016ffd14610ade578063a3289381146109ba578063a4b49ae314610991578063bc06e81d14610964578063c625562614610920578063d3c7c2c714610888578063da84a9de146106fb578063db006a75146103cc578063e1f1c4a7146103af578063e8f8080c14610376578063ed5614b614610358578063f2fde38b146102c85763f5ed3c35146101c357600080fd5b346102c557806003193601126102c5576040516318160ddd60e01b81526020816004817f00000000000000000000000000000000000000000000000000000000000000006001600160a01b03165afa9081156102ba578291610284575b50806102455760609150620f42405b6008549160405192835260208301526040820152f35b60085491620f424092838102938185041490151715610270575061026b81606093611d52565b61022f565b634e487b7160e01b81526011600452602490fd5b90506020813d82116102b2575b8161029e60209383611c74565b810103126102ad575138610220565b600080fd5b3d9150610291565b6040513d84823e3d90fd5b80fd5b50346102c55760203660031901126102c5576102e2611a14565b6102ea611b10565b6001600160a01b0390811690811561033f57600054826bffffffffffffffffffffffff60a01b821617600055167f8be0079c531659141344cd1fd0a4f28419497f9722a3daafe3b4186f6b6457e0600080a380f35b604051631e4fbdf760e01b815260048101849052602490fd5b50346102c557806003193601126102c5576020600e54604051908152f35b50346102c55760203660031901126102c5576020906040906001600160a01b0361039e611a14565b168152600683522054604051908152f35b50346102c557806003193601126102c55760206040516127108152f35b50346102c55760208060031936011261059657600435906103eb611d1c565b6103f3611cfe565b81156106c0576040516370a0823160e01b81523360048201526001600160a01b037f0000000000000000000000000000000000000000000000000000000000000000811692918281602481875afa8015610649578591879161068f575b50106106545761045e611e12565b6040516318160ddd60e01b81528281600481875afa90811561064957869161061c575b5080156105df5761049d9061049860085487611d3f565b611d52565b600d54811061059a57856104c06127106104b9600e5485611d3f565b0483611c3d565b94803b1561059657604051632770a7eb60e21b8152336004820152602481018890529082908290604490829084905af180156102ba5761057e575b505061053d6105459261050c611ee7565b60405163a9059cbb60e01b87820152336024820152604480820189905281529116610538606483611c74565b611c96565b600854611c3d565b6008556040519283528201527feebddeddf4ae1ee54a48517af27958e7666d69c7ba2e3e7c2b0ff87ef5f4491e60403392a26001805580f35b61058790611c4a565b6105925785386104fb565b8580fd5b5080fd5b60405162461bcd60e51b815260048101849052601860248201527f526564656d7074696f6e2062656c6f77206d696e696d756d00000000000000006044820152606490fd5b60405162461bcd60e51b81526004810184905260156024820152744e6f20736861726573206f75747374616e64696e6760581b6044820152606490fd5b90508281813d8311610642575b6106338183611c74565b810103126102ad575138610481565b503d610629565b6040513d88823e3d90fd5b60405162461bcd60e51b8152600481018390526013602482015272496e73756666696369656e742073686172657360681b6044820152606490fd5b809250848092503d83116106b9575b6106a88183611c74565b810103126102ad5784905138610450565b503d61069e565b6064906040519062461bcd60e51b825260048201526014602482015273125b9d985b1a59081cda185c9948185b5bdd5b9d60621b6044820152fd5b50346102c557806003193601126102c55760045461071881611ea1565b9061072281611ea1565b61072b82611ea1565b9061073583611ea1565b9261073e611fe6565b95861515815b8381106107a457610770888a61079a8a61078c8b61077e8c60405198899860a08a5260a08a0190611a2a565b9088820360208a0152611a67565b908682036040880152611a67565b908482036060860152611a67565b9060808301520390f35b6108176107b082611ac3565b90546001600160a01b039160039190821b1c82166107ce858d611ed3565b52816107d985611ac3565b905490831b1c168652600b60205260408620546107f6858a611ed3565b5261080084611ac3565b9054911b1c166108108388611ed3565b51906120d0565b6108218288611ed3565b52811561087e576108328187611ed3565b516127109081810291818304149015171561086a57906108558a61086593611d52565b61085f828a611ed3565b52611b7d565b610744565b634e487b7160e01b84526011600452602484fd5b6108659083610855565b50346102c557806003193601126102c557604051809182600454808452602080940190600484527f8a35acfbc15ff81a39ae7d344fd709f28e8600b4aa8c65c6b64bfe7fe36bd19b935b85828210610901575050506108e992500383611c74565b6108fd604051928284938452830190611a2a565b0390f35b85546001600160a01b03168452600195860195889550930192016108d2565b50346102c55760203660031901126102c557600435906004548210156102c557602061094b83611ac3565b905460405160039290921b1c6001600160a01b03168152f35b50346102c557806003193601126102c557602061097f611ee7565b6040516001600160a01b039091168152f35b50346102c557806003193601126102c5576003546040516001600160a01b039091168152602090f35b50346102c55760403660031901126102c5576109d4611a14565b602435906109e0611b10565b60018060a01b038091169182845260209160058352610a0560ff604087205416611bfb565b81151580610ad2575b610a1790611b3c565b6004548291865b828110610a775750505091604091610a5b6127107f4ef7a78bd86b4e03b8eeec706e7856601c91672893c3ccff13ac39a518299264951115611baf565b848652600682528286209181835493558351928352820152a280f35b8187610a8283611ac3565b929054600393841b1c1603610aa1575b50610a9c90611b7d565b610a1e565b819483610acb92610ab4610a9c95611ac3565b9054911b1c168a526006885260408a205490611ba2565b9390610a92565b50612710821115610a0e565b50346102c557806003193601126102c557610af7611b10565b610aff611e12565b80f35b50346102c557806003193601126102c55760206040516101f48152f35b50346102c557806003193601126102c5576020600954604051908152f35b50346102c557806003193601126102c5576020600d54604051908152f35b50346102c557806003193601126102c557546040516001600160a01b039091168152602090f35b50346102c557806003193601126102c557610b9b611b10565b610ba3611cfe565b600160ff1960025416176002557f62e78cea01bee320cd4e420270b5ea74000d11b0c9f74754ebdbfc544b05a2586020604051338152a180f35b50346102c55760203660031901126102c557610bf7611a14565b610bff611b10565b6001600160a01b0390811680835260056020526040832054610c239060ff16611bfb565b825b60045480821015610d3b57839083610c3c84611ac3565b939054600394851b1c1614610c5b575050610c5690611b7d565b610c25565b9092939160001991828101908111610d275790610c8b84610c7e610caa94611ac3565b905490881b1c1691611ac3565b90919082549060031b9160018060a01b03809116831b921b1916179055565b6004548015610d13570191610cbe83611ac3565b81939154921b1b191690556004555b80825260056020526040822060ff19815416905560066020528160408120557f4c910b69fe65a61f7531b9c5042b2329ca7179c77290aa7e2eb3afa3c8511fd38280a280f35b634e487b7160e01b86526031600452602486fd5b634e487b7160e01b87526011600452602487fd5b50509050610ccd565b50346102c557806003193601126102c557610d5d611b10565b600080546001600160a01b0319811682556001600160a01b03167f8be0079c531659141344cd1fd0a4f28419497f9722a3daafe3b4186f6b6457e08280a380f35b50346102c557806003193601126102c5576040517f00000000000000000000000000000000000000000000000000000000000000006001600160a01b03168152602090f35b50346102c557806003193601126102c5576020610dfe611f36565b604051908152f35b50346102c557806003193601126102c557602060ff600254166040519015158152f35b50346102c557806003193601126102c557602060405160648152f35b50346102c55760403660031901126102c557610e5f611a14565b602435610e6a611b10565b6001600160a01b03828116929091908315610fd4578385526020926005845260ff604087205416610f8f5782151580610f83575b610ea790611b3c565b8286600454925b838210610f4b575050612710610ec5911115611baf565b68010000000000000000811015610f37577ff4c563a3ea86ff1f4275e8c207df0375a51963f2b831b7bf4da8be938d92876c939291610c8b826001610f0d9401600455611ac3565b8385526005825260408520600160ff1982541617905560068252806040862055604051908152a280f35b634e487b7160e01b86526041600452602486fd5b9091610f77610f7d9183610f5e86611ac3565b90549060031b1c168b526006895260408b205490611ba2565b92611b7d565b90610eae565b50612710831115610e9e565b60405162461bcd60e51b815260048101859052601760248201527f546f6b656e20616c726561647920737570706f727465640000000000000000006044820152606490fd5b60405162461bcd60e51b8152602060048201526015602482015274496e76616c696420746f6b656e206164647265737360581b6044820152606490fd5b50346102c55760203660031901126102c5576020906040906001600160a01b03611039611a14565b168152600b83522054604051908152f35b50346102c557806003193601126102c5576004549061106882611ea1565b9061107283611ea1565b9261107b611fe6565b9180831515915b83811061109857604051806108fd898983611a9b565b6110f66110a482611ac3565b90546003916001600160a01b039190831b1c81166110c2858b611ed3565b52806110cd85611ac3565b905490841b1c16916110de85611ac3565b9054911b1c168452600b6020526040842054906120d0565b8315611137576127109081810291818304149015171561112357906108558661111e93611d52565b611082565b634e487b7160e01b83526011600452602483fd5b5061111e9082610855565b50346102c557806003193601126102c55761115b611b10565b60025460ff81161561119b5760ff19166002557f5db9ee0a495bf2e6ff9c91a7834c1ba4fdd244a5e8aa4e537bd38aeae4b073aa6020604051338152a180f35b604051638dfc202b60e01b8152600490fd5b50346102c55760203660031901126102c5576111c7611a14565b6111cf611b10565b6001600160a01b038116156112065760028054610100600160a81b03191660089290921b610100600160a81b031691909117905580f35b60405162461bcd60e51b8152602060048201526016602482015275496e76616c6964206f7261636c65206164647265737360501b6044820152606490fd5b50346102c557806003193601126102c5576020600c54604051908152f35b50346102c55760203660031901126102c55761127c611d1c565b611284611cfe565b600c54600435106117df57600454156117a45761129f611e12565b6112aa600435611d72565b801561175f576001600160a01b036112c0611ee7565b16604051906323b872dd60e01b602083015233602483015230604483015260043560648301526064825260a0820182811067ffffffffffffffff82111761174b5760405261130e9190611c96565b6004549161131b83611ea1565b9261132581611ea1565b9061132f81611e89565b9061133d6040519283611c74565b808252601f1961134c82611e89565b01366020840137835b8181106116d157506001600160a01b03905061136f611ee7565b60035460405163095ea7b360e01b60208083019182526001600160a01b039093166024830181905260043560448085019190915283529194939093169290919087906113bc606487611c74565b85519082865af186513d826116b5575b50501561165e575b50506003548493926001600160a01b03909116915061143c6113f4611ee7565b604051630b3d7fa360e31b81526001600160a01b03909116600482015260a060248201529788949061142a9060a4870190611a2a565b85810360031901604487015290611a67565b30606485015260031984820301608485015260208083519283815201920190855b81811061163d575050508383809203925af1928315611630578193611595575b50805b6004548110156114d357806114986114ce9286611ed3565b516114a282611ac3565b60018060a01b0391549060031b1c168452600b6020526114c760408520918254611ba2565b9055611b7d565b611480565b507f00000000000000000000000000000000000000000000000000000000000000006001600160a01b0316803b15610596576040516340c10f1960e01b8152336004820152602481018490529082908290604490829084905af180156102ba57611586575b5090611548600435600854611ba2565b60085560405190600435825260208201527f8514357b17ccbde354811f827b94585a7ab01b4034aa86a807b7cc2c100b7be860403392a26001805580f35b61158f90611c4a565b82611538565b9092503d8084833e6115a78183611c74565b8101906020818303126116285780519067ffffffffffffffff821161162c57019080601f830112156116285781516115de81611e89565b926115ec6040519485611c74565b81845260208085019260051b82010192831161059257602001905b82821061161857505050913861147d565b8151815260209182019101611607565b8380fd5b8480fd5b50604051903d90823e3d90fd5b825162ffffff1684528796508995506020938401939092019160010161145d565b6040519063095ea7b360e01b602083015260248201528560448201526044815280608081011067ffffffffffffffff608083011117610f3757906105388260806116ad95940160405282611c96565b3880806113d4565b9091506116c95750813b15155b38806113cc565b6001146116c2565b806116de61174692611ac3565b9054600391821b1c6001600160a01b03166116f9838b611ed3565b5261170382611ac3565b9054911b1c6001600160a01b03168652600660205260408620546127109061172d90600435611d3f565b046117388287611ed3565b52610bb861085f8286611ed3565b611355565b634e487b7160e01b85526041600452602485fd5b60405162461bcd60e51b815260206004820152601a60248201527f496e76616c6964207368617265732063616c63756c6174696f6e0000000000006044820152606490fd5b60405162461bcd60e51b81526020600482015260136024820152724e6f20737570706f7274656420746f6b656e7360681b6044820152606490fd5b60405162461bcd60e51b815260206004820152601860248201527f496e766573746d656e742062656c6f77206d696e696d756d00000000000000006044820152606490fd5b50346102c557806003193601126102c55760025460405160089190911c6001600160a01b03168152602090f35b50346102c55760203660031901126102c55760209060ff906040906001600160a01b0361187c611a14565b168152600584522054166040519015158152f35b50346102c557806003193601126102c5576020600a54604051908152f35b50346102c557806003193601126102c5576007546040516001600160a01b039091168152602090f35b50346102c557806003193601126102c5576004546118f481611ea1565b906118fe81611ea1565b92805b82811061191a575050506108fd60405192839283611a9b565b8061192761196b92611ac3565b90546001600160a01b039160039190821b1c82166119458489611ed3565b5261194f83611ac3565b9054911b1c168352600b602052604083205461085f8288611ed3565b611901565b50346102c55760203660031901126102c55761198a611a14565b611992611b10565b6001600160a01b031680156119bc576bffffffffffffffffffffffff60a01b600754161760075580f35b60405162461bcd60e51b8152602060048201526014602482015273496e76616c69642055534443206164647265737360601b6044820152606490fd5b9050346105965781600319360112610596576020906008548152f35b600435906001600160a01b03821682036102ad57565b90815180825260208080930193019160005b828110611a4a575050505090565b83516001600160a01b031685529381019392810192600101611a3c565b90815180825260208080930193019160005b828110611a87575050505090565b835185529381019392810192600101611a79565b9091611ab2611ac093604084526040840190611a2a565b916020818403910152611a67565b90565b600454811015611afa5760046000527f8a35acfbc15ff81a39ae7d344fd709f28e8600b4aa8c65c6b64bfe7fe36bd19b0190600090565b634e487b7160e01b600052603260045260246000fd5b6000546001600160a01b03163303611b2457565b60405163118cdaa760e01b8152336004820152602490fd5b15611b4357565b60405162461bcd60e51b815260206004820152601260248201527124b73b30b634b21030b63637b1b0ba34b7b760711b6044820152606490fd5b6000198114611b8c5760010190565b634e487b7160e01b600052601160045260246000fd5b91908201809211611b8c57565b15611bb657565b60405162461bcd60e51b815260206004820152601d60248201527f546f74616c20616c6c6f636174696f6e206578636565647320313030250000006044820152606490fd5b15611c0257565b60405162461bcd60e51b8152602060048201526013602482015272151bdad95b881b9bdd081cdd5c1c1bdc9d1959606a1b6044820152606490fd5b91908203918211611b8c57565b67ffffffffffffffff8111611c5e57604052565b634e487b7160e01b600052604160045260246000fd5b90601f8019910116810190811067ffffffffffffffff821117611c5e57604052565b906000602091828151910182855af115611cf2576000513d611ce957506001600160a01b0381163b155b611cc75750565b604051635274afe760e01b81526001600160a01b039091166004820152602490fd5b60011415611cc0565b6040513d6000823e3d90fd5b60ff60025416611d0a57565b60405163d93c066560e01b8152600490fd5b600260015414611d2d576002600155565b604051633ee5aeb560e01b8152600490fd5b81810292918115918404141715611b8c57565b8115611d5c570490565b634e487b7160e01b600052601260045260246000fd5b6040516318160ddd60e01b81526020816004817f00000000000000000000000000000000000000000000000000000000000000006001600160a01b03165afa908115611cf257600091611de1575b508015611ddd57611dd490611ac092611d3f565b60085490611d52565b5090565b906020823d8211611e0a575b81611dfa60209383611c74565b810103126102c557505138611dc0565b3d9150611ded565b600a5480421115611e8657611e47611e2f6301e133809242611c3d565b612710611e4160085460095490611d3f565b04611d3f565b0480611e505750565b60407f6f4a589972e181c1010960e6cb88e05776a4f3a28373e49c69ffdf8cc30f1a319142600a558151908152426020820152a1565b50565b67ffffffffffffffff8111611c5e5760051b60200190565b90611eab82611e89565b611eb86040519182611c74565b8281528092611ec9601f1991611e89565b0190602036910137565b8051821015611afa5760209160051b010190565b6007546001600160a01b03168015611efc5790565b60405162461bcd60e51b81526020600482015260126024820152711554d110c81d1bdad95b881b9bdd081cd95d60721b6044820152606490fd5b6040516318160ddd60e01b81526020816004817f00000000000000000000000000000000000000000000000000000000000000006001600160a01b03165afa908115611cf257600091611fb5575b508015611fad5760085490620f424091828102928184041490151715611b8c57611ac091611d52565b50620f424090565b906020823d8211611fde575b81611fce60209383611c74565b810103126102c557505138611f84565b3d9150611fc1565b6001600160a01b0380611ff7611ee7565b1690604091825180916370a0823160e01b825230600483015281602460209485935afa9081156120c557600091612098575b5092600092600454935b84811061204257505050505090565b8161204c82611ac3565b90549060031b1c1680600052600b855283600020549081612078575b505061207390611b7d565b612033565b9661208a6120909261207394996120d0565b90611ba2565b959038612068565b908282813d83116120be575b6120ae8183611c74565b810103126102c557505138612029565b503d6120a4565b84513d6000823e3d90fd5b9080156121c3576001600160a01b0380806120e9611ee7565b1693169283146121bd5760025460081c16916040809160248251809681936302c68be360e31b835260048301525afa9283156121b257600093612183575b50600083131561214a575068056bc75e2d631000009161214691611d3f565b0490565b5162461bcd60e51b8152602060048201526013602482015272496e76616c696420746f6b656e20707269636560681b6044820152606490fd5b90928382813d83116121ab575b61219a8183611c74565b810103126102c55750519138612127565b503d612190565b50513d6000823e3d90fd5b50905090565b505060009056fea2646970667358221220b7abb53cdaa9ef721404b643c1df9659f57c0234bb21d04e007ccb3c5550f59264736f6c634300081400336101606040818152346200049f5762001c6e8038038091620000228286620004a4565b843982016060838203126200049f5782516001600160401b0392908381116200049f578262000053918601620004ed565b91602090818601518581116200049f57839162000072918801620004ed565b9501516001600160a01b039283821692918390036200049f57805192818401848110888211176200039e57825260019485855283850195603160f81b875287518981116200039e5760038054918383811c9316801562000494575b888410146200047e57601f9283811162000433575b508088848211600114620003c057600091620003b4575b5060001982841b1c191690841b1781555b8b51918b83116200039e5760049c8d548581811c9116801562000393575b8a8210146200037e578e83821162000333575b50508d89928511600114620002c85750938394918492600095620002bc575b50501b92600019911b1c19161789555b8115620002a557600580546001600160a01b031981168417909155167f8be0079c531659141344cd1fd0a4f28419497f9722a3daafe3b4186f6b6457e0600080a3620001b68562000548565b93610120948552620001c884620006f0565b95610140968752838151910120938460e05251902096610100978089524660a0528251938401947f8b73c3c69bb8fe3d512ecc4cf759cc79239f7b179b0ffacaa9a75d522b39400f86528385015260608401524660808401523060a084015260a0835260c0830196838810908811176200029057508590525190206080523060c0526114269384620008488539608051846110fd015260a051846111c9015260c051846110c7015260e0518461114c01525183611172015251826106aa015251816106d40152f35b604190634e487b7160e01b6000525260246000fd5b8251631e4fbdf760e01b81526000818b0152602490fd5b0151935038806200015a565b929190601f19851693600052848a6000209460005b8c898383106200031b575050501062000300575b50505050811b0189556200016a565b01519060f884600019921b161c1916905538808080620002f1565b868601518955909701969485019488935001620002dd565b600052896000208380870160051c8201928c881062000374575b0160051c019086905b828110620003675750508e6200013b565b6000815501869062000356565b925081926200034d565b60228f634e487b7160e01b6000525260246000fd5b90607f169062000128565b634e487b7160e01b600052604160045260246000fd5b90508b015138620000f9565b8592508c90601f198316856000528b600020928c6000915b83831062000411575050508311620003f8575b5050811b0181556200010a565b8d015160001983861b60f8161c191690553880620003eb565b948482949597989293960151815501940192019087949392918f8d90620003d8565b82600052886000208480840160051c8201928b851062000474575b0160051c019085905b82811062000467575050620000e2565b6000815501859062000457565b925081926200044e565b634e487b7160e01b600052602260045260246000fd5b92607f1692620000cd565b600080fd5b601f909101601f19168101906001600160401b038211908210176200039e57604052565b60005b838110620004dc5750506000910152565b8181015183820152602001620004cb565b81601f820112156200049f5780516001600160401b0381116200039e576040519262000524601f8301601f191660200185620004a4565b818452602082840101116200049f57620005459160208085019101620004c8565b90565b805160209081811015620005c65750601f8251116200058457808251920151908083106200057557501790565b82600019910360031b1b161790565b604490620005b89260405193849263305a27a960e01b845280600485015282519283918260248701528686019101620004c8565b601f01601f19168101030190fd5b906001600160401b0382116200039e57600654926001938481811c91168015620006e5575b838210146200047e57601f8111620006ab575b5081601f84116001146200063f575092829391839260009462000633575b50501b916000199060031b1c19161760065560ff90565b0151925038806200061c565b919083601f198116600660005284600020946000905b8883831062000690575050501062000676575b505050811b0160065560ff90565b015160001960f88460031b161c1916905538808062000668565b85870151885590960195948501948793509081019062000655565b600660005284601f84600020920160051c820191601f860160051c015b828110620006d8575050620005fe565b60008155018590620006c8565b90607f1690620005eb565b8051602090818110156200071d5750601f8251116200058457808251920151908083106200057557501790565b906001600160401b0382116200039e57600754926001938481811c911680156200083c575b838210146200047e57601f811162000802575b5081601f84116001146200079657509282939183926000946200078a575b50501b916000199060031b1c19161760075560ff90565b01519250388062000773565b919083601f198116600760005284600020946000905b88838310620007e75750505010620007cd575b505050811b0160075560ff90565b015160001960f88460031b161c19169055388080620007bf565b858701518855909601959485019487935090810190620007ac565b600760005284601f84600020920160051c820191601f860160051c015b8281106200082f57505062000755565b600081550185906200081f565b90607f16906200074256fe6080604081815260048036101561001557600080fd5b600092833560e01c90816306fdde0314610c4257508063095ea7b314610c185780630ceb1f6714610be457806318160ddd14610bc557806323b872dd14610ad2578063313ce56714610ab65780633644e51514610a9257806340c10f191461093b57806359144baa1461087f57806370a0823114610848578063715018a6146107e85780637ecebe00146107b057806384b0196e146106935780638da5cb5b1461066a57806395d89b41146105805780639dc29fac146103ab578063a9059cbb1461037a578063bd097e2114610351578063d505accf146101e9578063dd62ed3e1461019c5763f2fde38b1461010a57600080fd5b3461019857602036600319011261019857610123610d53565b9061012c610d84565b6001600160a01b03918216928315610182575050600554826bffffffffffffffffffffffff60a01b821617600555167f8be0079c531659141344cd1fd0a4f28419497f9722a3daafe3b4186f6b6457e08380a380f35b51631e4fbdf760e01b8152908101849052602490fd5b8280fd5b5050346101e557806003193601126101e557806020926101ba610d53565b6101c2610d6e565b6001600160a01b0391821683526001865283832091168252845220549051908152f35b5080fd5b508290346101e55760e03660031901126101e557610205610d53565b61020d610d6e565b906044359260643560843560ff8116810361034d578142116103365760018060a01b0390818516928389526008602052898920908154916001830190558a519060208201927f6e71edae12b1b97f4d1f60370fef10105fa2faae0126114a169c64845d6126c98452868d840152858a1660608401528a608084015260a083015260c082015260c0815260e0810181811067ffffffffffffffff821117610323578b525190206102f1916102e8916102c26110c4565b908c519161190160f01b83526002830152602282015260c43591604260a4359220610faf565b9092919261103f565b168181036103085786610305878787610f1c565b80f35b87516325c0072360e11b815292830152602482015260449150fd5b634e487b7160e01b8b526041875260248bfd5b875163313c898160e11b8152808401839052602490fd5b8680fd5b5050346101e557816003193601126101e55760095490516001600160a01b039091168152602090f35b5050346101e557806003193601126101e5576020906103a461039a610d53565b6024359033610e3e565b5160018152f35b5090346101985780600319360112610198576103c5610d53565b6009549091602435916001600160a01b03908116330361053d5783169384156104fb576103f38315156113a5565b8486526020938685528383882054106104b957858752868552828720549184831061048557505090827fdb79cc492679ef2624944d6ed3cdbad5b974b5550de330ae18922f2944eec78a9493928688528785520381872055816002540360025585857fddf252ad1be2c89b69c2b068fc378daa952ba7f163c4a11628f55a4df523b3ef858451868152a351908152a280f35b835163391434e360e21b81526001600160a01b03909216908201908152602081018390526040810185905281906060010390fd5b5083606492519162461bcd60e51b8352820152601c60248201527f496e73756666696369656e742062616c616e636520746f206275726e000000006044820152fd5b6020606492519162461bcd60e51b8352820152601d60248201527f43616e6e6f74206275726e2066726f6d207a65726f20616464726573730000006044820152fd5b815162461bcd60e51b8152602081870152601b60248201527f4f6e6c792066756e6420636f6e74726163742063616e206275726e00000000006044820152606490fd5b509034610198578260031936011261019857805191838154906105a282610db0565b8086529260019280841690811561063f57506001146105e3575b6105df86866105cd828b0383610e1c565b51918291602083526020830190610d13565b0390f35b815294507f8a35acfbc15ff81a39ae7d344fd709f28e8600b4aa8c65c6b64bfe7fe36bd19b5b828610610627575050506105cd8260206105df9582010194386105bc565b80546020878701810191909152909501948101610609565b90506105df9750869350602092506105cd94915060ff191682840152151560051b82010194386105bc565b5050346101e557816003193601126101e55760055490516001600160a01b039091168152602090f35b5090346101985782600319360112610198576106ce7f00000000000000000000000000000000000000000000000000000000000000006111ef565b926106f87f00000000000000000000000000000000000000000000000000000000000000006112eb565b908251926020928385019585871067ffffffffffffffff88111761079d57509280610753838896610746998b9996528686528151998a99600f60f81b8b5260e0868c015260e08b0190610d13565b91898303908a0152610d13565b924660608801523060808801528460a088015286840360c088015251928381520193925b82811061078657505050500390f35b835185528695509381019392810192600101610777565b634e487b7160e01b845260419052602483fd5b5050346101e55760203660031901126101e55760209181906001600160a01b036107d8610d53565b1681526008845220549051908152f35b8334610845578060031936011261084557610801610d84565b600580546001600160a01b0319811690915581906001600160a01b03167f8be0079c531659141344cd1fd0a4f28419497f9722a3daafe3b4186f6b6457e08280a380f35b80fd5b5050346101e55760203660031901126101e55760209181906001600160a01b03610870610d53565b16815280845220549051908152f35b503461019857602036600319011261019857610899610d53565b906108a2610d84565b6001600160a01b039182169283156108f8575050600954826bffffffffffffffffffffffff60a01b821617600955167f24ea839bf6e2c59dc275b79b43cd8833c0b850e8ef5f329037ea975d1f6c8b758380a380f35b906020606492519162461bcd60e51b8352820152601d60248201527f496e76616c69642066756e6420636f6e747261637420616464726573730000006044820152fd5b509034610198578060031936011261019857610955610d53565b60095460243592916001600160a01b039182163303610a4f5716928315610a0d576109818315156113a5565b600254908382018092116109fa5750916020917f6332ddaa8a69b5eb2524ec7ca317b7c2b01ecf678d584031415f81270977b8fc9360025584865285835280862082815401905584867fddf252ad1be2c89b69c2b068fc378daa952ba7f163c4a11628f55a4df523b3ef858451868152a351908152a280f35b634e487b7160e01b865260119052602485fd5b6020606492519162461bcd60e51b8352820152601b60248201527f43616e6e6f74206d696e7420746f207a65726f206164647265737300000000006044820152fd5b825162461bcd60e51b8152602081870152601b60248201527f4f6e6c792066756e6420636f6e74726163742063616e206d696e7400000000006044820152606490fd5b5050346101e557816003193601126101e557602090610aaf6110c4565b9051908152f35b5050346101e557816003193601126101e5576020905160128152f35b50823461084557606036600319011261084557610aed610d53565b610af5610d6e565b916044359360018060a01b038316808352600160205286832033845260205286832054916000198310610b31575b6020886103a4898989610e3e565b868310610b99578115610b82573315610b6b575082526001602090815286832033845281529186902090859003905582906103a487610b23565b8751634a1406b160e11b8152908101849052602490fd5b875163e602df0560e01b8152908101849052602490fd5b8751637dc7a0d960e11b8152339181019182526020820193909352604081018790528291506060010390fd5b5050346101e557816003193601126101e5576020906002549051908152f35b5050346101e55760203660031901126101e557602090610c02610d53565b60018060a01b0380600954169116149051908152f35b5050346101e557806003193601126101e5576020906103a4610c38610d53565b6024359033610f1c565b8490843461019857826003193601126101985782600354610c6281610db0565b80855291600191808316908115610ceb5750600114610c8e575b5050506105cd826105df940383610e1c565b9450600385527fc2575a0e9e593c00f959f8c92f12db2869c3395a3b0502d05e2516446f71f85b5b828610610cd3575050506105cd8260206105df9582010194610c7c565b80546020878701810191909152909501948101610cb6565b6105df9750869350602092506105cd94915060ff191682840152151560051b82010194610c7c565b919082519283825260005b848110610d3f575050826000602080949584010152601f8019910116010190565b602081830181015184830182015201610d1e565b600435906001600160a01b0382168203610d6957565b600080fd5b602435906001600160a01b0382168203610d6957565b6005546001600160a01b03163303610d9857565b60405163118cdaa760e01b8152336004820152602490fd5b90600182811c92168015610de0575b6020831014610dca57565b634e487b7160e01b600052602260045260246000fd5b91607f1691610dbf565b6040810190811067ffffffffffffffff821117610e0657604052565b634e487b7160e01b600052604160045260246000fd5b90601f8019910116810190811067ffffffffffffffff821117610e0657604052565b916001600160a01b03808416928315610f035716928315610eea5760009083825281602052604082205490838210610eb8575091604082827fddf252ad1be2c89b69c2b068fc378daa952ba7f163c4a11628f55a4df523b3ef958760209652828652038282205586815220818154019055604051908152a3565b60405163391434e360e21b81526001600160a01b03919091166004820152602481019190915260448101839052606490fd5b60405163ec442f0560e01b815260006004820152602490fd5b604051634b637e8f60e11b815260006004820152602490fd5b6001600160a01b03908116918215610f965716918215610f7d5760207f8c5be1e5ebec7d5bd14f71427d1e84f3dd0314c0f7b2291e5b200ac8c7c3b925918360005260018252604060002085600052825280604060002055604051908152a3565b604051634a1406b160e11b815260006004820152602490fd5b60405163e602df0560e01b815260006004820152602490fd5b91907f7fffffffffffffffffffffffffffffff5d576e7357a4501ddfe92f46681b20a0841161103357926020929160ff608095604051948552168484015260408301526060820152600092839182805260015afa156110275780516001600160a01b0381161561101e57918190565b50809160019190565b604051903d90823e3d90fd5b50505060009160039190565b60048110156110ae5780611051575050565b6001810361106b5760405163f645eedf60e01b8152600490fd5b6002810361108c5760405163fce698f760e01b815260048101839052602490fd5b6003146110965750565b602490604051906335e2f38360e21b82526004820152fd5b634e487b7160e01b600052602160045260246000fd5b307f00000000000000000000000000000000000000000000000000000000000000006001600160a01b031614806111c6575b1561111f577f000000000000000000000000000000000000000000000000000000000000000090565b60405160208101907f8b73c3c69bb8fe3d512ecc4cf759cc79239f7b179b0ffacaa9a75d522b39400f82527f000000000000000000000000000000000000000000000000000000000000000060408201527f000000000000000000000000000000000000000000000000000000000000000060608201524660808201523060a082015260a0815260c0810181811067ffffffffffffffff821117610e065760405251902090565b507f000000000000000000000000000000000000000000000000000000000000000046146110f6565b60ff811461122d5760ff811690601f821161121b576040519161121183610dea565b8252602082015290565b604051632cd44ac360e21b8152600490fd5b5060405160065481600061124083610db0565b808352926001908181169081156112c9575060011461126a575b5061126792500382610e1c565b90565b6006600090815291507ff652222313e28459528d920b65115c16c04f3efc82aaedc97be59f3f377c0d3f5b8483106112ae575061126793505081016020013861125a565b81935090816020925483858901015201910190918492611295565b90506020925061126794915060ff191682840152151560051b8201013861125a565b60ff811461130d5760ff811690601f821161121b576040519161121183610dea565b5060405160075481600061132083610db0565b808352926001908181169081156112c95750600114611346575061126792500382610e1c565b6007600090815291507fa66cc928b5edb82af9bd49922954155ab7b0942694bea4ce44661d9a8736c6885b84831061138a575061126793505081016020013861125a565b81935090816020925483858901015201910190918492611371565b156113ac57565b606460405162461bcd60e51b815260206004820152602060248201527f416d6f756e74206d7573742062652067726561746572207468616e207a65726f6044820152fdfea2646970667358221220d68efccf3292b95754f189a3f9db0a2f9b2a1f6fc7feddfb8a0df20daa27c48064736f6c63430008140033",
  "linkReferences": {},
  "deployedLinkReferences": {}
}