{
  "_format": "hh-sol-artifact-1",
  "contractName": "PriceOracle",
  "sourceName": "contracts/PriceOracle.sol",
  "abi": [
    {
      "inputs": [
        {
          "internalType": "address",
          "name": "_initialOwner",
          "type": "address"
        }
      ],
      "stateMutability": "nonpayable",
      "type": "constructor"
    },
    {
      "inputs": [
        {
          "internalType": "address",
          "name": "owner",
          "type": "address"
        }
      ],
      "name": "OwnableInvalidOwner",
      "type": "error"
    },
    {
      "inputs": [
        {
          "internalType": "address",
          "name": "account",
          "type": "address"
        }
      ],
      "name": "OwnableUnauthorizedAccount",
      "type": "error"
    },
    {
      "anonymous": false,
      "inputs": [
        {
          "indexed": true,
          "internalType": "address",
          "name": "previousOwner",
          "type": "address"
        },
        {
          "indexed": true,
          "internalType": "address",
          "name": "newOwner",
          "type": "address"
        }
      ],
      "name": "OwnershipTransferred",
      "type": "event"
    },
    {
      "anonymous": false,
      "inputs": [
        {
          "indexed": true,
          "internalType": "address",
          "name": "token",
          "type": "address"
        },
        {
          "indexed": true,
          "internalType": "address",
          "name": "priceFeed",
          "type": "address"
        }
      ],
      "name": "PriceFeedUpdated",
      "type": "event"
    },
    {
      "anonymous": false,
      "inputs": [
        {
          "indexed": true,
          "internalType": "address",
          "name": "token",
          "type": "address"
        },
        {
          "indexed": false,
          "internalType": "int256",
          "name": "price",
          "type": "int256"
        },
        {
          "indexed": false,
          "internalType": "uint256",
          "name": "timestamp",
          "type": "uint256"
        }
      ],
      "name": "PriceRetrieved",
      "type": "event"
    },
    {
      "inputs": [],
      "name": "PRICE_VALIDITY_PERIOD",
      "outputs": [
        {
          "internalType": "uint256",
          "name": "",
          "type": "uint256"
        }
      ],
      "stateMutability": "view",
      "type": "function"
    },
    {
      "inputs": [
        {
          "internalType": "address",
          "name": "_token",
          "type": "address"
        },
        {
          "internalType": "uint256",
          "name": "_amount",
          "type": "uint256"
        }
      ],
      "name": "calculateTokenValue",
      "outputs": [
        {
          "internalType": "uint256",
          "name": "value",
          "type": "uint256"
        }
      ],
      "stateMutability": "view",
      "type": "function"
    },
    {
      "inputs": [
        {
          "internalType": "address",
          "name": "_token",
          "type": "address"
        }
      ],
      "name": "getLatestPrice",
      "outputs": [
        {
          "internalType": "int256",
          "name": "price",
          "type": "int256"
        },
        {
          "internalType": "uint256",
          "name": "timestamp",
          "type": "uint256"
        }
      ],
      "stateMutability": "view",
      "type": "function"
    },
    {
      "inputs": [
        {
          "internalType": "address[]",
          "name": "_tokens",
          "type": "address[]"
        }
      ],
      "name": "getMultiplePrices",
      "outputs": [
        {
          "internalType": "int256[]",
          "name": "prices",
          "type": "int256[]"
        },
        {
          "internalType": "uint256[]",
          "name": "timestamps",
          "type": "uint256[]"
        }
      ],
      "stateMutability": "view",
      "type": "function"
    },
    {
      "inputs": [
        {
          "internalType": "address",
          "name": "_token",
          "type": "address"
        }
      ],
      "name": "getPriceFeedDecimals",
      "outputs": [
        {
          "internalType": "uint8",
          "name": "",
          "type": "uint8"
        }
      ],
      "stateMutability": "view",
      "type": "function"
    },
    {
      "inputs": [
        {
          "internalType": "address",
          "name": "_token",
          "type": "address"
        }
      ],
      "name": "isPriceFeedSet",
      "outputs": [
        {
          "internalType": "bool",
          "name": "",
          "type": "bool"
        }
      ],
      "stateMutability": "view",
      "type": "function"
    },
    {
      "inputs": [],
      "name": "owner",
      "outputs": [
        {
          "internalType": "address",
          "name": "",
          "type": "address"
        }
      ],
      "stateMutability": "view",
      "type": "function"
    },
    {
      "inputs": [
        {
          "internalType": "address",
          "name": "",
          "type": "address"
        }
      ],
      "name": "priceFeeds",
      "outputs": [
        {
          "internalType": "contract AggregatorV3Interface",
          "name": "",
          "type": "address"
        }
      ],
      "stateMutability": "view",
      "type": "function"
    },
    {
      "inputs": [],
      "name": "renounceOwnership",
      "outputs": [],
      "stateMutability": "nonpayable",
      "type": "function"
    },
    {
      "inputs": [
        {
          "internalType": "address",
          "name": "_token",
          "type": "address"
        },
        {
          "internalType": "address",
          "name": "_priceFeed",
          "type": "address"
        }
      ],
      "name": "setPriceFeed",
      "outputs": [],
      "stateMutability": "nonpayable",
      "type": "function"
    },
    {
      "inputs": [
        {
          "internalType": "address",
          "name": "newOwner",
          "type": "address"
        }
      ],
      "name": "transferOwnership",
      "outputs": [],
      "stateMutability": "nonpayable",
      "type": "function"
    }
  ],
  "bytecode": "0x6080346100bb57601f610af138819003918201601f19168301916001600160401b038311848410176100c0578084926020946040528339810103126100bb57516001600160a01b0390818116908190036100bb5780156100a257600080546001600160a01b03198116831782556040519316907f8be0079c531659141344cd1fd0a4f28419497f9722a3daafe3b4186f6b6457e09080a3610a1a90816100d78239f35b604051631e4fbdf760e01b815260006004820152602490fd5b600080fd5b634e487b7160e01b600052604160045260246000fdfe6080604081815260048036101561001557600080fd5b600092833560e01c908163153f399d146107be5750806316345f181461060d57806322ab2345146105d05780636301a143146105b3578063715018a61461055957806376e11286146104505780638c8557d91461039b5780638da5cb5b146103735780639dcb511a14610338578063a1c7ffb3146101255763f2fde38b1461009c57600080fd5b34610121576020366003190112610121576100b56108aa565b906100be6108c5565b6001600160a01b0391821692831561010b57505082546001600160a01b0319811683178455167f8be0079c531659141344cd1fd0a4f28419497f9722a3daafe3b4186f6b6457e08380a380f35b51631e4fbdf760e01b8152908101849052602490fd5b8280fd5b508234610335576020806003193601126103315782359167ffffffffffffffff94858411610331573660238501121561033157838501359586116103315760059060243688841b870182011161032d57610185889796949593929861098c565b966101928951988961093d565b80885261019e8161098c565b9684890195601f198099013688376101b58361098c565b946101c28c51968761093d565b8386526101ce8461098c565b8688019a01368b37885b84811061025457505050505050865196879681880191885251809152606087019390855b81811061023d57505050858303868301525180835291810193925b82811061022657505050500390f35b835185528695509381019392810192600101610217565b8251865289985094840194918401916001016101fc565b8581839e98999b9a9c9d9e1b8401013560018060a01b038116809103610329578751906302c68be360e31b82528582015287818881305afa90811561031f57828f8b8d938c85966102e3575b5050936102b1836102b795966109ba565b526109ba565b5260001981146102d1576001019b9a99979896959b6101d8565b634e487b7160e01b8952601184528589fd5b8496506102b795506102b1918161030e92903d10610318575b610306818361093d565b8101906109a4565b965094508c6102a0565b503d6102fc565b88513d8c823e3d90fd5b8980fd5b8380fd5b5080fd5b80fd5b505034610331576020366003190112610331576020916001600160a01b03908290826103626108aa565b168152600185522054169051908152f35b505034610331578160031936011261033157905490516001600160a01b039091168152602090f35b509034610121576020928360031936011261033557836001600160a01b03806103c26108aa565b1683526001825283832054166103d98115156108f1565b835163313ce56760e01b815294859182905afa928315610444578193610406575b505060ff905191168152f35b909192508381813d831161043d575b61041f818361093d565b8101031261033157519060ff8216820361033557509060ff386103fa565b503d610415565b509051903d90823e3d90fd5b50346101215781600319360112610121576104696108aa565b6001600160a01b03602435818116949290859003610555576104896108c5565b1691821561051b5783156104d957508184526001602052832080546001600160a01b031916831790557fa8abe0398416476db5b05737cd4da3b3cbde5012d978a6a6c3fd49d3217535368380a380f35b6020606492519162461bcd60e51b8352820152601a60248201527f496e76616c6964207072696365206665656420616464726573730000000000006044820152fd5b6020606492519162461bcd60e51b83528201526015602482015274496e76616c696420746f6b656e206164647265737360581b6044820152fd5b8580fd5b83346103355780600319360112610335576105726108c5565b80546001600160a01b03198116825581906001600160a01b03167f8be0079c531659141344cd1fd0a4f28419497f9722a3daafe3b4186f6b6457e08280a380f35b50503461033157816003193601126103315760209051610e108152f35b505034610331576020366003190112610331576020916001600160a01b03908290826105fa6108aa565b1681526001855220541615159051908152f35b50823461033557602080600319360112610331578260a06001600160a01b03806106356108aa565b16855260018452868520541661064c8115156108f1565b8651633fabe5a360e21b815295869182905afa9283156107b3578094819461075f575b50808513156107285783156106e657834203904282116106d35750610e101061069d57508351928352820152f35b60649185519162461bcd60e51b83528201526012602482015271141c9a58d94819185d18481d1bdbc81bdb1960721b6044820152fd5b634e487b7160e01b815260118352602490fd5b5060649185519162461bcd60e51b8352820152601860248201527f50726963652064617461206e6f7420617661696c61626c6500000000000000006044820152fd5b5060649185519162461bcd60e51b83528201526012602482015271496e76616c6964207072696365206461746160701b6044820152fd5b9450925060a0843d82116107ab575b8161077b60a0938361093d565b810103126101215761078c84610975565b50818401516107a2608060608701519601610975565b5093928661066f565b3d915061076e565b8551903d90823e3d90fd5b91849150346103315783600319360112610331576107da6108aa565b6302c68be360e31b84526001600160a01b03168184015260248035908590859081305afa9384156108a0578394610880575b508284131561084d5783810293818504149015171561083a5760208368056bc75e2d63100000865191048152f35b634e487b7160e01b825260119052602490fd5b845162461bcd60e51b8152602081840152600d60248201526c496e76616c696420707269636560981b6044820152606490fd5b610898919450853d871161031857610306818361093d565b50928561080c565b85513d85823e3d90fd5b600435906001600160a01b03821682036108c057565b600080fd5b6000546001600160a01b031633036108d957565b60405163118cdaa760e01b8152336004820152602490fd5b156108f857565b60405162461bcd60e51b815260206004820152601c60248201527f50726963652066656564206e6f742073657420666f7220746f6b656e000000006044820152606490fd5b90601f8019910116810190811067ffffffffffffffff82111761095f57604052565b634e487b7160e01b600052604160045260246000fd5b519069ffffffffffffffffffff821682036108c057565b67ffffffffffffffff811161095f5760051b60200190565b91908260409103126108c0576020825192015190565b80518210156109ce5760209160051b010190565b634e487b7160e01b600052603260045260246000fdfea2646970667358221220a9c4a8141419b928a289098b5199ced084d9d0cf48ef75d584ddf582b9ddf7cd64736f6c63430008140033",
  "linkReferences": {},
  "deployedLinkReferences": {}
}