{
  "_format": "hh-sol-artifact-1",
  "contractName": "MockUSDC",
  "sourceName": "contracts/MockUSDC.sol",
  "abi": [
    {
      "inputs": [
        {
          "internalType": "address",
          "name": "_initialOwner",
          "type": "address"
        }
      ],
      "stateMutability": "nonpayable",
      "type": "constructor"
    },
    {
      "inputs": [
        {
          "internalType": "address",
          "name": "spender",
          "type": "address"
        },
        {
          "internalType": "uint256",
          "name": "allowance",
          "type": "uint256"
        },
        {
          "internalType": "uint256",
          "name": "needed",
          "type": "uint256"
        }
      ],
      "name": "ERC20InsufficientAllowance",
      "type": "error"
    },
    {
      "inputs": [
        {
          "internalType": "address",
          "name": "sender",
          "type": "address"
        },
        {
          "internalType": "uint256",
          "name": "balance",
          "type": "uint256"
        },
        {
          "internalType": "uint256",
          "name": "needed",
          "type": "uint256"
        }
      ],
      "name": "ERC20InsufficientBalance",
      "type": "error"
    },
    {
      "inputs": [
        {
          "internalType": "address",
          "name": "approver",
          "type": "address"
        }
      ],
      "name": "ERC20InvalidApprover",
      "type": "error"
    },
    {
      "inputs": [
        {
          "internalType": "address",
          "name": "receiver",
          "type": "address"
        }
      ],
      "name": "ERC20InvalidReceiver",
      "type": "error"
    },
    {
      "inputs": [
        {
          "internalType": "address",
          "name": "sender",
          "type": "address"
        }
      ],
      "name": "ERC20InvalidSender",
      "type": "error"
    },
    {
      "inputs": [
        {
          "internalType": "address",
          "name": "spender",
          "type": "address"
        }
      ],
      "name": "ERC20InvalidSpender",
      "type": "error"
    },
    {
      "inputs": [
        {
          "internalType": "address",
          "name": "owner",
          "type": "address"
        }
      ],
      "name": "OwnableInvalidOwner",
      "type": "error"
    },
    {
      "inputs": [
        {
          "internalType": "address",
          "name": "account",
          "type": "address"
        }
      ],
      "name": "OwnableUnauthorizedAccount",
      "type": "error"
    },
    {
      "anonymous": false,
      "inputs": [
        {
          "indexed": true,
          "internalType": "address",
          "name": "owner",
          "type": "address"
        },
        {
          "indexed": true,
          "internalType": "address",
          "name": "spender",
          "type": "address"
        },
        {
          "indexed": false,
          "internalType": "uint256",
          "name": "value",
          "type": "uint256"
        }
      ],
      "name": "Approval",
      "type": "event"
    },
    {
      "anonymous": false,
      "inputs": [
        {
          "indexed": true,
          "internalType": "address",
          "name": "user",
          "type": "address"
        },
        {
          "indexed": false,
          "internalType": "uint256",
          "name": "amount",
          "type": "uint256"
        }
      ],
      "name": "FaucetUsed",
      "type": "event"
    },
    {
      "anonymous": false,
      "inputs": [
        {
          "indexed": true,
          "internalType": "address",
          "name": "previousOwner",
          "type": "address"
        },
        {
          "indexed": true,
          "internalType": "address",
          "name": "newOwner",
          "type": "address"
        }
      ],
      "name": "OwnershipTransferred",
      "type": "event"
    },
    {
      "anonymous": false,
      "inputs": [
        {
          "indexed": true,
          "internalType": "address",
          "name": "from",
          "type": "address"
        },
        {
          "indexed": false,
          "internalType": "uint256",
          "name": "amount",
          "type": "uint256"
        }
      ],
      "name": "TokensBurned",
      "type": "event"
    },
    {
      "anonymous": false,
      "inputs": [
        {
          "indexed": true,
          "internalType": "address",
          "name": "to",
          "type": "address"
        },
        {
          "indexed": false,
          "internalType": "uint256",
          "name": "amount",
          "type": "uint256"
        }
      ],
      "name": "TokensMinted",
      "type": "event"
    },
    {
      "anonymous": false,
      "inputs": [
        {
          "indexed": true,
          "internalType": "address",
          "name": "from",
          "type": "address"
        },
        {
          "indexed": true,
          "internalType": "address",
          "name": "to",
          "type": "address"
        },
        {
          "indexed": false,
          "internalType": "uint256",
          "name": "value",
          "type": "uint256"
        }
      ],
      "name": "Transfer",
      "type": "event"
    },
    {
      "inputs": [
        {
          "internalType": "address",
          "name": "owner",
          "type": "address"
        },
        {
          "internalType": "address",
          "name": "spender",
          "type": "address"
        }
      ],
      "name": "allowance",
      "outputs": [
        {
          "internalType": "uint256",
          "name": "",
          "type": "uint256"
        }
      ],
      "stateMutability": "view",
      "type": "function"
    },
    {
      "inputs": [
        {
          "internalType": "address",
          "name": "spender",
          "type": "address"
        },
        {
          "internalType": "uint256",
          "name": "value",
          "type": "uint256"
        }
      ],
      "name": "approve",
      "outputs": [
        {
          "internalType": "bool",
          "name": "",
          "type": "bool"
        }
      ],
      "stateMutability": "nonpayable",
      "type": "function"
    },
    {
      "inputs": [
        {
          "internalType": "address",
          "name": "account",
          "type": "address"
        }
      ],
      "name": "balanceOf",
      "outputs": [
        {
          "internalType": "uint256",
          "name": "",
          "type": "uint256"
        }
      ],
      "stateMutability": "view",
      "type": "function"
    },
    {
      "inputs": [
        {
          "internalType": "address[]",
          "name": "recipients",
          "type": "address[]"
        },
        {
          "internalType": "uint256[]",
          "name": "amounts",
          "type": "uint256[]"
        }
      ],
      "name": "batchMint",
      "outputs": [],
      "stateMutability": "nonpayable",
      "type": "function"
    },
    {
      "inputs": [
        {
          "internalType": "uint256",
          "name": "amount",
          "type": "uint256"
        }
      ],
      "name": "burn",
      "outputs": [],
      "stateMutability": "nonpayable",
      "type": "function"
    },
    {
      "inputs": [],
      "name": "decimals",
      "outputs": [
        {
          "internalType": "uint8",
          "name": "",
          "type": "uint8"
        }
      ],
      "stateMutability": "pure",
      "type": "function"
    },
    {
      "inputs": [
        {
          "internalType": "uint256",
          "name": "amount",
          "type": "uint256"
        }
      ],
      "name": "faucet",
      "outputs": [],
      "stateMutability": "nonpayable",
      "type": "function"
    },
    {
      "inputs": [],
      "name": "getLargeAmount",
      "outputs": [],
      "stateMutability": "nonpayable",
      "type": "function"
    },
    {
      "inputs": [],
      "name": "getTestTokens",
      "outputs": [],
      "stateMutability": "nonpayable",
      "type": "function"
    },
    {
      "inputs": [
        {
          "internalType": "address",
          "name": "to",
          "type": "address"
        },
        {
          "internalType": "uint256",
          "name": "amount",
          "type": "uint256"
        }
      ],
      "name": "mint",
      "outputs": [],
      "stateMutability": "nonpayable",
      "type": "function"
    },
    {
      "inputs": [
        {
          "internalType": "address",
          "name": "contractAddress",
          "type": "address"
        },
        {
          "internalType": "uint256",
          "name": "amount",
          "type": "uint256"
        }
      ],
      "name": "mintForContract",
      "outputs": [],
      "stateMutability": "nonpayable",
      "type": "function"
    },
    {
      "inputs": [],
      "name": "name",
      "outputs": [
        {
          "internalType": "string",
          "name": "",
          "type": "string"
        }
      ],
      "stateMutability": "view",
      "type": "function"
    },
    {
      "inputs": [],
      "name": "owner",
      "outputs": [
        {
          "internalType": "address",
          "name": "",
          "type": "address"
        }
      ],
      "stateMutability": "view",
      "type": "function"
    },
    {
      "inputs": [],
      "name": "renounceOwnership",
      "outputs": [],
      "stateMutability": "nonpayable",
      "type": "function"
    },
    {
      "inputs": [],
      "name": "symbol",
      "outputs": [
        {
          "internalType": "string",
          "name": "",
          "type": "string"
        }
      ],
      "stateMutability": "view",
      "type": "function"
    },
    {
      "inputs": [],
      "name": "totalSupply",
      "outputs": [
        {
          "internalType": "uint256",
          "name": "",
          "type": "uint256"
        }
      ],
      "stateMutability": "view",
      "type": "function"
    },
    {
      "inputs": [
        {
          "internalType": "address",
          "name": "to",
          "type": "address"
        },
        {
          "internalType": "uint256",
          "name": "value",
          "type": "uint256"
        }
      ],
      "name": "transfer",
      "outputs": [
        {
          "internalType": "bool",
          "name": "",
          "type": "bool"
        }
      ],
      "stateMutability": "nonpayable",
      "type": "function"
    },
    {
      "inputs": [
        {
          "internalType": "address",
          "name": "from",
          "type": "address"
        },
        {
          "internalType": "address",
          "name": "to",
          "type": "address"
        },
        {
          "internalType": "uint256",
          "name": "value",
          "type": "uint256"
        }
      ],
      "name": "transferFrom",
      "outputs": [
        {
          "internalType": "bool",
          "name": "",
          "type": "bool"
        }
      ],
      "stateMutability": "nonpayable",
      "type": "function"
    },
    {
      "inputs": [
        {
          "internalType": "address",
          "name": "newOwner",
          "type": "address"
        }
      ],
      "name": "transferOwnership",
      "outputs": [],
      "stateMutability": "nonpayable",
      "type": "function"
    }
  ],
  "bytecode": "0x60806040523480156200001157600080fd5b506040516200173538038062001735833981016040819052620000349162000321565b806040518060400160405280600d81526020016c26b7b1b5902aa9a21021b7b4b760991b815250604051806040016040528060048152602001635553444360e01b8152508160039081620000899190620003f8565b506004620000988282620003f8565b5050506001600160a01b038116620000cb57604051631e4fbdf760e01b8152600060048201526024015b60405180910390fd5b620000d6816200015e565b506001600160a01b0381166200012f5760405162461bcd60e51b815260206004820152601560248201527f496e76616c6964206f776e6572206164647265737300000000000000000000006044820152606401620000c2565b6200015781620001426006600a620005d9565b6200015190620f4240620005ea565b620001b0565b506200061a565b600580546001600160a01b038381166001600160a01b0319831681179093556040519116919082907f8be0079c531659141344cd1fd0a4f28419497f9722a3daafe3b4186f6b6457e090600090a35050565b6001600160a01b038216620001dc5760405163ec442f0560e01b815260006004820152602401620000c2565b620001ea60008383620001ee565b5050565b6001600160a01b0383166200021d57806002600082825462000211919062000604565b90915550620002919050565b6001600160a01b03831660009081526020819052604090205481811015620002725760405163391434e360e21b81526001600160a01b03851660048201526024810182905260448101839052606401620000c2565b6001600160a01b03841660009081526020819052604090209082900390555b6001600160a01b038216620002af57600280548290039055620002ce565b6001600160a01b03821660009081526020819052604090208054820190555b816001600160a01b0316836001600160a01b03167fddf252ad1be2c89b69c2b068fc378daa952ba7f163c4a11628f55a4df523b3ef836040516200031491815260200190565b60405180910390a3505050565b6000602082840312156200033457600080fd5b81516001600160a01b03811681146200034c57600080fd5b9392505050565b634e487b7160e01b600052604160045260246000fd5b600181811c908216806200037e57607f821691505b6020821081036200039f57634e487b7160e01b600052602260045260246000fd5b50919050565b601f821115620003f357600081815260208120601f850160051c81016020861015620003ce5750805b601f850160051c820191505b81811015620003ef57828155600101620003da565b5050505b505050565b81516001600160401b0381111562000414576200041462000353565b6200042c8162000425845462000369565b84620003a5565b602080601f8311600181146200046457600084156200044b5750858301515b600019600386901b1c1916600185901b178555620003ef565b600085815260208120601f198616915b82811015620004955788860151825594840194600190910190840162000474565b5085821015620004b45787850151600019600388901b60f8161c191681555b5050505050600190811b01905550565b634e487b7160e01b600052601160045260246000fd5b600181815b808511156200051b578160001904821115620004ff57620004ff620004c4565b808516156200050d57918102915b93841c9390800290620004df565b509250929050565b6000826200053457506001620005d3565b816200054357506000620005d3565b81600181146200055c5760028114620005675762000587565b6001915050620005d3565b60ff8411156200057b576200057b620004c4565b50506001821b620005d3565b5060208310610133831016604e8410600b8410161715620005ac575081810a620005d3565b620005b88383620004da565b8060001904821115620005cf57620005cf620004c4565b0290505b92915050565b60006200034c60ff84168362000523565b8082028115828204841417620005d357620005d3620004c4565b80820180821115620005d357620005d3620004c4565b61110b806200062a6000396000f3fe608060405234801561001057600080fd5b50600436106101215760003560e01c806370a08231116100ad578063c23b136f11610071578063c23b136f14610250578063cd748abb14610258578063d1300eb61461026b578063dd62ed3e14610273578063f2fde38b146102ac57600080fd5b806370a08231146101e9578063715018a6146102125780638da5cb5b1461021a57806395d89b4114610235578063a9059cbb1461023d57600080fd5b8063313ce567116100f4578063313ce5671461018c57806340c10f191461019b57806342966c68146101b057806357915897146101c357806368573107146101d657600080fd5b806306fdde0314610126578063095ea7b31461014457806318160ddd1461016757806323b872dd14610179575b600080fd5b61012e6102bf565b60405161013b9190610d0e565b60405180910390f35b610157610152366004610d78565b610351565b604051901515815260200161013b565b6002545b60405190815260200161013b565b610157610187366004610da2565b61036b565b6040516006815260200161013b565b6101ae6101a9366004610d78565b61038f565b005b6101ae6101be366004610dde565b610463565b6101ae6101d1366004610dde565b61051c565b6101ae6101e4366004610e43565b6105d2565b61016b6101f7366004610eaf565b6001600160a01b031660009081526020819052604090205490565b6101ae610823565b6005546040516001600160a01b03909116815260200161013b565b61012e610837565b61015761024b366004610d78565b610846565b6101ae610854565b6101ae610266366004610d78565b61087b565b6101ae6108d9565b61016b610281366004610ed1565b6001600160a01b03918216600090815260016020908152604080832093909416825291909152205490565b6101ae6102ba366004610eaf565b6108f3565b6060600380546102ce90610f04565b80601f01602080910402602001604051908101604052809291908181526020018280546102fa90610f04565b80156103475780601f1061031c57610100808354040283529160200191610347565b820191906000526020600020905b81548152906001019060200180831161032a57829003601f168201915b5050505050905090565b60003361035f818585610931565b60019150505b92915050565b600033610379858285610943565b6103848585856109c1565b506001949350505050565b610397610a20565b6001600160a01b0382166103f25760405162461bcd60e51b815260206004820152601b60248201527f43616e6e6f74206d696e7420746f207a65726f2061646472657373000000000060448201526064015b60405180910390fd5b600081116104125760405162461bcd60e51b81526004016103e990610f3e565b61041c8282610a4d565b816001600160a01b03167f3f2c9d57c068687834f0de942a9babb9e5acab57d516d3480a3c16ee165a42738260405161045791815260200190565b60405180910390a25050565b600081116104835760405162461bcd60e51b81526004016103e990610f3e565b336000908152602081905260409020548111156104d95760405162461bcd60e51b8152602060048201526014602482015273496e73756666696369656e742062616c616e636560601b60448201526064016103e9565b6104e33382610a87565b60405181815233907ffd38818f5291bf0bb3a2a48aadc06ba8757865d1dabd804585338aab3009dcb6906020015b60405180910390a250565b6000811161053c5760405162461bcd60e51b81526004016103e990610f3e565b6105486006600a61106d565b6105549061271061107c565b8111156105965760405162461bcd60e51b815260206004820152601060248201526f416d6f756e7420746f6f206c6172676560801b60448201526064016103e9565b6105a03382610a4d565b60405181815233907fc471df7d13ab46c73ec6eb2da0f35f84077f20d50243ba09a714b82cffc54de990602001610511565b6105da610a20565b8281146106225760405162461bcd60e51b8152602060048201526016602482015275082e4e4c2f2e640d8cadccee8d040dad2e6dac2e8c6d60531b60448201526064016103e9565b8261065e5760405162461bcd60e51b815260206004820152600c60248201526b456d7074792061727261797360a01b60448201526064016103e9565b60005b8381101561081c57600085858381811061067d5761067d611093565b90506020020160208101906106929190610eaf565b6001600160a01b0316036106e85760405162461bcd60e51b815260206004820152601960248201527f496e76616c696420726563697069656e7420616464726573730000000000000060448201526064016103e9565b60008383838181106106fc576106fc611093565b90506020020135116107415760405162461bcd60e51b815260206004820152600e60248201526d125b9d985b1a5908185b5bdd5b9d60921b60448201526064016103e9565b61078985858381811061075657610756611093565b905060200201602081019061076b9190610eaf565b84848481811061077d5761077d611093565b90506020020135610a4d565b84848281811061079b5761079b611093565b90506020020160208101906107b09190610eaf565b6001600160a01b03167f3f2c9d57c068687834f0de942a9babb9e5acab57d516d3480a3c16ee165a42738484848181106107ec576107ec611093565b9050602002013560405161080291815260200190565b60405180910390a280610814816110a9565b915050610661565b5050505050565b61082b610a20565b6108356000610abd565b565b6060600480546102ce90610f04565b60003361035f8185856109c1565b60006108626006600a61106d565b61086f90620186a061107c565b90506105a03382610a4d565b610883610a20565b6001600160a01b0382166103f25760405162461bcd60e51b815260206004820152601860248201527f496e76616c696420636f6e74726163742061646472657373000000000000000060448201526064016103e9565b60006108e76006600a61106d565b61086f906103e861107c565b6108fb610a20565b6001600160a01b03811661092557604051631e4fbdf760e01b8152600060048201526024016103e9565b61092e81610abd565b50565b61093e8383836001610b0f565b505050565b6001600160a01b0383811660009081526001602090815260408083209386168352929052205460001981146109bb57818110156109ac57604051637dc7a0d960e11b81526001600160a01b038416600482015260248101829052604481018390526064016103e9565b6109bb84848484036000610b0f565b50505050565b6001600160a01b0383166109eb57604051634b637e8f60e11b8152600060048201526024016103e9565b6001600160a01b038216610a155760405163ec442f0560e01b8152600060048201526024016103e9565b61093e838383610be4565b6005546001600160a01b031633146108355760405163118cdaa760e01b81523360048201526024016103e9565b6001600160a01b038216610a775760405163ec442f0560e01b8152600060048201526024016103e9565b610a8360008383610be4565b5050565b6001600160a01b038216610ab157604051634b637e8f60e11b8152600060048201526024016103e9565b610a8382600083610be4565b600580546001600160a01b038381166001600160a01b0319831681179093556040519116919082907f8be0079c531659141344cd1fd0a4f28419497f9722a3daafe3b4186f6b6457e090600090a35050565b6001600160a01b038416610b395760405163e602df0560e01b8152600060048201526024016103e9565b6001600160a01b038316610b6357604051634a1406b160e11b8152600060048201526024016103e9565b6001600160a01b03808516600090815260016020908152604080832093871683529290522082905580156109bb57826001600160a01b0316846001600160a01b03167f8c5be1e5ebec7d5bd14f71427d1e84f3dd0314c0f7b2291e5b200ac8c7c3b92584604051610bd691815260200190565b60405180910390a350505050565b6001600160a01b038316610c0f578060026000828254610c0491906110c2565b90915550610c819050565b6001600160a01b03831660009081526020819052604090205481811015610c625760405163391434e360e21b81526001600160a01b038516600482015260248101829052604481018390526064016103e9565b6001600160a01b03841660009081526020819052604090209082900390555b6001600160a01b038216610c9d57600280548290039055610cbc565b6001600160a01b03821660009081526020819052604090208054820190555b816001600160a01b0316836001600160a01b03167fddf252ad1be2c89b69c2b068fc378daa952ba7f163c4a11628f55a4df523b3ef83604051610d0191815260200190565b60405180910390a3505050565b600060208083528351808285015260005b81811015610d3b57858101830151858201604001528201610d1f565b506000604082860101526040601f19601f8301168501019250505092915050565b80356001600160a01b0381168114610d7357600080fd5b919050565b60008060408385031215610d8b57600080fd5b610d9483610d5c565b946020939093013593505050565b600080600060608486031215610db757600080fd5b610dc084610d5c565b9250610dce60208501610d5c565b9150604084013590509250925092565b600060208284031215610df057600080fd5b5035919050565b60008083601f840112610e0957600080fd5b50813567ffffffffffffffff811115610e2157600080fd5b6020830191508360208260051b8501011115610e3c57600080fd5b9250929050565b60008060008060408587031215610e5957600080fd5b843567ffffffffffffffff80821115610e7157600080fd5b610e7d88838901610df7565b90965094506020870135915080821115610e9657600080fd5b50610ea387828801610df7565b95989497509550505050565b600060208284031215610ec157600080fd5b610eca82610d5c565b9392505050565b60008060408385031215610ee457600080fd5b610eed83610d5c565b9150610efb60208401610d5c565b90509250929050565b600181811c90821680610f1857607f821691505b602082108103610f3857634e487b7160e01b600052602260045260246000fd5b50919050565b6020808252818101527f416d6f756e74206d7573742062652067726561746572207468616e207a65726f604082015260600190565b634e487b7160e01b600052601160045260246000fd5b600181815b80851115610fc4578160001904821115610faa57610faa610f73565b80851615610fb757918102915b93841c9390800290610f8e565b509250929050565b600082610fdb57506001610365565b81610fe857506000610365565b8160018114610ffe576002811461100857611024565b6001915050610365565b60ff84111561101957611019610f73565b50506001821b610365565b5060208310610133831016604e8410600b8410161715611047575081810a610365565b6110518383610f89565b806000190482111561106557611065610f73565b029392505050565b6000610eca60ff841683610fcc565b808202811582820484141761036557610365610f73565b634e487b7160e01b600052603260045260246000fd5b6000600182016110bb576110bb610f73565b5060010190565b8082018082111561036557610365610f7356fea2646970667358221220853ed0b383aa6c7ba24910bd2b504b47f5a59b59cc1ef62718f941bf8df64e2e64736f6c63430008140033",
  "linkReferences": {},
  "deployedLinkReferences": {}
}