{
  "_format": "hh-sol-artifact-1",
  "contractName": "UniswapIntegration",
  "sourceName": "contracts/UniswapIntegration.sol",
  "abi": [
    {
      "inputs": [
        {
          "internalType": "address",
          "name": "_initialOwner",
          "type": "address"
        },
        {
          "internalType": "address",
          "name": "_priceOracle",
          "type": "address"
        }
      ],
      "stateMutability": "nonpayable",
      "type": "constructor"
    },
    {
      "inputs": [
        {
          "internalType": "address",
          "name": "target",
          "type": "address"
        }
      ],
      "name": "AddressEmptyCode",
      "type": "error"
    },
    {
      "inputs": [
        {
          "internalType": "address",
          "name": "account",
          "type": "address"
        }
      ],
      "name": "AddressInsufficientBalance",
      "type": "error"
    },
    {
      "inputs": [],
      "name": "FailedInnerCall",
      "type": "error"
    },
    {
      "inputs": [
        {
          "internalType": "address",
          "name": "owner",
          "type": "address"
        }
      ],
      "name": "OwnableInvalidOwner",
      "type": "error"
    },
    {
      "inputs": [
        {
          "internalType": "address",
          "name": "account",
          "type": "address"
        }
      ],
      "name": "OwnableUnauthorizedAccount",
      "type": "error"
    },
    {
      "inputs": [],
      "name": "ReentrancyGuardReentrantCall",
      "type": "error"
    },
    {
      "inputs": [
        {
          "internalType": "address",
          "name": "token",
          "type": "address"
        }
      ],
      "name": "SafeERC20FailedOperation",
      "type": "error"
    },
    {
      "anonymous": false,
      "inputs": [
        {
          "indexed": true,
          "internalType": "address",
          "name": "previousOwner",
          "type": "address"
        },
        {
          "indexed": true,
          "internalType": "address",
          "name": "newOwner",
          "type": "address"
        }
      ],
      "name": "OwnershipTransferred",
      "type": "event"
    },
    {
      "anonymous": false,
      "inputs": [
        {
          "indexed": true,
          "internalType": "address",
          "name": "oldOracle",
          "type": "address"
        },
        {
          "indexed": true,
          "internalType": "address",
          "name": "newOracle",
          "type": "address"
        }
      ],
      "name": "PriceOracleUpdated",
      "type": "event"
    },
    {
      "anonymous": false,
      "inputs": [
        {
          "indexed": true,
          "internalType": "address",
          "name": "tokenIn",
          "type": "address"
        },
        {
          "indexed": true,
          "internalType": "address",
          "name": "tokenOut",
          "type": "address"
        },
        {
          "indexed": false,
          "internalType": "uint256",
          "name": "rate",
          "type": "uint256"
        },
        {
          "indexed": false,
          "internalType": "uint256",
          "name": "timestamp",
          "type": "uint256"
        }
      ],
      "name": "RateUpdated",
      "type": "event"
    },
    {
      "anonymous": false,
      "inputs": [
        {
          "indexed": false,
          "internalType": "uint256",
          "name": "oldTolerance",
          "type": "uint256"
        },
        {
          "indexed": false,
          "internalType": "uint256",
          "name": "newTolerance",
          "type": "uint256"
        }
      ],
      "name": "SlippageToleranceUpdated",
      "type": "event"
    },
    {
      "anonymous": false,
      "inputs": [
        {
          "indexed": true,
          "internalType": "address",
          "name": "tokenIn",
          "type": "address"
        },
        {
          "indexed": true,
          "internalType": "address",
          "name": "tokenOut",
          "type": "address"
        },
        {
          "indexed": false,
          "internalType": "uint256",
          "name": "amountIn",
          "type": "uint256"
        },
        {
          "indexed": false,
          "internalType": "uint256",
          "name": "amountOut",
          "type": "uint256"
        },
        {
          "indexed": true,
          "internalType": "address",
          "name": "recipient",
          "type": "address"
        },
        {
          "indexed": false,
          "internalType": "uint256",
          "name": "rate",
          "type": "uint256"
        }
      ],
      "name": "TokenSwapped",
      "type": "event"
    },
    {
      "inputs": [],
      "name": "CACHE_DURATION",
      "outputs": [
        {
          "internalType": "uint256",
          "name": "",
          "type": "uint256"
        }
      ],
      "stateMutability": "view",
      "type": "function"
    },
    {
      "inputs": [
        {
          "internalType": "address",
          "name": "_token",
          "type": "address"
        },
        {
          "internalType": "address",
          "name": "_recipient",
          "type": "address"
        },
        {
          "internalType": "uint256",
          "name": "_amount",
          "type": "uint256"
        }
      ],
      "name": "_callMint",
      "outputs": [],
      "stateMutability": "nonpayable",
      "type": "function"
    },
    {
      "inputs": [
        {
          "internalType": "address",
          "name": "_tokenIn",
          "type": "address"
        },
        {
          "internalType": "address[]",
          "name": "_tokensOut",
          "type": "address[]"
        },
        {
          "internalType": "uint256[]",
          "name": "_amountsIn",
          "type": "uint256[]"
        },
        {
          "internalType": "address",
          "name": "_recipient",
          "type": "address"
        },
        {
          "internalType": "uint24[]",
          "name": "_fees",
          "type": "uint24[]"
        }
      ],
      "name": "batchSwap",
      "outputs": [
        {
          "internalType": "uint256[]",
          "name": "amountsOut",
          "type": "uint256[]"
        }
      ],
      "stateMutability": "nonpayable",
      "type": "function"
    },
    {
      "inputs": [
        {
          "internalType": "address[]",
          "name": "_tokensIn",
          "type": "address[]"
        },
        {
          "internalType": "address[]",
          "name": "_tokensOut",
          "type": "address[]"
        }
      ],
      "name": "batchUpdateCachedRates",
      "outputs": [],
      "stateMutability": "nonpayable",
      "type": "function"
    },
    {
      "inputs": [
        {
          "internalType": "address",
          "name": "",
          "type": "address"
        },
        {
          "internalType": "address",
          "name": "",
          "type": "address"
        }
      ],
      "name": "cachedRates",
      "outputs": [
        {
          "internalType": "uint256",
          "name": "",
          "type": "uint256"
        }
      ],
      "stateMutability": "view",
      "type": "function"
    },
    {
      "inputs": [
        {
          "internalType": "address",
          "name": "_tokenIn",
          "type": "address"
        },
        {
          "internalType": "address",
          "name": "_tokenOut",
          "type": "address"
        }
      ],
      "name": "calculateRealExchangeRate",
      "outputs": [
        {
          "internalType": "uint256",
          "name": "rate",
          "type": "uint256"
        }
      ],
      "stateMutability": "view",
      "type": "function"
    },
    {
      "inputs": [
        {
          "internalType": "address",
          "name": "_tokenIn",
          "type": "address"
        },
        {
          "internalType": "address",
          "name": "_tokenOut",
          "type": "address"
        }
      ],
      "name": "clearCache",
      "outputs": [],
      "stateMutability": "nonpayable",
      "type": "function"
    },
    {
      "inputs": [
        {
          "internalType": "address",
          "name": "_token",
          "type": "address"
        },
        {
          "internalType": "uint256",
          "name": "_amount",
          "type": "uint256"
        }
      ],
      "name": "emergencyWithdraw",
      "outputs": [],
      "stateMutability": "nonpayable",
      "type": "function"
    },
    {
      "inputs": [
        {
          "internalType": "address",
          "name": "_tokenIn",
          "type": "address"
        },
        {
          "internalType": "address",
          "name": "_tokenOut",
          "type": "address"
        }
      ],
      "name": "getCacheInfo",
      "outputs": [
        {
          "internalType": "uint256",
          "name": "cachedRate",
          "type": "uint256"
        },
        {
          "internalType": "uint256",
          "name": "timestamp",
          "type": "uint256"
        },
        {
          "internalType": "bool",
          "name": "isStale",
          "type": "bool"
        }
      ],
      "stateMutability": "view",
      "type": "function"
    },
    {
      "inputs": [
        {
          "internalType": "address",
          "name": "_tokenIn",
          "type": "address"
        },
        {
          "internalType": "address",
          "name": "_tokenOut",
          "type": "address"
        }
      ],
      "name": "getExchangeRate",
      "outputs": [
        {
          "internalType": "uint256",
          "name": "rate",
          "type": "uint256"
        }
      ],
      "stateMutability": "view",
      "type": "function"
    },
    {
      "inputs": [
        {
          "internalType": "address",
          "name": "_tokenIn",
          "type": "address"
        },
        {
          "internalType": "address",
          "name": "_tokenOut",
          "type": "address"
        },
        {
          "internalType": "uint256",
          "name": "_amountIn",
          "type": "uint256"
        },
        {
          "internalType": "uint24",
          "name": "",
          "type": "uint24"
        }
      ],
      "name": "getQuote",
      "outputs": [
        {
          "internalType": "uint256",
          "name": "amountOut",
          "type": "uint256"
        }
      ],
      "stateMutability": "view",
      "type": "function"
    },
    {
      "inputs": [],
      "name": "owner",
      "outputs": [
        {
          "internalType": "address",
          "name": "",
          "type": "address"
        }
      ],
      "stateMutability": "view",
      "type": "function"
    },
    {
      "inputs": [],
      "name": "priceOracle",
      "outputs": [
        {
          "internalType": "contract ChainlinkPriceOracle",
          "name": "",
          "type": "address"
        }
      ],
      "stateMutability": "view",
      "type": "function"
    },
    {
      "inputs": [
        {
          "internalType": "address",
          "name": "",
          "type": "address"
        },
        {
          "internalType": "address",
          "name": "",
          "type": "address"
        }
      ],
      "name": "rateTimestamps",
      "outputs": [
        {
          "internalType": "uint256",
          "name": "",
          "type": "uint256"
        }
      ],
      "stateMutability": "view",
      "type": "function"
    },
    {
      "inputs": [],
      "name": "renounceOwnership",
      "outputs": [],
      "stateMutability": "nonpayable",
      "type": "function"
    },
    {
      "inputs": [
        {
          "internalType": "address",
          "name": "_priceOracle",
          "type": "address"
        }
      ],
      "name": "setPriceOracle",
      "outputs": [],
      "stateMutability": "nonpayable",
      "type": "function"
    },
    {
      "inputs": [
        {
          "internalType": "uint256",
          "name": "_slippageTolerance",
          "type": "uint256"
        }
      ],
      "name": "setSlippageTolerance",
      "outputs": [],
      "stateMutability": "nonpayable",
      "type": "function"
    },
    {
      "inputs": [],
      "name": "slippageTolerance",
      "outputs": [
        {
          "internalType": "uint256",
          "name": "",
          "type": "uint256"
        }
      ],
      "stateMutability": "view",
      "type": "function"
    },
    {
      "inputs": [
        {
          "internalType": "address",
          "name": "_tokenIn",
          "type": "address"
        },
        {
          "internalType": "address",
          "name": "_tokenOut",
          "type": "address"
        },
        {
          "internalType": "uint256",
          "name": "_amountIn",
          "type": "uint256"
        },
        {
          "internalType": "address",
          "name": "_recipient",
          "type": "address"
        },
        {
          "internalType": "uint24",
          "name": "",
          "type": "uint24"
        }
      ],
      "name": "swapExactInputSingle",
      "outputs": [
        {
          "internalType": "uint256",
          "name": "amountOut",
          "type": "uint256"
        }
      ],
      "stateMutability": "nonpayable",
      "type": "function"
    },
    {
      "inputs": [
        {
          "internalType": "address",
          "name": "newOwner",
          "type": "address"
        }
      ],
      "name": "transferOwnership",
      "outputs": [],
      "stateMutability": "nonpayable",
      "type": "function"
    },
    {
      "inputs": [
        {
          "internalType": "address",
          "name": "_tokenIn",
          "type": "address"
        },
        {
          "internalType": "address",
          "name": "_tokenOut",
          "type": "address"
        }
      ],
      "name": "updateCachedRate",
      "outputs": [],
      "stateMutability": "nonpayable",
      "type": "function"
    }
  ],
  "bytecode": "0x608060405260646005553480156200001657600080fd5b5060405162001d2e38038062001d2e833981016040819052620000399162000166565b816001600160a01b0381166200006a57604051631e4fbdf760e01b8152600060048201526024015b60405180910390fd5b6200007581620000f9565b50600180556001600160a01b038116620000d25760405162461bcd60e51b815260206004820152601c60248201527f496e76616c6964207072696365206f7261636c65206164647265737300000000604482015260640162000061565b600280546001600160a01b0319166001600160a01b0392909216919091179055506200019e565b600080546001600160a01b038381166001600160a01b0319831681178455604051919092169283917f8be0079c531659141344cd1fd0a4f28419497f9722a3daafe3b4186f6b6457e09190a35050565b80516001600160a01b03811681146200016157600080fd5b919050565b600080604083850312156200017a57600080fd5b620001858362000149565b9150620001956020840162000149565b90509250929050565b611b8080620001ae6000396000f3fe608060405234801561001057600080fd5b50600436106101375760003560e01c8063a917902a116100b8578063c26c934f1161007c578063c26c934f146102bb578063c2dcb6e4146102e6578063d03153aa146102ef578063f2fde38b146102f8578063f32416e31461030b578063ffa8f5591461031e57600080fd5b8063a917902a1461023f578063b1c2676414610252578063b367277114610265578063b5cd890614610278578063baaa61be146102a857600080fd5b8063715018a6116100ff578063715018a6146101ed578063882f3da2146101f55780638da5cb5b146102085780638ebb36c71461021957806395ccea671461022c57600080fd5b8063117da1ee1461013c5780632630c12f14610151578063530e784f1461018157806359075cca1461019457806359ebfd18146101cd575b600080fd5b61014f61014a366004611671565b610331565b005b600254610164906001600160a01b031681565b6040516001600160a01b0390911681526020015b60405180910390f35b61014f61018f3660046116a6565b6103d5565b6101bf6101a23660046116c1565b600360209081526000928352604080842090915290825290205481565b604051908152602001610178565b6101e06101db366004611740565b610485565b60405161017891906117fe565b61014f6108bf565b61014f610203366004611842565b6108d3565b6000546001600160a01b0316610164565b6101bf610227366004611891565b610a00565b61014f61023a3660046118ef565b610ba6565b6101bf61024d366004611919565b610bd8565b61014f610260366004611966565b610c08565b6101bf6102733660046116c1565b610d29565b61028b6102863660046116c1565b611086565b604080519384526020840192909252151590820152606001610178565b6101bf6102b63660046116c1565b6110dd565b6101bf6102c93660046116c1565b600460209081526000928352604080842090915290825290205481565b6101bf61012c81565b6101bf60055481565b61014f6103063660046116a6565b61114a565b61014f6103193660046116c1565b611188565b61014f61032c3660046116c1565b611217565b610339611261565b6103e88111156103905760405162461bcd60e51b815260206004820152601b60248201527f536c69707061676520746f6c6572616e636520746f6f2068696768000000000060448201526064015b60405180910390fd5b600580549082905560408051828152602081018490527fddd31550b26e9ef8ade466958be83ff8a014d9b4f36d546b61a6847a45306575910160405180910390a15050565b6103dd611261565b6001600160a01b0381166104335760405162461bcd60e51b815260206004820152601c60248201527f496e76616c6964207072696365206f7261636c652061646472657373000000006044820152606401610387565b600280546001600160a01b038381166001600160a01b0319831681179093556040519116919082907f56b5f80d8cac1479698aa7d01605fd6111e90b15fc4d2b377417f46034876cbd90600090a35050565b606061048f61128e565b8685146104d75760405162461bcd60e51b8152602060048201526016602482015275082e4e4c2f2e640d8cadccee8d040dad2e6dac2e8c6d60531b6044820152606401610387565b8682146105265760405162461bcd60e51b815260206004820152601a60248201527f46656573206172726179206c656e677468206d69736d617463680000000000006044820152606401610387565b6001600160a01b0384166105705760405162461bcd60e51b8152602060048201526011602482015270125b9d985b1a59081c9958da5c1a595b9d607a1b6044820152606401610387565b868067ffffffffffffffff81111561058a5761058a6119d2565b6040519080825280602002602001820160405280156105b3578160200160208202803683370190505b5091506000805b828110156105fa578888828181106105d4576105d46119e8565b90506020020135826105e69190611a14565b9150806105f281611a27565b9150506105ba565b506106106001600160a01b038c163330846112b8565b60005b828110156108a757600089898381811061062f5761062f6119e8565b9050602002013511156108955760006106698d8d8d85818110610654576106546119e8565b90506020020160208101906102b691906116a6565b9050612710818b8b85818110610681576106816119e8565b905060200201356106929190611a40565b61069c9190611a57565b8583815181106106ae576106ae6119e8565b6020026020010181815250506107048c8c848181106106cf576106cf6119e8565b90506020020160208101906106e491906116a6565b898785815181106106f7576106f76119e8565b602002602001015161131f565b6001600160a01b038d16600090815260036020526040812082918e8e86818110610730576107306119e8565b905060200201602081019061074591906116a6565b6001600160a01b03166001600160a01b031681526020019081526020016000208190555042600460008f6001600160a01b03166001600160a01b0316815260200190815260200160002060008e8e868181106107a3576107a36119e8565b90506020020160208101906107b891906116a6565b6001600160a01b03166001600160a01b0316815260200190815260200160002081905550876001600160a01b03168c8c848181106107f8576107f86119e8565b905060200201602081019061080d91906116a6565b6001600160a01b03168e6001600160a01b03167f90da32b3e9098f634db67d4adf029f1297dcb7f283d2d7abd9c175172dd2bd508d8d87818110610853576108536119e8565b9050602002013589878151811061086c5761086c6119e8565b6020908102919091018101516040805193845291830152810186905260600160405180910390a4505b8061089f81611a27565b915050610613565b5050506108b360018055565b98975050505050505050565b6108c7611261565b6108d16000611460565b565b33301461091b5760405162461bcd60e51b815260206004820152601660248201527513db9b1e481cd95b198818d85b1b08185b1b1bddd95960521b6044820152606401610387565b6040516001600160a01b038381166024830152604482018390526000919085169060640160408051601f198184030181529181526020820180516001600160e01b03166340c10f1960e01b179052516109749190611a79565b6000604051808303816000865af19150503d80600081146109b1576040519150601f19603f3d011682016040523d82523d6000602084013e6109b6565b606091505b50509050806109fa5760405162461bcd60e51b815260206004820152601060248201526f135a5b9d0818d85b1b0819985a5b195960821b6044820152606401610387565b50505050565b6000610a0a61128e565b60008411610a515760405162461bcd60e51b8152602060048201526014602482015273125b9d985b1a59081a5b9c1d5d08185b5bdd5b9d60621b6044820152606401610387565b6001600160a01b038316610a9b5760405162461bcd60e51b8152602060048201526011602482015270125b9d985b1a59081c9958da5c1a595b9d607a1b6044820152606401610387565b6000610aa787876110dd565b9050612710610ab68287611a40565b610ac09190611a57565b91506000612710600554612710610ad79190611aa8565b610ae19085611a40565b610aeb9190611a57565b9050610b026001600160a01b0389163330896112b8565b610b0d87868561131f565b6001600160a01b0388811660008181526003602090815260408083208c86168085529083528184208890558484526004835281842081855283529281902042905580518b81529182018890528101869052928816929091907f90da32b3e9098f634db67d4adf029f1297dcb7f283d2d7abd9c175172dd2bd509060600160405180910390a45050610b9d60018055565b95945050505050565b610bae611261565b610bd4610bc36000546001600160a01b031690565b6001600160a01b03841690836114b0565b5050565b600080610be586866110dd565b9050612710610bf48286611a40565b610bfe9190611a57565b9695505050505050565b828114610c505760405162461bcd60e51b8152602060048201526016602482015275082e4e4c2f2e640d8cadccee8d040dad2e6dac2e8c6d60531b6044820152606401610387565b60005b83811015610d22573063f32416e3868684818110610c7357610c736119e8565b9050602002016020810190610c8891906116a6565b858585818110610c9a57610c9a6119e8565b9050602002016020810190610caf91906116a6565b6040516001600160e01b031960e085901b1681526001600160a01b03928316600482015291166024820152604401600060405180830381600087803b158015610cf757600080fd5b505af1158015610d0b573d6000803e3d6000fd5b505050508080610d1a90611a27565b915050610c53565b5050505050565b60006001600160a01b038316610d815760405162461bcd60e51b815260206004820152601860248201527f496e76616c696420746f6b656e20696e206164647265737300000000000000006044820152606401610387565b6001600160a01b038216610dd75760405162461bcd60e51b815260206004820152601960248201527f496e76616c696420746f6b656e206f75742061646472657373000000000000006044820152606401610387565b816001600160a01b0316836001600160a01b031603610e385760405162461bcd60e51b815260206004820152601860248201527f546f6b656e73206d75737420626520646966666572656e7400000000000000006044820152606401610387565b6002546040516302c68be360e31b81526001600160a01b038581166004830152909116906316345f18906024016040805180830381865afa925050508015610e9d575060408051601f3d908101601f19168201909252610e9a91810190611abb565b60015b610efa5760405162461bcd60e51b815260206004820152602860248201527f4661696c656420746f2067657420746f6b656e20696e2070726963652066726f6044820152676d206f7261636c6560c01b6064820152608401610387565b6002546040516302c68be360e31b81526001600160a01b038681166004830152909116906316345f18906024016040805180830381865afa925050508015610f5f575060408051601f3d908101601f19168201909252610f5c91810190611abb565b60015b610fbd5760405162461bcd60e51b815260206004820152602960248201527f4661696c656420746f2067657420746f6b656e206f75742070726963652066726044820152686f6d206f7261636c6560b81b6064820152608401610387565b600084138015610fcd5750600082135b6110195760405162461bcd60e51b815260206004820152601a60248201527f496e76616c6964207072696365732066726f6d206f7261636c650000000000006044820152606401610387565b8161102685612710611adf565b6110309190611a57565b94506000851161107a5760405162461bcd60e51b8152602060048201526015602482015274496e76616c69642065786368616e6765207261746560581b6044820152606401610387565b50505b50505b92915050565b6001600160a01b038083166000818152600360209081526040808320948616808452948252808320549383526004825280832094835293905291822054909161012c6110d28342611aa8565b101590509250925092565b6001600160a01b0380831660008181526003602090815260408083209486168084529482528083205493835260048252808320948352939052918220548115801590611133575061012c6111318242611aa8565b105b156111405781925061107d565b610b9d8585610d29565b611152611261565b6001600160a01b03811661117c57604051631e4fbdf760e01b815260006004820152602401610387565b61118581611460565b50565b60006111948383610d29565b6001600160a01b038481166000818152600360209081526040808320948816808452948252808320869055838352600482528083208584528252918290204290819055825186815291820152939450919290917f76e9810987b8a11627e7f7e00549bb04745ec4cc0fae8e97af32c66ab78bc40a910160405180910390a3505050565b61121f611261565b6001600160a01b039182166000818152600360209081526040808320949095168083529381528482208290559181526004825283812092815291905290812055565b6000546001600160a01b031633146108d15760405163118cdaa760e01b8152336004820152602401610387565b6002600154036112b157604051633ee5aeb560e01b815260040160405180910390fd5b6002600155565b6040516001600160a01b0384811660248301528381166044830152606482018390526109fa9186918216906323b872dd906084015b604051602081830303815290604052915060e01b6020820180516001600160e01b0383818316178352505050506114e6565b6040516370a0823160e01b81523060048201526000906001600160a01b038516906370a0823190602401602060405180830381865afa158015611366573d6000803e3d6000fd5b505050506040513d601f19601f8201168201806040525081019061138a9190611b0f565b90508181106113a7576109fa6001600160a01b03851684846114b0565b6040516344179ed160e11b81526001600160a01b0380861660048301528416602482015260448101839052309063882f3da290606401600060405180830381600087803b1580156113f757600080fd5b505af1925050508015611408575060015b6109fa5760405162461bcd60e51b815260206004820152602360248201527f496e73756666696369656e7420746f6b656e2062616c616e636520666f72207360448201526207761760ec1b6064820152608401610387565b600080546001600160a01b038381166001600160a01b0319831681178455604051919092169283917f8be0079c531659141344cd1fd0a4f28419497f9722a3daafe3b4186f6b6457e09190a35050565b6040516001600160a01b038381166024830152604482018390526114e191859182169063a9059cbb906064016112ed565b505050565b60006114fb6001600160a01b03841683611549565b9050805160001415801561152057508080602001905181019061151e9190611b28565b155b156114e157604051635274afe760e01b81526001600160a01b0384166004820152602401610387565b60606115578383600061155e565b9392505050565b6060814710156115835760405163cd78605960e01b8152306004820152602401610387565b600080856001600160a01b0316848660405161159f9190611a79565b60006040518083038185875af1925050503d80600081146115dc576040519150601f19603f3d011682016040523d82523d6000602084013e6115e1565b606091505b5091509150610bfe868383606082611601576115fc82611648565b611557565b815115801561161857506001600160a01b0384163b155b1561164157604051639996b31560e01b81526001600160a01b0385166004820152602401610387565b5080611557565b8051156116585780518082602001fd5b604051630a12f52160e11b815260040160405180910390fd5b60006020828403121561168357600080fd5b5035919050565b80356001600160a01b03811681146116a157600080fd5b919050565b6000602082840312156116b857600080fd5b6115578261168a565b600080604083850312156116d457600080fd5b6116dd8361168a565b91506116eb6020840161168a565b90509250929050565b60008083601f84011261170657600080fd5b50813567ffffffffffffffff81111561171e57600080fd5b6020830191508360208260051b850101111561173957600080fd5b9250929050565b60008060008060008060008060a0898b03121561175c57600080fd5b6117658961168a565b9750602089013567ffffffffffffffff8082111561178257600080fd5b61178e8c838d016116f4565b909950975060408b01359150808211156117a757600080fd5b6117b38c838d016116f4565b90975095508591506117c760608c0161168a565b945060808b01359150808211156117dd57600080fd5b506117ea8b828c016116f4565b999c989b5096995094979396929594505050565b6020808252825182820181905260009190848201906040850190845b818110156118365783518352928401929184019160010161181a565b50909695505050505050565b60008060006060848603121561185757600080fd5b6118608461168a565b925061186e6020850161168a565b9150604084013590509250925092565b803562ffffff811681146116a157600080fd5b600080600080600060a086880312156118a957600080fd5b6118b28661168a565b94506118c06020870161168a565b9350604086013592506118d56060870161168a565b91506118e36080870161187e565b90509295509295909350565b6000806040838503121561190257600080fd5b61190b8361168a565b946020939093013593505050565b6000806000806080858703121561192f57600080fd5b6119388561168a565b93506119466020860161168a565b92506040850135915061195b6060860161187e565b905092959194509250565b6000806000806040858703121561197c57600080fd5b843567ffffffffffffffff8082111561199457600080fd5b6119a0888389016116f4565b909650945060208701359150808211156119b957600080fd5b506119c6878288016116f4565b95989497509550505050565b634e487b7160e01b600052604160045260246000fd5b634e487b7160e01b600052603260045260246000fd5b634e487b7160e01b600052601160045260246000fd5b80820180821115611080576110806119fe565b600060018201611a3957611a396119fe565b5060010190565b8082028115828204841417611080576110806119fe565b600082611a7457634e487b7160e01b600052601260045260246000fd5b500490565b6000825160005b81811015611a9a5760208186018101518583015201611a80565b506000920191825250919050565b81810381811115611080576110806119fe565b60008060408385031215611ace57600080fd5b505080516020909101519092909150565b80820260008212600160ff1b84141615611afb57611afb6119fe565b8181058314821517611080576110806119fe565b600060208284031215611b2157600080fd5b5051919050565b600060208284031215611b3a57600080fd5b8151801515811461155757600080fdfea264697066735822122038a404ee12e5879c9cffaaddd36f122305aa0a2c71c54fd3bd08147946e9197c64736f6c63430008140033",
  "linkReferences": {},
  "deployedLinkReferences": {}
}