{
  "_format": "hh-sol-artifact-1",
  "contractName": "ChainlinkPriceOracle",
  "sourceName": "contracts/ChainlinkPriceOracle.sol",
  "abi": [
    {
      "inputs": [
        {
          "internalType": "address",
          "name": "_initialOwner",
          "type": "address"
        }
      ],
      "stateMutability": "nonpayable",
      "type": "constructor"
    },
    {
      "inputs": [
        {
          "internalType": "address",
          "name": "owner",
          "type": "address"
        }
      ],
      "name": "OwnableInvalidOwner",
      "type": "error"
    },
    {
      "inputs": [
        {
          "internalType": "address",
          "name": "account",
          "type": "address"
        }
      ],
      "name": "OwnableUnauthorizedAccount",
      "type": "error"
    },
    {
      "anonymous": false,
      "inputs": [
        {
          "indexed": true,
          "internalType": "address",
          "name": "previousOwner",
          "type": "address"
        },
        {
          "indexed": true,
          "internalType": "address",
          "name": "newOwner",
          "type": "address"
        }
      ],
      "name": "OwnershipTransferred",
      "type": "event"
    },
    {
      "anonymous": false,
      "inputs": [
        {
          "indexed": true,
          "internalType": "address",
          "name": "token",
          "type": "address"
        },
        {
          "indexed": true,
          "internalType": "address",
          "name": "priceFeed",
          "type": "address"
        },
        {
          "indexed": false,
          "internalType": "string",
          "name": "symbol",
          "type": "string"
        }
      ],
      "name": "PriceFeedSet",
      "type": "event"
    },
    {
      "anonymous": false,
      "inputs": [
        {
          "indexed": true,
          "internalType": "address",
          "name": "token",
          "type": "address"
        },
        {
          "indexed": false,
          "internalType": "int256",
          "name": "price",
          "type": "int256"
        },
        {
          "indexed": false,
          "internalType": "uint256",
          "name": "timestamp",
          "type": "uint256"
        }
      ],
      "name": "PriceUpdated",
      "type": "event"
    },
    {
      "inputs": [
        {
          "internalType": "address[]",
          "name": "_tokens",
          "type": "address[]"
        },
        {
          "internalType": "address[]",
          "name": "_priceFeeds",
          "type": "address[]"
        },
        {
          "internalType": "string[]",
          "name": "_symbols",
          "type": "string[]"
        }
      ],
      "name": "batchSetPriceFeeds",
      "outputs": [],
      "stateMutability": "nonpayable",
      "type": "function"
    },
    {
      "inputs": [
        {
          "internalType": "address",
          "name": "_token",
          "type": "address"
        }
      ],
      "name": "getLatestPrice",
      "outputs": [
        {
          "internalType": "int256",
          "name": "price",
          "type": "int256"
        },
        {
          "internalType": "uint256",
          "name": "timestamp",
          "type": "uint256"
        }
      ],
      "stateMutability": "view",
      "type": "function"
    },
    {
      "inputs": [
        {
          "internalType": "string",
          "name": "_symbol",
          "type": "string"
        }
      ],
      "name": "getLatestPriceBySymbol",
      "outputs": [
        {
          "internalType": "int256",
          "name": "price",
          "type": "int256"
        },
        {
          "internalType": "uint256",
          "name": "timestamp",
          "type": "uint256"
        }
      ],
      "stateMutability": "view",
      "type": "function"
    },
    {
      "inputs": [
        {
          "internalType": "address[]",
          "name": "_tokens",
          "type": "address[]"
        }
      ],
      "name": "getMultiplePrices",
      "outputs": [
        {
          "internalType": "int256[]",
          "name": "prices",
          "type": "int256[]"
        },
        {
          "internalType": "uint256[]",
          "name": "timestamps",
          "type": "uint256[]"
        }
      ],
      "stateMutability": "view",
      "type": "function"
    },
    {
      "inputs": [
        {
          "internalType": "address",
          "name": "_token",
          "type": "address"
        }
      ],
      "name": "getPriceFeedInfo",
      "outputs": [
        {
          "internalType": "address",
          "name": "priceFeed",
          "type": "address"
        },
        {
          "internalType": "uint8",
          "name": "decimals",
          "type": "uint8"
        },
        {
          "internalType": "string",
          "name": "description",
          "type": "string"
        }
      ],
      "stateMutability": "view",
      "type": "function"
    },
    {
      "inputs": [
        {
          "internalType": "address",
          "name": "_token",
          "type": "address"
        },
        {
          "internalType": "uint256",
          "name": "_maxAge",
          "type": "uint256"
        }
      ],
      "name": "isPriceStale",
      "outputs": [
        {
          "internalType": "bool",
          "name": "isStale",
          "type": "bool"
        }
      ],
      "stateMutability": "view",
      "type": "function"
    },
    {
      "inputs": [],
      "name": "owner",
      "outputs": [
        {
          "internalType": "address",
          "name": "",
          "type": "address"
        }
      ],
      "stateMutability": "view",
      "type": "function"
    },
    {
      "inputs": [
        {
          "internalType": "address",
          "name": "",
          "type": "address"
        }
      ],
      "name": "priceFeeds",
      "outputs": [
        {
          "internalType": "address",
          "name": "",
          "type": "address"
        }
      ],
      "stateMutability": "view",
      "type": "function"
    },
    {
      "inputs": [],
      "name": "renounceOwnership",
      "outputs": [],
      "stateMutability": "nonpayable",
      "type": "function"
    },
    {
      "inputs": [
        {
          "internalType": "address",
          "name": "_token",
          "type": "address"
        },
        {
          "internalType": "address",
          "name": "_priceFeed",
          "type": "address"
        },
        {
          "internalType": "string",
          "name": "_symbol",
          "type": "string"
        }
      ],
      "name": "setPriceFeed",
      "outputs": [],
      "stateMutability": "nonpayable",
      "type": "function"
    },
    {
      "inputs": [
        {
          "internalType": "string",
          "name": "",
          "type": "string"
        }
      ],
      "name": "tokenBySymbol",
      "outputs": [
        {
          "internalType": "address",
          "name": "",
          "type": "address"
        }
      ],
      "stateMutability": "view",
      "type": "function"
    },
    {
      "inputs": [
        {
          "internalType": "address",
          "name": "newOwner",
          "type": "address"
        }
      ],
      "name": "transferOwnership",
      "outputs": [],
      "stateMutability": "nonpayable",
      "type": "function"
    }
  ],
  "bytecode": "0x608060405234801561001057600080fd5b5060405161133e38038061133e83398101604081905261002f916100be565b806001600160a01b03811661005e57604051631e4fbdf760e01b81526000600482015260240160405180910390fd5b6100678161006e565b50506100ee565b600080546001600160a01b038381166001600160a01b0319831681178455604051919092169283917f8be0079c531659141344cd1fd0a4f28419497f9722a3daafe3b4186f6b6457e09190a35050565b6000602082840312156100d057600080fd5b81516001600160a01b03811681146100e757600080fd5b9392505050565b611241806100fd6000396000f3fe608060405234801561001057600080fd5b50600436106100b45760003560e01c80639dcb511a116100715780639dcb511a1461016d578063a1c7ffb314610196578063b3a842ff146101b7578063be9a4b61146101eb578063c0da39bb146101fe578063f2fde38b1461021157600080fd5b806316345f18146100b957806326679b69146100e65780633029c35c146100f9578063715018a61461011b5780638da5cb5b14610125578063907abef41461014a575b600080fd5b6100cc6100c7366004610bf7565b610224565b604080519283526020830191909152015b60405180910390f35b6100cc6100f4366004610cde565b610391565b61010c610107366004610bf7565b61047f565b6040516100dd93929190610d6b565b6101236105bb565b005b6000546001600160a01b03165b6040516001600160a01b0390911681526020016100dd565b61015d610158366004610da1565b6105cf565b60405190151581526020016100dd565b61013261017b366004610bf7565b6001602052600090815260409020546001600160a01b031681565b6101a96101a4366004610e17565b6106b7565b6040516100dd929190610e59565b6101326101c5366004610cde565b80516020818301810180516002825292820191909301209152546001600160a01b031681565b6101236101f9366004610ed4565b610837565b61012361020c366004610f6e565b6109c6565b61012361021f366004610bf7565b610b20565b6001600160a01b038082166000908152600160205260408120549091829116806102955760405162461bcd60e51b815260206004820152601e60248201527f50726963652066656564206e6f7420666f756e6420666f7220746f6b656e000060448201526064015b60405180910390fd5b6000819050806001600160a01b031663feaf968c6040518163ffffffff1660e01b815260040160a060405180830381865afa1580156102d8573d6000803e3d6000fd5b505050506040513d601f19601f820116820180604052508101906102fc9190610fe6565b50919650909450506000851390506103465760405162461bcd60e51b815260206004820152600d60248201526c496e76616c696420707269636560981b604482015260640161028c565b6000831161038a5760405162461bcd60e51b81526020600482015260116024820152700496e76616c69642074696d657374616d7607c1b604482015260640161028c565b5050915091565b60008060006002846040516103a69190611036565b908152604051908190036020019020546001600160a01b031690508061040e5760405162461bcd60e51b815260206004820152601a60248201527f546f6b656e206e6f7420666f756e6420666f722073796d626f6c000000000000604482015260640161028c565b6040516302c68be360e31b81526001600160a01b038216600482015230906316345f18906024016040805180830381865afa158015610451573d6000803e3d6000fd5b505050506040513d601f19601f820116820180604052508101906104759190611052565b9250925050915091565b6001600160a01b03808216600090815260016020526040812054909116906060826104e35760405162461bcd60e51b8152602060048201526014602482015273141c9a58d94819995959081b9bdd08199bdd5b9960621b604482015260640161028c565b6000839050806001600160a01b031663313ce5676040518163ffffffff1660e01b8152600401602060405180830381865afa158015610526573d6000803e3d6000fd5b505050506040513d601f19601f8201168201806040525081019061054a9190611076565b9250806001600160a01b0316637284e4166040518163ffffffff1660e01b8152600401600060405180830381865afa15801561058a573d6000803e3d6000fd5b505050506040513d6000823e601f3d908101601f191682016040526105b29190810190611099565b93959294505050565b6105c3610b5e565b6105cd6000610b8b565b565b6001600160a01b03808316600090815260016020526040812054909116806106305760405162461bcd60e51b8152602060048201526014602482015273141c9a58d94819995959081b9bdd08199bdd5b9960621b604482015260640161028c565b60008190506000816001600160a01b031663feaf968c6040518163ffffffff1660e01b815260040160a060405180830381865afa158015610675573d6000803e3d6000fd5b505050506040513d601f19601f820116820180604052508101906106999190610fe6565b5093505050508481426106ac919061111d565b119695505050505050565b6060808267ffffffffffffffff8111156106d3576106d3610c19565b6040519080825280602002602001820160405280156106fc578160200160208202803683370190505b5091508267ffffffffffffffff81111561071857610718610c19565b604051908082528060200260200182016040528015610741578160200160208202803683370190505b50905060005b8381101561082f57306316345f1886868481811061076757610767611136565b905060200201602081019061077c9190610bf7565b6040516001600160e01b031960e084901b1681526001600160a01b0390911660048201526024016040805180830381865afa1580156107bf573d6000803e3d6000fd5b505050506040513d601f19601f820116820180604052508101906107e39190611052565b8483815181106107f5576107f5611136565b6020026020010184848151811061080e5761080e611136565b602090810291909101019190915252806108278161114c565b915050610747565b509250929050565b61083f610b5e565b8483146108875760405162461bcd60e51b8152602060048201526016602482015275082e4e4c2f2e640d8cadccee8d040dad2e6dac2e8c6d60531b604482015260640161028c565b8481146108d65760405162461bcd60e51b815260206004820152601d60248201527f53796d626f6c73206172726179206c656e677468206d69736d61746368000000604482015260640161028c565b60005b858110156109bd573063c0da39bb8888848181106108f9576108f9611136565b905060200201602081019061090e9190610bf7565b87878581811061092057610920611136565b90506020020160208101906109359190610bf7565b86868681811061094757610947611136565b90506020028101906109599190611165565b6040518563ffffffff1660e01b815260040161097894939291906111ac565b600060405180830381600087803b15801561099257600080fd5b505af11580156109a6573d6000803e3d6000fd5b5050505080806109b59061114c565b9150506108d9565b50505050505050565b6109ce610b5e565b6001600160a01b038316610a1c5760405162461bcd60e51b8152602060048201526015602482015274496e76616c696420746f6b656e206164647265737360581b604482015260640161028c565b6001600160a01b038216610a725760405162461bcd60e51b815260206004820152601a60248201527f496e76616c696420707269636520666565642061646472657373000000000000604482015260640161028c565b6001600160a01b038381166000908152600160205260409081902080546001600160a01b03191692851692909217909155518390600290610ab4908490611036565b90815260405190819003602001812080546001600160a01b039384166001600160a01b0319909116179055838216918516907f6ae62138b62204f24cfababd567492e18b9e75f3043e00715861d83ff953f69a90610b139085906111f8565b60405180910390a3505050565b610b28610b5e565b6001600160a01b038116610b5257604051631e4fbdf760e01b81526000600482015260240161028c565b610b5b81610b8b565b50565b6000546001600160a01b031633146105cd5760405163118cdaa760e01b815233600482015260240161028c565b600080546001600160a01b038381166001600160a01b0319831681178455604051919092169283917f8be0079c531659141344cd1fd0a4f28419497f9722a3daafe3b4186f6b6457e09190a35050565b80356001600160a01b0381168114610bf257600080fd5b919050565b600060208284031215610c0957600080fd5b610c1282610bdb565b9392505050565b634e487b7160e01b600052604160045260246000fd5b604051601f8201601f1916810167ffffffffffffffff81118282101715610c5857610c58610c19565b604052919050565b600067ffffffffffffffff821115610c7a57610c7a610c19565b50601f01601f191660200190565b600082601f830112610c9957600080fd5b8135610cac610ca782610c60565b610c2f565b818152846020838601011115610cc157600080fd5b816020850160208301376000918101602001919091529392505050565b600060208284031215610cf057600080fd5b813567ffffffffffffffff811115610d0757600080fd5b610d1384828501610c88565b949350505050565b60005b83811015610d36578181015183820152602001610d1e565b50506000910152565b60008151808452610d57816020860160208601610d1b565b601f01601f19169290920160200192915050565b6001600160a01b038416815260ff83166020820152606060408201819052600090610d9890830184610d3f565b95945050505050565b60008060408385031215610db457600080fd5b610dbd83610bdb565b946020939093013593505050565b60008083601f840112610ddd57600080fd5b50813567ffffffffffffffff811115610df557600080fd5b6020830191508360208260051b8501011115610e1057600080fd5b9250929050565b60008060208385031215610e2a57600080fd5b823567ffffffffffffffff811115610e4157600080fd5b610e4d85828601610dcb565b90969095509350505050565b604080825283519082018190526000906020906060840190828701845b82811015610e9257815184529284019290840190600101610e76565b5050508381038285015284518082528583019183019060005b81811015610ec757835183529284019291840191600101610eab565b5090979650505050505050565b60008060008060008060608789031215610eed57600080fd5b863567ffffffffffffffff80821115610f0557600080fd5b610f118a838b01610dcb565b90985096506020890135915080821115610f2a57600080fd5b610f368a838b01610dcb565b90965094506040890135915080821115610f4f57600080fd5b50610f5c89828a01610dcb565b979a9699509497509295939492505050565b600080600060608486031215610f8357600080fd5b610f8c84610bdb565b9250610f9a60208501610bdb565b9150604084013567ffffffffffffffff811115610fb657600080fd5b610fc286828701610c88565b9150509250925092565b805169ffffffffffffffffffff81168114610bf257600080fd5b600080600080600060a08688031215610ffe57600080fd5b61100786610fcc565b945060208601519350604086015192506060860151915061102a60808701610fcc565b90509295509295909350565b60008251611048818460208701610d1b565b9190910192915050565b6000806040838503121561106557600080fd5b505080516020909101519092909150565b60006020828403121561108857600080fd5b815160ff81168114610c1257600080fd5b6000602082840312156110ab57600080fd5b815167ffffffffffffffff8111156110c257600080fd5b8201601f810184136110d357600080fd5b80516110e1610ca782610c60565b8181528560208385010111156110f657600080fd5b610d98826020830160208601610d1b565b634e487b7160e01b600052601160045260246000fd5b8181038181111561113057611130611107565b92915050565b634e487b7160e01b600052603260045260246000fd5b60006001820161115e5761115e611107565b5060010190565b6000808335601e1984360301811261117c57600080fd5b83018035915067ffffffffffffffff82111561119757600080fd5b602001915036819003821315610e1057600080fd5b6001600160a01b0385811682528416602082015260606040820181905281018290526000828460808401376000608084840101526080601f19601f850116830101905095945050505050565b602081526000610c126020830184610d3f56fea26469706673582212204537e6a83bea1cc40990c6b6404dd9bd853756221c54ad3583677075107f8c1c64736f6c63430008140033",
  "linkReferences": {},
  "deployedLinkReferences": {}
}