{
  "_format": "hh-sol-artifact-1",
  "contractName": "FundShareToken",
  "sourceName": "contracts/FundShareToken.sol",
  "abi": [
    {
      "inputs": [
        {
          "internalType": "string",
          "name": "_name",
          "type": "string"
        },
        {
          "internalType": "string",
          "name": "_symbol",
          "type": "string"
        },
        {
          "internalType": "address",
          "name": "_initialOwner",
          "type": "address"
        }
      ],
      "stateMutability": "nonpayable",
      "type": "constructor"
    },
    {
      "inputs": [
        {
          "internalType": "address",
          "name": "spender",
          "type": "address"
        },
        {
          "internalType": "uint256",
          "name": "allowance",
          "type": "uint256"
        },
        {
          "internalType": "uint256",
          "name": "needed",
          "type": "uint256"
        }
      ],
      "name": "ERC20InsufficientAllowance",
      "type": "error"
    },
    {
      "inputs": [
        {
          "internalType": "address",
          "name": "sender",
          "type": "address"
        },
        {
          "internalType": "uint256",
          "name": "balance",
          "type": "uint256"
        },
        {
          "internalType": "uint256",
          "name": "needed",
          "type": "uint256"
        }
      ],
      "name": "ERC20InsufficientBalance",
      "type": "error"
    },
    {
      "inputs": [
        {
          "internalType": "address",
          "name": "approver",
          "type": "address"
        }
      ],
      "name": "ERC20InvalidApprover",
      "type": "error"
    },
    {
      "inputs": [
        {
          "internalType": "address",
          "name": "receiver",
          "type": "address"
        }
      ],
      "name": "ERC20InvalidReceiver",
      "type": "error"
    },
    {
      "inputs": [
        {
          "internalType": "address",
          "name": "sender",
          "type": "address"
        }
      ],
      "name": "ERC20InvalidSender",
      "type": "error"
    },
    {
      "inputs": [
        {
          "internalType": "address",
          "name": "spender",
          "type": "address"
        }
      ],
      "name": "ERC20InvalidSpender",
      "type": "error"
    },
    {
      "inputs": [],
      "name": "EnforcedPause",
      "type": "error"
    },
    {
      "inputs": [],
      "name": "ExpectedPause",
      "type": "error"
    },
    {
      "inputs": [
        {
          "internalType": "address",
          "name": "owner",
          "type": "address"
        }
      ],
      "name": "OwnableInvalidOwner",
      "type": "error"
    },
    {
      "inputs": [
        {
          "internalType": "address",
          "name": "account",
          "type": "address"
        }
      ],
      "name": "OwnableUnauthorizedAccount",
      "type": "error"
    },
    {
      "anonymous": false,
      "inputs": [
        {
          "indexed": true,
          "internalType": "address",
          "name": "owner",
          "type": "address"
        },
        {
          "indexed": true,
          "internalType": "address",
          "name": "spender",
          "type": "address"
        },
        {
          "indexed": false,
          "internalType": "uint256",
          "name": "value",
          "type": "uint256"
        }
      ],
      "name": "Approval",
      "type": "event"
    },
    {
      "anonymous": false,
      "inputs": [
        {
          "indexed": true,
          "internalType": "address",
          "name": "fundContract",
          "type": "address"
        }
      ],
      "name": "FundContractSet",
      "type": "event"
    },
    {
      "anonymous": false,
      "inputs": [
        {
          "indexed": true,
          "internalType": "address",
          "name": "previousOwner",
          "type": "address"
        },
        {
          "indexed": true,
          "internalType": "address",
          "name": "newOwner",
          "type": "address"
        }
      ],
      "name": "OwnershipTransferred",
      "type": "event"
    },
    {
      "anonymous": false,
      "inputs": [
        {
          "indexed": false,
          "internalType": "address",
          "name": "account",
          "type": "address"
        }
      ],
      "name": "Paused",
      "type": "event"
    },
    {
      "anonymous": false,
      "inputs": [
        {
          "indexed": true,
          "internalType": "address",
          "name": "from",
          "type": "address"
        },
        {
          "indexed": false,
          "internalType": "uint256",
          "name": "amount",
          "type": "uint256"
        }
      ],
      "name": "TokensBurned",
      "type": "event"
    },
    {
      "anonymous": false,
      "inputs": [
        {
          "indexed": true,
          "internalType": "address",
          "name": "to",
          "type": "address"
        },
        {
          "indexed": false,
          "internalType": "uint256",
          "name": "amount",
          "type": "uint256"
        }
      ],
      "name": "TokensMinted",
      "type": "event"
    },
    {
      "anonymous": false,
      "inputs": [
        {
          "indexed": true,
          "internalType": "address",
          "name": "from",
          "type": "address"
        },
        {
          "indexed": true,
          "internalType": "address",
          "name": "to",
          "type": "address"
        },
        {
          "indexed": false,
          "internalType": "uint256",
          "name": "value",
          "type": "uint256"
        }
      ],
      "name": "Transfer",
      "type": "event"
    },
    {
      "anonymous": false,
      "inputs": [
        {
          "indexed": false,
          "internalType": "address",
          "name": "account",
          "type": "address"
        }
      ],
      "name": "Unpaused",
      "type": "event"
    },
    {
      "inputs": [
        {
          "internalType": "address",
          "name": "owner",
          "type": "address"
        },
        {
          "internalType": "address",
          "name": "spender",
          "type": "address"
        }
      ],
      "name": "allowance",
      "outputs": [
        {
          "internalType": "uint256",
          "name": "",
          "type": "uint256"
        }
      ],
      "stateMutability": "view",
      "type": "function"
    },
    {
      "inputs": [
        {
          "internalType": "address",
          "name": "spender",
          "type": "address"
        },
        {
          "internalType": "uint256",
          "name": "value",
          "type": "uint256"
        }
      ],
      "name": "approve",
      "outputs": [
        {
          "internalType": "bool",
          "name": "",
          "type": "bool"
        }
      ],
      "stateMutability": "nonpayable",
      "type": "function"
    },
    {
      "inputs": [
        {
          "internalType": "address",
          "name": "account",
          "type": "address"
        }
      ],
      "name": "balanceOf",
      "outputs": [
        {
          "internalType": "uint256",
          "name": "",
          "type": "uint256"
        }
      ],
      "stateMutability": "view",
      "type": "function"
    },
    {
      "inputs": [
        {
          "internalType": "address[]",
          "name": "_recipients",
          "type": "address[]"
        },
        {
          "internalType": "uint256[]",
          "name": "_amounts",
          "type": "uint256[]"
        }
      ],
      "name": "batchMint",
      "outputs": [],
      "stateMutability": "nonpayable",
      "type": "function"
    },
    {
      "inputs": [
        {
          "internalType": "address",
          "name": "_from",
          "type": "address"
        },
        {
          "internalType": "uint256",
          "name": "_amount",
          "type": "uint256"
        }
      ],
      "name": "burn",
      "outputs": [],
      "stateMutability": "nonpayable",
      "type": "function"
    },
    {
      "inputs": [],
      "name": "decimals",
      "outputs": [
        {
          "internalType": "uint8",
          "name": "",
          "type": "uint8"
        }
      ],
      "stateMutability": "pure",
      "type": "function"
    },
    {
      "inputs": [],
      "name": "fundContract",
      "outputs": [
        {
          "internalType": "address",
          "name": "",
          "type": "address"
        }
      ],
      "stateMutability": "view",
      "type": "function"
    },
    {
      "inputs": [],
      "name": "getTokenStats",
      "outputs": [
        {
          "internalType": "uint256",
          "name": "totalSupply",
          "type": "uint256"
        },
        {
          "internalType": "address",
          "name": "fundContractAddress",
          "type": "address"
        },
        {
          "internalType": "bool",
          "name": "isPaused",
          "type": "bool"
        }
      ],
      "stateMutability": "view",
      "type": "function"
    },
    {
      "inputs": [
        {
          "internalType": "address",
          "name": "_address",
          "type": "address"
        }
      ],
      "name": "isFundContract",
      "outputs": [
        {
          "internalType": "bool",
          "name": "",
          "type": "bool"
        }
      ],
      "stateMutability": "view",
      "type": "function"
    },
    {
      "inputs": [
        {
          "internalType": "address",
          "name": "_to",
          "type": "address"
        },
        {
          "internalType": "uint256",
          "name": "_amount",
          "type": "uint256"
        }
      ],
      "name": "mint",
      "outputs": [],
      "stateMutability": "nonpayable",
      "type": "function"
    },
    {
      "inputs": [
        {
          "internalType": "uint256",
          "name": "_amount",
          "type": "uint256"
        }
      ],
      "name": "mintForTesting",
      "outputs": [],
      "stateMutability": "nonpayable",
      "type": "function"
    },
    {
      "inputs": [],
      "name": "name",
      "outputs": [
        {
          "internalType": "string",
          "name": "",
          "type": "string"
        }
      ],
      "stateMutability": "view",
      "type": "function"
    },
    {
      "inputs": [],
      "name": "owner",
      "outputs": [
        {
          "internalType": "address",
          "name": "",
          "type": "address"
        }
      ],
      "stateMutability": "view",
      "type": "function"
    },
    {
      "inputs": [],
      "name": "pause",
      "outputs": [],
      "stateMutability": "nonpayable",
      "type": "function"
    },
    {
      "inputs": [],
      "name": "paused",
      "outputs": [
        {
          "internalType": "bool",
          "name": "",
          "type": "bool"
        }
      ],
      "stateMutability": "view",
      "type": "function"
    },
    {
      "inputs": [],
      "name": "renounceOwnership",
      "outputs": [],
      "stateMutability": "nonpayable",
      "type": "function"
    },
    {
      "inputs": [
        {
          "internalType": "address",
          "name": "_fundContract",
          "type": "address"
        }
      ],
      "name": "setFundContract",
      "outputs": [],
      "stateMutability": "nonpayable",
      "type": "function"
    },
    {
      "inputs": [],
      "name": "symbol",
      "outputs": [
        {
          "internalType": "string",
          "name": "",
          "type": "string"
        }
      ],
      "stateMutability": "view",
      "type": "function"
    },
    {
      "inputs": [],
      "name": "totalSupply",
      "outputs": [
        {
          "internalType": "uint256",
          "name": "",
          "type": "uint256"
        }
      ],
      "stateMutability": "view",
      "type": "function"
    },
    {
      "inputs": [
        {
          "internalType": "address",
          "name": "to",
          "type": "address"
        },
        {
          "internalType": "uint256",
          "name": "amount",
          "type": "uint256"
        }
      ],
      "name": "transfer",
      "outputs": [
        {
          "internalType": "bool",
          "name": "",
          "type": "bool"
        }
      ],
      "stateMutability": "nonpayable",
      "type": "function"
    },
    {
      "inputs": [
        {
          "internalType": "address",
          "name": "from",
          "type": "address"
        },
        {
          "internalType": "address",
          "name": "to",
          "type": "address"
        },
        {
          "internalType": "uint256",
          "name": "amount",
          "type": "uint256"
        }
      ],
      "name": "transferFrom",
      "outputs": [
        {
          "internalType": "bool",
          "name": "",
          "type": "bool"
        }
      ],
      "stateMutability": "nonpayable",
      "type": "function"
    },
    {
      "inputs": [
        {
          "internalType": "address",
          "name": "newOwner",
          "type": "address"
        }
      ],
      "name": "transferOwnership",
      "outputs": [],
      "stateMutability": "nonpayable",
      "type": "function"
    },
    {
      "inputs": [],
      "name": "unpause",
      "outputs": [],
      "stateMutability": "nonpayable",
      "type": "function"
    }
  ],
  "bytecode": "0x60806040523480156200001157600080fd5b506040516200187238038062001872833981016040819052620000349162000218565b808383600362000045838262000334565b50600462000054828262000334565b5050506001600160a01b0381166200008757604051631e4fbdf760e01b8152600060048201526024015b60405180910390fd5b620000928162000101565b506005805460ff60a01b191690556001600160a01b038116620000f85760405162461bcd60e51b815260206004820152601560248201527f496e76616c6964206f776e65722061646472657373000000000000000000000060448201526064016200007e565b50505062000400565b600580546001600160a01b038381166001600160a01b0319831681179093556040519116919082907f8be0079c531659141344cd1fd0a4f28419497f9722a3daafe3b4186f6b6457e090600090a35050565b634e487b7160e01b600052604160045260246000fd5b600082601f8301126200017b57600080fd5b81516001600160401b038082111562000198576200019862000153565b604051601f8301601f19908116603f01168101908282118183101715620001c357620001c362000153565b81604052838152602092508683858801011115620001e057600080fd5b600091505b83821015620002045785820183015181830184015290820190620001e5565b600093810190920192909252949350505050565b6000806000606084860312156200022e57600080fd5b83516001600160401b03808211156200024657600080fd5b620002548783880162000169565b945060208601519150808211156200026b57600080fd5b506200027a8682870162000169565b604086015190935090506001600160a01b03811681146200029a57600080fd5b809150509250925092565b600181811c90821680620002ba57607f821691505b602082108103620002db57634e487b7160e01b600052602260045260246000fd5b50919050565b601f8211156200032f57600081815260208120601f850160051c810160208610156200030a5750805b601f850160051c820191505b818110156200032b5782815560010162000316565b5050505b505050565b81516001600160401b0381111562000350576200035062000153565b6200036881620003618454620002a5565b84620002e1565b602080601f831160018114620003a05760008415620003875750858301515b600019600386901b1c1916600185901b1785556200032b565b600085815260208120601f198616915b82811015620003d157888601518255948401946001909101908401620003b0565b5085821015620003f05787850151600019600388901b60f8161c191681555b5050505050600190811b01905550565b61146280620004106000396000f3fe608060405234801561001057600080fd5b506004361061014d5760003560e01c80635c975abb116100c357806395d89b411161007c57806395d89b41146102dc5780639dc29fac146102e4578063a9059cbb146102f7578063bd097e211461030a578063dd62ed3e1461031d578063f2fde38b1461035657600080fd5b80635c975abb14610259578063685731071461026b57806370a082311461027e578063715018a6146102a75780638456cb59146102af5780638da5cb5b146102b757600080fd5b806323b872dd1161011557806323b872dd146101f4578063313ce56714610207578063378d058d146102165780633f4ba83a1461022b57806340c10f191461023357806359144baa1461024657600080fd5b806306fdde0314610152578063095ea7b314610170578063097cd9bf146101935780630ceb1f67146101c057806318160ddd146101e2575b600080fd5b61015a610369565b604051610167919061106c565b60405180910390f35b61018361017e3660046110d6565b6103fb565b6040519015158152602001610167565b61019b610415565b604080519384526001600160a01b039092166020840152151590820152606001610167565b6101836101ce366004611100565b6006546001600160a01b0391821691161490565b6002545b604051908152602001610167565b61018361020236600461111b565b61044e565b60405160128152602001610167565b610229610224366004611157565b6104bb565b005b610229610577565b6102296102413660046110d6565b610589565b610229610254366004611100565b6106cb565b600554600160a01b900460ff16610183565b6102296102793660046111bc565b610773565b6101e661028c366004611100565b6001600160a01b031660009081526020819052604090205490565b6102296109c4565b6102296109d6565b6005546001600160a01b03165b6040516001600160a01b039091168152602001610167565b61015a6109e6565b6102296102f23660046110d6565b6109f5565b6101836103053660046110d6565b610ad5565b6006546102c4906001600160a01b031681565b6101e661032b366004611228565b6001600160a01b03918216600090815260016020908152604080832093909416825291909152205490565b610229610364366004611100565b610b3b565b6060600380546103789061125b565b80601f01602080910402602001604051908101604052809291908181526020018280546103a49061125b565b80156103f15780601f106103c6576101008083540402835291602001916103f1565b820191906000526020600020905b8154815290600101906020018083116103d457829003601f168201915b5050505050905090565b600033610409818585610b79565b60019150505b92915050565b600080600061042360025490565b6006546001600160a01b031661044360055460ff600160a01b9091041690565b925092509250909192565b600554600090600160a01b900460ff16156104a85760405162461bcd60e51b8152602060048201526015602482015274151bdad95b881d1c985b9cd9995c881c185d5cd959605a1b60448201526064015b60405180910390fd5b6104b3848484610b8b565b949350505050565b600081116104db5760405162461bcd60e51b815260040161049f90611295565b6104e76012600a6113c4565b6104f3906127106113d3565b8111156105355760405162461bcd60e51b815260206004820152601060248201526f416d6f756e7420746f6f206c6172676560801b604482015260640161049f565b61053f3382610baf565b60405181815233907f3f2c9d57c068687834f0de942a9babb9e5acab57d516d3480a3c16ee165a42739060200160405180910390a250565b61057f610be9565b610587610c16565b565b6001600160a01b0382166105df5760405162461bcd60e51b815260206004820152601b60248201527f43616e6e6f74206d696e7420746f207a65726f20616464726573730000000000604482015260640161049f565b600081116105ff5760405162461bcd60e51b815260040161049f90611295565b6006546001600160a01b031633148061062257506005546001600160a01b031633145b61067a5760405162461bcd60e51b8152602060048201526024808201527f4f6e6c792066756e6420636f6e7472616374206f72206f776e65722063616e206044820152631b5a5b9d60e21b606482015260840161049f565b6106848282610baf565b816001600160a01b03167f3f2c9d57c068687834f0de942a9babb9e5acab57d516d3480a3c16ee165a4273826040516106bf91815260200190565b60405180910390a25050565b6106d3610be9565b6001600160a01b0381166107295760405162461bcd60e51b815260206004820152601d60248201527f496e76616c69642066756e6420636f6e74726163742061646472657373000000604482015260640161049f565b600680546001600160a01b0319166001600160a01b0383169081179091556040517f7c59c205345b66e434276baacaa662cf962814720625d59b2ef6a82b9fc84a6d90600090a250565b61077b610be9565b8281146107c35760405162461bcd60e51b8152602060048201526016602482015275082e4e4c2f2e640d8cadccee8d040dad2e6dac2e8c6d60531b604482015260640161049f565b826107ff5760405162461bcd60e51b815260206004820152600c60248201526b456d7074792061727261797360a01b604482015260640161049f565b60005b838110156109bd57600085858381811061081e5761081e6113ea565b90506020020160208101906108339190611100565b6001600160a01b0316036108895760405162461bcd60e51b815260206004820152601960248201527f496e76616c696420726563697069656e74206164647265737300000000000000604482015260640161049f565b600083838381811061089d5761089d6113ea565b90506020020135116108e25760405162461bcd60e51b815260206004820152600e60248201526d125b9d985b1a5908185b5bdd5b9d60921b604482015260640161049f565b61092a8585838181106108f7576108f76113ea565b905060200201602081019061090c9190611100565b84848481811061091e5761091e6113ea565b90506020020135610baf565b84848281811061093c5761093c6113ea565b90506020020160208101906109519190611100565b6001600160a01b03167f3f2c9d57c068687834f0de942a9babb9e5acab57d516d3480a3c16ee165a427384848481811061098d5761098d6113ea565b905060200201356040516109a391815260200190565b60405180910390a2806109b581611400565b915050610802565b5050505050565b6109cc610be9565b6105876000610c6b565b6109de610be9565b610587610cbd565b6060600480546103789061125b565b60008111610a155760405162461bcd60e51b815260040161049f90611295565b6006546001600160a01b0316331480610a3857506005546001600160a01b031633145b610a905760405162461bcd60e51b8152602060048201526024808201527f4f6e6c792066756e6420636f6e7472616374206f72206f776e65722063616e20604482015263313ab93760e11b606482015260840161049f565b610a9a8282610d00565b816001600160a01b03167ffd38818f5291bf0bb3a2a48aadc06ba8757865d1dabd804585338aab3009dcb6826040516106bf91815260200190565b600554600090600160a01b900460ff1615610b2a5760405162461bcd60e51b8152602060048201526015602482015274151bdad95b881d1c985b9cd9995c881c185d5cd959605a1b604482015260640161049f565b610b348383610d36565b9392505050565b610b43610be9565b6001600160a01b038116610b6d57604051631e4fbdf760e01b81526000600482015260240161049f565b610b7681610c6b565b50565b610b868383836001610d44565b505050565b600033610b99858285610e1a565b610ba4858585610e92565b506001949350505050565b6001600160a01b038216610bd95760405163ec442f0560e01b81526000600482015260240161049f565b610be560008383610eed565b5050565b6005546001600160a01b031633146105875760405163118cdaa760e01b815233600482015260240161049f565b610c1e611017565b6005805460ff60a01b191690557f5db9ee0a495bf2e6ff9c91a7834c1ba4fdd244a5e8aa4e537bd38aeae4b073aa335b6040516001600160a01b03909116815260200160405180910390a1565b600580546001600160a01b038381166001600160a01b0319831681179093556040519116919082907f8be0079c531659141344cd1fd0a4f28419497f9722a3daafe3b4186f6b6457e090600090a35050565b610cc5611041565b6005805460ff60a01b1916600160a01b1790557f62e78cea01bee320cd4e420270b5ea74000d11b0c9f74754ebdbfc544b05a258610c4e3390565b6001600160a01b038216610d2a57604051634b637e8f60e11b81526000600482015260240161049f565b610be582600083610eed565b600033610409818585610e92565b6001600160a01b038416610d6e5760405163e602df0560e01b81526000600482015260240161049f565b6001600160a01b038316610d9857604051634a1406b160e11b81526000600482015260240161049f565b6001600160a01b0380851660009081526001602090815260408083209387168352929052208290558015610e1457826001600160a01b0316846001600160a01b03167f8c5be1e5ebec7d5bd14f71427d1e84f3dd0314c0f7b2291e5b200ac8c7c3b92584604051610e0b91815260200190565b60405180910390a35b50505050565b6001600160a01b038381166000908152600160209081526040808320938616835292905220546000198114610e145781811015610e8357604051637dc7a0d960e11b81526001600160a01b0384166004820152602481018290526044810183905260640161049f565b610e1484848484036000610d44565b6001600160a01b038316610ebc57604051634b637e8f60e11b81526000600482015260240161049f565b6001600160a01b038216610ee65760405163ec442f0560e01b81526000600482015260240161049f565b610b868383835b6001600160a01b038316610f18578060026000828254610f0d9190611419565b90915550610f8a9050565b6001600160a01b03831660009081526020819052604090205481811015610f6b5760405163391434e360e21b81526001600160a01b0385166004820152602481018290526044810183905260640161049f565b6001600160a01b03841660009081526020819052604090209082900390555b6001600160a01b038216610fa657600280548290039055610fc5565b6001600160a01b03821660009081526020819052604090208054820190555b816001600160a01b0316836001600160a01b03167fddf252ad1be2c89b69c2b068fc378daa952ba7f163c4a11628f55a4df523b3ef8360405161100a91815260200190565b60405180910390a3505050565b600554600160a01b900460ff1661058757604051638dfc202b60e01b815260040160405180910390fd5b600554600160a01b900460ff16156105875760405163d93c066560e01b815260040160405180910390fd5b600060208083528351808285015260005b818110156110995785810183015185820160400152820161107d565b506000604082860101526040601f19601f8301168501019250505092915050565b80356001600160a01b03811681146110d157600080fd5b919050565b600080604083850312156110e957600080fd5b6110f2836110ba565b946020939093013593505050565b60006020828403121561111257600080fd5b610b34826110ba565b60008060006060848603121561113057600080fd5b611139846110ba565b9250611147602085016110ba565b9150604084013590509250925092565b60006020828403121561116957600080fd5b5035919050565b60008083601f84011261118257600080fd5b50813567ffffffffffffffff81111561119a57600080fd5b6020830191508360208260051b85010111156111b557600080fd5b9250929050565b600080600080604085870312156111d257600080fd5b843567ffffffffffffffff808211156111ea57600080fd5b6111f688838901611170565b9096509450602087013591508082111561120f57600080fd5b5061121c87828801611170565b95989497509550505050565b6000806040838503121561123b57600080fd5b611244836110ba565b9150611252602084016110ba565b90509250929050565b600181811c9082168061126f57607f821691505b60208210810361128f57634e487b7160e01b600052602260045260246000fd5b50919050565b6020808252818101527f416d6f756e74206d7573742062652067726561746572207468616e207a65726f604082015260600190565b634e487b7160e01b600052601160045260246000fd5b600181815b8085111561131b578160001904821115611301576113016112ca565b8085161561130e57918102915b93841c93908002906112e5565b509250929050565b6000826113325750600161040f565b8161133f5750600061040f565b8160018114611355576002811461135f5761137b565b600191505061040f565b60ff841115611370576113706112ca565b50506001821b61040f565b5060208310610133831016604e8410600b841016171561139e575081810a61040f565b6113a883836112e0565b80600019048211156113bc576113bc6112ca565b029392505050565b6000610b3460ff841683611323565b808202811582820484141761040f5761040f6112ca565b634e487b7160e01b600052603260045260246000fd5b600060018201611412576114126112ca565b5060010190565b8082018082111561040f5761040f6112ca56fea26469706673582212205677177f9e6d31ea9976a1faa0e0c0922069f74d9d218f15b91dda520a2acd3b64736f6c63430008140033",
  "linkReferences": {},
  "deployedLinkReferences": {}
}