{
  "_format": "hh-sol-artifact-1",
  "contractName": "MockFund",
  "sourceName": "contracts/MockFund.sol",
  "abi": [
    {
      "inputs": [
        {
          "internalType": "string",
          "name": "_shareTokenName",
          "type": "string"
        },
        {
          "internalType": "string",
          "name": "_shareTokenSymbol",
          "type": "string"
        },
        {
          "internalType": "address",
          "name": "_initialOwner",
          "type": "address"
        },
        {
          "internalType": "uint256",
          "name": "_managementFeeRate",
          "type": "uint256"
        },
        {
          "internalType": "address",
          "name": "_priceOracle",
          "type": "address"
        },
        {
          "internalType": "address",
          "name": "_uniswapIntegration",
          "type": "address"
        }
      ],
      "stateMutability": "nonpayable",
      "type": "constructor"
    },
    {
      "inputs": [
        {
          "internalType": "address",
          "name": "target",
          "type": "address"
        }
      ],
      "name": "AddressEmptyCode",
      "type": "error"
    },
    {
      "inputs": [
        {
          "internalType": "address",
          "name": "account",
          "type": "address"
        }
      ],
      "name": "AddressInsufficientBalance",
      "type": "error"
    },
    {
      "inputs": [],
      "name": "EnforcedPause",
      "type": "error"
    },
    {
      "inputs": [],
      "name": "ExpectedPause",
      "type": "error"
    },
    {
      "inputs": [],
      "name": "FailedInnerCall",
      "type": "error"
    },
    {
      "inputs": [
        {
          "internalType": "address",
          "name": "owner",
          "type": "address"
        }
      ],
      "name": "OwnableInvalidOwner",
      "type": "error"
    },
    {
      "inputs": [
        {
          "internalType": "address",
          "name": "account",
          "type": "address"
        }
      ],
      "name": "OwnableUnauthorizedAccount",
      "type": "error"
    },
    {
      "inputs": [],
      "name": "ReentrancyGuardReentrantCall",
      "type": "error"
    },
    {
      "inputs": [
        {
          "internalType": "address",
          "name": "token",
          "type": "address"
        }
      ],
      "name": "SafeERC20FailedOperation",
      "type": "error"
    },
    {
      "anonymous": false,
      "inputs": [
        {
          "indexed": false,
          "internalType": "uint256",
          "name": "initialSupply",
          "type": "uint256"
        },
        {
          "indexed": false,
          "internalType": "uint256",
          "name": "initialUSDC",
          "type": "uint256"
        }
      ],
      "name": "FundInitialized",
      "type": "event"
    },
    {
      "anonymous": false,
      "inputs": [
        {
          "indexed": true,
          "internalType": "address",
          "name": "investor",
          "type": "address"
        },
        {
          "indexed": false,
          "internalType": "uint256",
          "name": "usdcAmount",
          "type": "uint256"
        },
        {
          "indexed": false,
          "internalType": "uint256",
          "name": "mfcAmount",
          "type": "uint256"
        }
      ],
      "name": "Investment",
      "type": "event"
    },
    {
      "anonymous": false,
      "inputs": [
        {
          "indexed": false,
          "internalType": "uint256",
          "name": "feeAmount",
          "type": "uint256"
        },
        {
          "indexed": false,
          "internalType": "uint256",
          "name": "timestamp",
          "type": "uint256"
        },
        {
          "indexed": false,
          "internalType": "uint256",
          "name": "totalFees",
          "type": "uint256"
        }
      ],
      "name": "ManagementFeeCollected",
      "type": "event"
    },
    {
      "anonymous": false,
      "inputs": [
        {
          "indexed": true,
          "internalType": "address",
          "name": "previousOwner",
          "type": "address"
        },
        {
          "indexed": true,
          "internalType": "address",
          "name": "newOwner",
          "type": "address"
        }
      ],
      "name": "OwnershipTransferred",
      "type": "event"
    },
    {
      "anonymous": false,
      "inputs": [
        {
          "indexed": false,
          "internalType": "address",
          "name": "account",
          "type": "address"
        }
      ],
      "name": "Paused",
      "type": "event"
    },
    {
      "anonymous": false,
      "inputs": [
        {
          "indexed": true,
          "internalType": "address",
          "name": "investor",
          "type": "address"
        },
        {
          "indexed": false,
          "internalType": "uint256",
          "name": "shareAmount",
          "type": "uint256"
        },
        {
          "indexed": false,
          "internalType": "uint256",
          "name": "usdcAmount",
          "type": "uint256"
        }
      ],
      "name": "Redemption",
      "type": "event"
    },
    {
      "anonymous": false,
      "inputs": [
        {
          "indexed": false,
          "internalType": "address",
          "name": "token",
          "type": "address"
        },
        {
          "indexed": false,
          "internalType": "uint256",
          "name": "allocation",
          "type": "uint256"
        }
      ],
      "name": "SupportedTokenAdded",
      "type": "event"
    },
    {
      "anonymous": false,
      "inputs": [
        {
          "indexed": false,
          "internalType": "address",
          "name": "account",
          "type": "address"
        }
      ],
      "name": "Unpaused",
      "type": "event"
    },
    {
      "inputs": [],
      "name": "BASIS_POINTS",
      "outputs": [
        {
          "internalType": "uint256",
          "name": "",
          "type": "uint256"
        }
      ],
      "stateMutability": "view",
      "type": "function"
    },
    {
      "inputs": [],
      "name": "INITIAL_MFC_SUPPLY",
      "outputs": [
        {
          "internalType": "uint256",
          "name": "",
          "type": "uint256"
        }
      ],
      "stateMutability": "view",
      "type": "function"
    },
    {
      "inputs": [],
      "name": "INITIAL_USDC_AMOUNT",
      "outputs": [
        {
          "internalType": "uint256",
          "name": "",
          "type": "uint256"
        }
      ],
      "stateMutability": "view",
      "type": "function"
    },
    {
      "inputs": [],
      "name": "MANAGEMENT_FEE_INTERVAL",
      "outputs": [
        {
          "internalType": "uint256",
          "name": "",
          "type": "uint256"
        }
      ],
      "stateMutability": "view",
      "type": "function"
    },
    {
      "inputs": [],
      "name": "TOKEN_ALLOCATION",
      "outputs": [
        {
          "internalType": "uint256",
          "name": "",
          "type": "uint256"
        }
      ],
      "stateMutability": "view",
      "type": "function"
    },
    {
      "inputs": [],
      "name": "USDC_ALLOCATION",
      "outputs": [
        {
          "internalType": "uint256",
          "name": "",
          "type": "uint256"
        }
      ],
      "stateMutability": "view",
      "type": "function"
    },
    {
      "inputs": [
        {
          "internalType": "address",
          "name": "_token",
          "type": "address"
        },
        {
          "internalType": "uint256",
          "name": "_allocation",
          "type": "uint256"
        }
      ],
      "name": "addSupportedToken",
      "outputs": [],
      "stateMutability": "nonpayable",
      "type": "function"
    },
    {
      "inputs": [],
      "name": "calculateMFCValue",
      "outputs": [
        {
          "internalType": "uint256",
          "name": "mfcValue",
          "type": "uint256"
        }
      ],
      "stateMutability": "view",
      "type": "function"
    },
    {
      "inputs": [],
      "name": "calculateNAV",
      "outputs": [
        {
          "internalType": "uint256",
          "name": "nav",
          "type": "uint256"
        }
      ],
      "stateMutability": "view",
      "type": "function"
    },
    {
      "inputs": [],
      "name": "collectManagementFee",
      "outputs": [],
      "stateMutability": "nonpayable",
      "type": "function"
    },
    {
      "inputs": [],
      "name": "getCirculatingSupply",
      "outputs": [
        {
          "internalType": "uint256",
          "name": "",
          "type": "uint256"
        }
      ],
      "stateMutability": "view",
      "type": "function"
    },
    {
      "inputs": [],
      "name": "getFundNAV",
      "outputs": [
        {
          "internalType": "uint256",
          "name": "nav",
          "type": "uint256"
        },
        {
          "internalType": "uint256",
          "name": "mfcValue",
          "type": "uint256"
        },
        {
          "internalType": "uint256",
          "name": "totalSupply",
          "type": "uint256"
        }
      ],
      "stateMutability": "view",
      "type": "function"
    },
    {
      "inputs": [],
      "name": "getFundStats",
      "outputs": [
        {
          "internalType": "uint256",
          "name": "",
          "type": "uint256"
        },
        {
          "internalType": "uint256",
          "name": "",
          "type": "uint256"
        },
        {
          "internalType": "bool",
          "name": "",
          "type": "bool"
        }
      ],
      "stateMutability": "view",
      "type": "function"
    },
    {
      "inputs": [
        {
          "internalType": "uint256",
          "name": "_usdcAmount",
          "type": "uint256"
        }
      ],
      "name": "getInvestmentPreview",
      "outputs": [
        {
          "internalType": "uint256",
          "name": "mfcAmount",
          "type": "uint256"
        }
      ],
      "stateMutability": "view",
      "type": "function"
    },
    {
      "inputs": [],
      "name": "getMFCComposition",
      "outputs": [
        {
          "internalType": "address[]",
          "name": "tokens",
          "type": "address[]"
        },
        {
          "internalType": "uint256[]",
          "name": "ratios",
          "type": "uint256[]"
        },
        {
          "internalType": "uint256",
          "name": "usdcAmount",
          "type": "uint256"
        }
      ],
      "stateMutability": "view",
      "type": "function"
    },
    {
      "inputs": [
        {
          "internalType": "uint256",
          "name": "_shareAmount",
          "type": "uint256"
        }
      ],
      "name": "getRedemptionPreview",
      "outputs": [
        {
          "internalType": "uint256",
          "name": "usdcAmount",
          "type": "uint256"
        }
      ],
      "stateMutability": "view",
      "type": "function"
    },
    {
      "inputs": [],
      "name": "getSupportedTokens",
      "outputs": [
        {
          "internalType": "address[]",
          "name": "",
          "type": "address[]"
        }
      ],
      "stateMutability": "view",
      "type": "function"
    },
    {
      "inputs": [],
      "name": "getTotalManagementFees",
      "outputs": [
        {
          "internalType": "uint256",
          "name": "",
          "type": "uint256"
        }
      ],
      "stateMutability": "view",
      "type": "function"
    },
    {
      "inputs": [],
      "name": "getUSDCAddress",
      "outputs": [
        {
          "internalType": "address",
          "name": "",
          "type": "address"
        }
      ],
      "stateMutability": "view",
      "type": "function"
    },
    {
      "inputs": [
        {
          "internalType": "uint256",
          "name": "_initialUSDCAmount",
          "type": "uint256"
        }
      ],
      "name": "initializeFund",
      "outputs": [],
      "stateMutability": "nonpayable",
      "type": "function"
    },
    {
      "inputs": [
        {
          "internalType": "uint256",
          "name": "_usdcAmount",
          "type": "uint256"
        }
      ],
      "name": "invest",
      "outputs": [],
      "stateMutability": "nonpayable",
      "type": "function"
    },
    {
      "inputs": [],
      "name": "isInitialized",
      "outputs": [
        {
          "internalType": "bool",
          "name": "",
          "type": "bool"
        }
      ],
      "stateMutability": "view",
      "type": "function"
    },
    {
      "inputs": [],
      "name": "lastFeeCollection",
      "outputs": [
        {
          "internalType": "uint256",
          "name": "",
          "type": "uint256"
        }
      ],
      "stateMutability": "view",
      "type": "function"
    },
    {
      "inputs": [],
      "name": "managementFeeRate",
      "outputs": [
        {
          "internalType": "uint256",
          "name": "",
          "type": "uint256"
        }
      ],
      "stateMutability": "view",
      "type": "function"
    },
    {
      "inputs": [
        {
          "internalType": "address",
          "name": "",
          "type": "address"
        }
      ],
      "name": "mfcTokenRatio",
      "outputs": [
        {
          "internalType": "uint256",
          "name": "",
          "type": "uint256"
        }
      ],
      "stateMutability": "view",
      "type": "function"
    },
    {
      "inputs": [],
      "name": "mfcUSDCAmount",
      "outputs": [
        {
          "internalType": "uint256",
          "name": "",
          "type": "uint256"
        }
      ],
      "stateMutability": "view",
      "type": "function"
    },
    {
      "inputs": [],
      "name": "minimumInvestment",
      "outputs": [
        {
          "internalType": "uint256",
          "name": "",
          "type": "uint256"
        }
      ],
      "stateMutability": "view",
      "type": "function"
    },
    {
      "inputs": [],
      "name": "minimumRedemption",
      "outputs": [
        {
          "internalType": "uint256",
          "name": "",
          "type": "uint256"
        }
      ],
      "stateMutability": "view",
      "type": "function"
    },
    {
      "inputs": [],
      "name": "owner",
      "outputs": [
        {
          "internalType": "address",
          "name": "",
          "type": "address"
        }
      ],
      "stateMutability": "view",
      "type": "function"
    },
    {
      "inputs": [],
      "name": "pause",
      "outputs": [],
      "stateMutability": "nonpayable",
      "type": "function"
    },
    {
      "inputs": [],
      "name": "paused",
      "outputs": [
        {
          "internalType": "bool",
          "name": "",
          "type": "bool"
        }
      ],
      "stateMutability": "view",
      "type": "function"
    },
    {
      "inputs": [],
      "name": "priceOracle",
      "outputs": [
        {
          "internalType": "contract ChainlinkPriceOracle",
          "name": "",
          "type": "address"
        }
      ],
      "stateMutability": "view",
      "type": "function"
    },
    {
      "inputs": [
        {
          "internalType": "uint256",
          "name": "_shareAmount",
          "type": "uint256"
        }
      ],
      "name": "redeem",
      "outputs": [],
      "stateMutability": "nonpayable",
      "type": "function"
    },
    {
      "inputs": [],
      "name": "renounceOwnership",
      "outputs": [],
      "stateMutability": "nonpayable",
      "type": "function"
    },
    {
      "inputs": [
        {
          "internalType": "address",
          "name": "_usdcToken",
          "type": "address"
        }
      ],
      "name": "setUSDCToken",
      "outputs": [],
      "stateMutability": "nonpayable",
      "type": "function"
    },
    {
      "inputs": [],
      "name": "shareToken",
      "outputs": [
        {
          "internalType": "contract FundShareToken",
          "name": "",
          "type": "address"
        }
      ],
      "stateMutability": "view",
      "type": "function"
    },
    {
      "inputs": [
        {
          "internalType": "uint256",
          "name": "",
          "type": "uint256"
        }
      ],
      "name": "supportedTokens",
      "outputs": [
        {
          "internalType": "address",
          "name": "",
          "type": "address"
        }
      ],
      "stateMutability": "view",
      "type": "function"
    },
    {
      "inputs": [],
      "name": "totalManagementFeesCollected",
      "outputs": [
        {
          "internalType": "uint256",
          "name": "",
          "type": "uint256"
        }
      ],
      "stateMutability": "view",
      "type": "function"
    },
    {
      "inputs": [
        {
          "internalType": "address",
          "name": "newOwner",
          "type": "address"
        }
      ],
      "name": "transferOwnership",
      "outputs": [],
      "stateMutability": "nonpayable",
      "type": "function"
    },
    {
      "inputs": [],
      "name": "uniswapIntegration",
      "outputs": [
        {
          "internalType": "contract UniswapIntegration",
          "name": "",
          "type": "address"
        }
      ],
      "stateMutability": "view",
      "type": "function"
    },
    {
      "inputs": [],
      "name": "unpause",
      "outputs": [],
      "stateMutability": "nonpayable",
      "type": "function"
    },
    {
      "inputs": [],
      "name": "usdcToken",
      "outputs": [
        {
          "internalType": "address",
          "name": "",
          "type": "address"
        }
      ],
      "stateMutability": "view",
      "type": "function"
    }
  ],
  "bytecode": "0x60e06040526305f5e1006007556305f5e10060085560646009553480156200002657600080fd5b506040516200442d3803806200442d8339810160408190526200004991620002f4565b836001600160a01b0381166200007a57604051631e4fbdf760e01b8152600060048201526024015b60405180910390fd5b6200008581620001ac565b506000805460ff60a01b19169055600180556001600160a01b038216620000ef5760405162461bcd60e51b815260206004820152601460248201527f496e76616c6964207072696365206f7261636c65000000000000000000000000604482015260640162000071565b6001600160a01b038116620001475760405162461bcd60e51b815260206004820152601b60248201527f496e76616c696420756e697377617020696e746567726174696f6e0000000000604482015260640162000071565b8585306040516200015890620001fc565b6200016693929190620003cc565b604051809103906000f08015801562000183573d6000803e3d6000fd5b506001600160a01b0390811660805291821660a0521660c052600955505042600a55506200040e565b600080546001600160a01b038381166001600160a01b0319831681178455604051919092169283917f8be0079c531659141344cd1fd0a4f28419497f9722a3daafe3b4186f6b6457e09190a35050565b6118728062002bbb83390190565b634e487b7160e01b600052604160045260246000fd5b60005b838110156200023d57818101518382015260200162000223565b50506000910152565b600082601f8301126200025857600080fd5b81516001600160401b03808211156200027557620002756200020a565b604051601f8301601f19908116603f01168101908282118183101715620002a057620002a06200020a565b81604052838152866020858801011115620002ba57600080fd5b620002cd84602083016020890162000220565b9695505050505050565b80516001600160a01b0381168114620002ef57600080fd5b919050565b60008060008060008060c087890312156200030e57600080fd5b86516001600160401b03808211156200032657600080fd5b620003348a838b0162000246565b975060208901519150808211156200034b57600080fd5b506200035a89828a0162000246565b9550506200036b60408801620002d7565b9350606087015192506200038260808801620002d7565b91506200039260a08801620002d7565b90509295509295509295565b60008151808452620003b881602086016020860162000220565b601f01601f19169290920160200192915050565b606081526000620003e160608301866200039e565b8281036020840152620003f581866200039e565b91505060018060a01b0383166040830152949350505050565b60805160a05160c05161271b620004a06000396000818161047e01528181611a26015261225201526000818161032601526118b80152600081816103c401528181610af801528181610da201528181610e5601528181610edc0152818161115f0152818161125301528181611468015281816115d00152818161179301528181611b3b0152611bc1015261271b6000f3fe608060405234801561001057600080fd5b506004361061025e5760003560e01c80638adb113111610146578063b8622918116100c3578063dca1b7a511610087578063dca1b7a5146104eb578063e1f1c4a7146104f5578063e4a2bdaf146104fe578063f0c84dfb14610507578063f2fde38b1461051a578063f5ed3c351461052d57600080fd5b8063b8622918146104a0578063bc06e81d146104a8578063c6255626146104b0578063d3c7c2c7146104c3578063db006a75146104d857600080fd5b806391a543b61161010a57806391a543b6146104445780639c016ffd1461044d5780639e16c70914610455578063a24e986414610468578063a4b49ae31461047957600080fd5b80638adb1131146103f65780638da5cb5b146104195780638f1dcf121461042a5780638f50ea921461043257806390982ba41461043b57600080fd5b80632b112e49116101df57806353c5347a116101a357806353c5347a146103a45780635c975abb146103ad5780636c9fa59e146103bf578063715018a6146103e657806376275425146103a45780638456cb59146103ee57600080fd5b80632b112e491461035b5780632b925b2514610363578063392e53cd1461036c5780633f4ba83a146103895780634d8e3d3b1461039157600080fd5b806317a9e1981161022657806317a9e198146102e557806319428111146102ee57806325d690fa146103015780632630c12f146103215780632afcf4801461034857600080fd5b806303be71151461026357806304eb93dc146102835780630f5a9d011461029d57806311eac855146102b257806311ebc619146102dd575b600080fd5b61026b610552565b60405161027a9392919061244b565b60405180910390f35b61028f64e8d4a5100081565b60405190815260200161027a565b6102b06102ab3660046124c7565b6106d1565b005b6002546102c5906001600160a01b031681565b6040516001600160a01b03909116815260200161027a565b61028f61074d565b61028f600a5481565b6102b06102fc3660046124e2565b6108c8565b61028f61030f3660046124c7565b60046020526000908152604090205481565b6102c57f000000000000000000000000000000000000000000000000000000000000000081565b6102b06103563660046124e2565b610bb1565b61028f610e51565b61028f60075481565b6006546103799060ff1681565b604051901515815260200161027a565b6102b0610f8f565b6102b061039f3660046124fb565b610fa1565b61028f61138881565b600054600160a01b900460ff16610379565b6102c57f000000000000000000000000000000000000000000000000000000000000000081565b6102b0611122565b6102b0611134565b6103fe611144565b6040805193845260208401929092529082015260600161027a565b6000546001600160a01b03166102c5565b600b5461028f565b61028f60085481565b61028f60055481565b61028f60095481565b6102b06111e6565b61028f6104633660046124e2565b6111f6565b61028f69d3c21bcecceda100000081565b6102c57f000000000000000000000000000000000000000000000000000000000000000081565b61028f61122a565b6102c561130e565b6102c56104be3660046124e2565b61136e565b6104cb611398565b60405161027a9190612525565b6102b06104e63660046124e2565b6113fa565b61028f6201518081565b61028f61271081565b61028f600b5481565b61028f6105153660046124e2565b6116b8565b6102b06105283660046124c7565b611751565b61053561178c565b60408051938452602084019290925215159082015260600161027a565b606080600060038054905067ffffffffffffffff81111561057557610575612538565b60405190808252806020026020018201604052801561059e578160200160208202803683370190505b5060035490935067ffffffffffffffff8111156105bd576105bd612538565b6040519080825280602002602001820160405280156105e6578160200160208202803683370190505b50915060005b6003548110156106c657600381815481106106095761060961254e565b9060005260206000200160009054906101000a90046001600160a01b03168482815181106106395761063961254e565b60200260200101906001600160a01b031690816001600160a01b03168152505060046000600383815481106106705761067061254e565b60009182526020808320909101546001600160a01b0316835282019290925260400190205483518490839081106106a9576106a961254e565b6020908102919091010152806106be8161257a565b9150506105ec565b506005549050909192565b6106d9611830565b6001600160a01b03811661072b5760405162461bcd60e51b8152602060048201526014602482015273496e76616c69642055534443206164647265737360601b60448201526064015b60405180910390fd5b600280546001600160a01b0319166001600160a01b0392909216919091179055565b60065460009060ff166107725760405162461bcd60e51b815260040161072290612593565b600061077c61130e565b6040516370a0823160e01b81523060048201526001600160a01b0391909116906370a0823190602401602060405180830381865afa1580156107c2573d6000803e3d6000fd5b505050506040513d601f19601f820116820180604052508101906107e691906125c1565b90506000805b6003548110156108b65760006003828154811061080b5761080b61254e565b60009182526020822001546040516370a0823160e01b81523060048201526001600160a01b03909116925082906370a0823190602401602060405180830381865afa15801561085e573d6000803e3d6000fd5b505050506040513d601f19601f8201168201806040525081019061088291906125c1565b905080156108a157610894828261185d565b61089e90856125da565b93505b505080806108ae9061257a565b9150506107ec565b506108c181836125da565b9250505090565b6108d0611830565b60065460ff161561091e5760405162461bcd60e51b8152602060048201526018602482015277119d5b9908185b1c9958591e481a5b9a5d1a585b1a5e995960421b6044820152606401610722565b64e8d4a5100081146109725760405162461bcd60e51b815260206004820152601e60248201527f496e697469616c20616d6f756e74206d75737420626520314d205553444300006044820152606401610722565b6003546004146109d05760405162461bcd60e51b8152602060048201526024808201527f4d75737420686176652065786163746c79203420737570706f7274656420746f6044820152636b656e7360e01b6064820152608401610722565b6109ef3330836109de61130e565b6001600160a01b031692919061198e565b6000612710610a00611388846125ed565b610a0a9190612604565b90506000610a19600483612604565b905060005b600354811015610aa357600060038281548110610a3d57610a3d61254e565b60009182526020822001546001600160a01b03169150610a5d82856119fb565b9050610a7369d3c21bcecceda100000082612604565b6001600160a01b039092166000908152600460205260409020919091555080610a9b8161257a565b915050610a1e565b50610aba69d3c21bcecceda10000006127106125ed565b610ac6611388856125ed565b610ad09190612604565b6005556040516340c10f1960e01b815233600482015269d3c21bcecceda100000060248201527f00000000000000000000000000000000000000000000000000000000000000006001600160a01b0316906340c10f1990604401600060405180830381600087803b158015610b4457600080fd5b505af1158015610b58573d6000803e3d6000fd5b50506006805460ff1916600117905550506040805169d3c21bcecceda10000008152602081018590527f37d36da36de67b5a5c7adfc8ce80c29e2e220878ad7cfc48d23df0ca7197f495910160405180910390a1505050565b610bb9611ac8565b610bc1611af2565b60065460ff16610be35760405162461bcd60e51b815260040161072290612593565b600754811015610c355760405162461bcd60e51b815260206004820152601860248201527f496e766573746d656e742062656c6f77206d696e696d756d00000000000000006044820152606401610722565b610c3d611b1d565b6000610c4761122a565b905060008111610c8d5760405162461bcd60e51b8152602060048201526011602482015270496e76616c6964204d46432076616c756560781b6044820152606401610722565b600081610ca284670de0b6b3a76400006125ed565b610cac9190612604565b905060008111610cf35760405162461bcd60e51b8152602060048201526012602482015271125b9d985b1a5908135190c8185b5bdd5b9d60721b6044820152606401610722565b610d013330856109de61130e565b6000612710610d12611388866125ed565b610d1c9190612604565b90506000610d2b600483612604565b905060005b600354811015610d8557600060038281548110610d4f57610d4f61254e565b6000918252602090912001546001600160a01b03169050610d7081846119fb565b50508080610d7d9061257a565b915050610d30565b506040516340c10f1960e01b8152336004820152602481018490527f00000000000000000000000000000000000000000000000000000000000000006001600160a01b0316906340c10f1990604401600060405180830381600087803b158015610dee57600080fd5b505af1158015610e02573d6000803e3d6000fd5b505060408051888152602081018790523393507f8514357b17ccbde354811f827b94585a7ab01b4034aa86a807b7cc2c100b7be892500160405180910390a250505050610e4e60018055565b50565b6000807f00000000000000000000000000000000000000000000000000000000000000006001600160a01b03166318160ddd6040518163ffffffff1660e01b8152600401602060405180830381865afa158015610eb2573d6000803e3d6000fd5b505050506040513d601f19601f82011682018060405250810190610ed691906125c1565b905060007f00000000000000000000000000000000000000000000000000000000000000006001600160a01b03166370a08231610f1b6000546001600160a01b031690565b6040516001600160e01b031960e084901b1681526001600160a01b039091166004820152602401602060405180830381865afa158015610f5f573d6000803e3d6000fd5b505050506040513d601f19601f82011682018060405250810190610f8391906125c1565b90506108c18183612626565b610f97611830565b610f9f611db6565b565b610fa9611830565b6001600160a01b038216610ff75760405162461bcd60e51b8152602060048201526015602482015274496e76616c696420746f6b656e206164647265737360581b6044820152606401610722565b60065460ff16156110455760405162461bcd60e51b8152602060048201526018602482015277119d5b9908185b1c9958591e481a5b9a5d1a585b1a5e995960421b6044820152606401610722565b6003546004116110975760405162461bcd60e51b815260206004820152601a60248201527f4d6178696d756d203420746f6b656e7320737570706f727465640000000000006044820152606401610722565b600380546001810182556000919091527fc2575a0e9e593c00f959f8c92f12db2869c3395a3b0502d05e2516446f71f85b0180546001600160a01b0319166001600160a01b03841690811790915560408051918252602082018390527f42ab02678fc0e00811bdd0bb4cd9f907f9eb3ff75206b9e4f6cb4f61eb6fe4fc910160405180910390a15050565b61112a611830565b610f9f6000611e0b565b61113c611830565b610f9f611e5b565b600080600061115161074d565b925061115b61122a565b91507f00000000000000000000000000000000000000000000000000000000000000006001600160a01b03166318160ddd6040518163ffffffff1660e01b8152600401602060405180830381865afa1580156111bb573d6000803e3d6000fd5b505050506040513d601f19601f820116820180604052508101906111df91906125c1565b9050909192565b6111ee611830565b610f9f611b1d565b60065460009060ff1661121b5760405162461bcd60e51b815260040161072290612593565b61122482611e9e565b92915050565b60065460009060ff1661124f5760405162461bcd60e51b815260040161072290612593565b60007f00000000000000000000000000000000000000000000000000000000000000006001600160a01b03166318160ddd6040518163ffffffff1660e01b8152600401602060405180830381865afa1580156112af573d6000803e3d6000fd5b505050506040513d601f19601f820116820180604052508101906112d391906125c1565b9050806000036112e557600091505090565b60006112ef61074d565b90508161130482670de0b6b3a76400006125ed565b6108c19190612604565b6002546000906001600160a01b031661135e5760405162461bcd60e51b81526020600482015260126024820152711554d110c81d1bdad95b881b9bdd081cd95d60721b6044820152606401610722565b506002546001600160a01b031690565b6003818154811061137e57600080fd5b6000918252602090912001546001600160a01b0316905081565b606060038054806020026020016040519081016040528092919081815260200182805480156113f057602002820191906000526020600020905b81546001600160a01b031681526001909101906020018083116113d2575b5050505050905090565b611402611ac8565b61140a611af2565b600081116114515760405162461bcd60e51b8152602060048201526014602482015273125b9d985b1a59081cda185c9948185b5bdd5b9d60621b6044820152606401610722565b6040516370a0823160e01b815233600482015281907f00000000000000000000000000000000000000000000000000000000000000006001600160a01b0316906370a0823190602401602060405180830381865afa1580156114b7573d6000803e3d6000fd5b505050506040513d601f19601f820116820180604052508101906114db91906125c1565b101561151f5760405162461bcd60e51b8152602060048201526013602482015272496e73756666696369656e742073686172657360681b6044820152606401610722565b611527611b1d565b600061153282611e9e565b90506008548110156115865760405162461bcd60e51b815260206004820152601860248201527f526564656d7074696f6e2062656c6f77206d696e696d756d00000000000000006044820152606401610722565b60006127106009548361159991906125ed565b6115a39190612604565b905060006115b18284612626565b604051632770a7eb60e21b8152336004820152602481018690529091507f00000000000000000000000000000000000000000000000000000000000000006001600160a01b031690639dc29fac90604401600060405180830381600087803b15801561161c57600080fd5b505af1158015611630573d6000803e3d6000fd5b5050505061163d84611f44565b61165a338261164a61130e565b6001600160a01b03169190612038565b81600b600082825461166c91906125da565b9091555050604080518581526020810183905233917feebddeddf4ae1ee54a48517af27958e7666d69c7ba2e3e7c2b0ff87ef5f4491e910160405180910390a2505050610e4e60018055565b60065460009060ff166116dd5760405162461bcd60e51b815260040161072290612593565b60006116e761122a565b90506000811161172d5760405162461bcd60e51b8152602060048201526011602482015270496e76616c6964204d46432076616c756560781b6044820152606401610722565b8061174084670de0b6b3a76400006125ed565b61174a9190612604565b9392505050565b611759611830565b6001600160a01b03811661178357604051631e4fbdf760e01b815260006004820152602401610722565b610e4e81611e0b565b60008060007f00000000000000000000000000000000000000000000000000000000000000006001600160a01b03166318160ddd6040518163ffffffff1660e01b8152600401602060405180830381865afa1580156117ef573d6000803e3d6000fd5b505050506040513d601f19601f8201168201806040525081019061181391906125c1565b600654909469d3c21bcecceda1000000945060ff90911692509050565b6000546001600160a01b03163314610f9f5760405163118cdaa760e01b8152336004820152602401610722565b60008160000361186f57506000611224565b61187761130e565b6001600160a01b0316836001600160a01b031603611896575080611224565b6040516302c68be360e31b81526001600160a01b0384811660048301526000917f0000000000000000000000000000000000000000000000000000000000000000909116906316345f18906024016040805180830381865afa158015611900573d6000803e3d6000fd5b505050506040513d601f19601f820116820180604052508101906119249190612639565b5090506000811361196d5760405162461bcd60e51b8152602060048201526013602482015272496e76616c696420746f6b656e20707269636560681b6044820152606401610722565b6305f5e10061197c82856125ed565b6119869190612604565b949350505050565b6040516001600160a01b0384811660248301528381166044830152606482018390526119f59186918216906323b872dd906084015b604051602081830303815290604052915060e01b6020820180516001600160e01b03838183161783525050505061206e565b50505050565b6000611a0561130e565b6001600160a01b0316836001600160a01b031603611a24575080611224565b7f00000000000000000000000000000000000000000000000000000000000000006001600160a01b0316638ebb36c7611a5b61130e565b858530610bb86040518663ffffffff1660e01b8152600401611a8195949392919061265d565b6020604051808303816000875af1925050508015611abc575060408051601f3d908101601f19168201909252611ab9918101906125c1565b60015b61174a57506000611224565b600260015403611aeb57604051633ee5aeb560e01b815260040160405180910390fd5b6002600155565b600054600160a01b900460ff1615610f9f5760405163d93c066560e01b815260040160405180910390fd5b62015180600a54611b2e91906125da565b421015611b3757565b60007f00000000000000000000000000000000000000000000000000000000000000006001600160a01b03166318160ddd6040518163ffffffff1660e01b8152600401602060405180830381865afa158015611b97573d6000803e3d6000fd5b505050506040513d601f19601f82011682018060405250810190611bbb91906125c1565b905060007f00000000000000000000000000000000000000000000000000000000000000006001600160a01b03166370a08231611c006000546001600160a01b031690565b6040516001600160e01b031960e084901b1681526001600160a01b039091166004820152602401602060405180830381865afa158015611c44573d6000803e3d6000fd5b505050506040513d601f19601f82011682018060405250810190611c6891906125c1565b90506000611c768284612626565b905080600003611c8957505042600a5550565b600061271060095483611c9c91906125ed565b611ca69190612604565b905080156119f5576000611cb861130e565b6040516370a0823160e01b81523060048201526001600160a01b0391909116906370a0823190602401602060405180830381865afa158015611cfe573d6000803e3d6000fd5b505050506040513d601f19601f82011682018060405250810190611d2291906125c1565b90506000828210611d34575081611d4f565b50806000611d428285612626565b9050611d4d816120d1565b505b82600b6000828254611d6191906125da565b909155505042600a819055600b546040805186815260208101939093528201527f592dfd1d14711f46e390c055b7775acb1117b4ff7e10c76541d1cd276d60e64a9060600160405180910390a1505050505050565b611dbe612202565b6000805460ff60a01b191690557f5db9ee0a495bf2e6ff9c91a7834c1ba4fdd244a5e8aa4e537bd38aeae4b073aa335b6040516001600160a01b03909116815260200160405180910390a1565b600080546001600160a01b038381166001600160a01b0319831681178455604051919092169283917f8be0079c531659141344cd1fd0a4f28419497f9722a3daafe3b4186f6b6457e09190a35050565b611e63611af2565b6000805460ff60a01b1916600160a01b1790557f62e78cea01bee320cd4e420270b5ea74000d11b0c9f74754ebdbfc544b05a258611dee3390565b60008060055483611eaf91906125ed565b90506000805b600354811015611f3957600060038281548110611ed457611ed461254e565b60009182526020808320909101546001600160a01b031680835260049091526040822054909250611f0590886125ed565b90508015611f2457611f17828261185d565b611f2190856125da565b93505b50508080611f319061257a565b915050611eb5565b5061198681836125da565b60005b60035481101561203457600060038281548110611f6657611f6661254e565b60009182526020808320909101546001600160a01b031680835260049091526040822054909250611f9790856125ed565b9050801561201f576040516370a0823160e01b81523060048201526000906001600160a01b038416906370a0823190602401602060405180830381865afa158015611fe6573d6000803e3d6000fd5b505050506040513d601f19601f8201168201806040525081019061200a91906125c1565b905081811061201d5761201d838361222c565b505b5050808061202c9061257a565b915050611f47565b5050565b6040516001600160a01b0383811660248301526044820183905261206991859182169063a9059cbb906064016119c3565b505050565b60006120836001600160a01b03841683612300565b905080516000141580156120a85750808060200190518101906120a69190612694565b155b1561206957604051635274afe760e01b81526001600160a01b0384166004820152602401610722565b6000805b600354811080156120e557508282105b15612069576000600382815481106120ff576120ff61254e565b60009182526020822001546040516370a0823160e01b81523060048201526001600160a01b03909116925082906370a0823190602401602060405180830381865afa158015612152573d6000803e3d6000fd5b505050506040513d601f19601f8201168201806040525081019061217691906125c1565b905080156121ed57600061218a8587612626565b90506000612198848461185d565b905080156121ea5782828211156121c157816121b484866125ed565b6121be9190612604565b90505b80156121e8576121d1858261222c565b6121db858261185d565b6121e590886125da565b96505b505b50505b505080806121fa9061257a565b9150506120d5565b600054600160a01b900460ff16610f9f57604051638dfc202b60e01b815260040160405180910390fd5b61223461130e565b6001600160a01b0316826001600160a01b031603612250575050565b7f00000000000000000000000000000000000000000000000000000000000000006001600160a01b0316638ebb36c78361228861130e565b8430610bb86040518663ffffffff1660e01b81526004016122ad95949392919061265d565b6020604051808303816000875af19250505080156122e8575060408051601f3d908101601f191682019092526122e5918101906125c1565b60015b612069576120346001600160a01b0383163383612038565b606061174a8383600084600080856001600160a01b0316848660405161232691906126b6565b60006040518083038185875af1925050503d8060008114612363576040519150601f19603f3d011682016040523d82523d6000602084013e612368565b606091505b5091509150612378868383612382565b9695505050505050565b60608261239757612392826123de565b61174a565b81511580156123ae57506001600160a01b0384163b155b156123d757604051639996b31560e01b81526001600160a01b0385166004820152602401610722565b508061174a565b8051156123ee5780518082602001fd5b604051630a12f52160e11b815260040160405180910390fd5b600081518084526020808501945080840160005b838110156124405781516001600160a01b03168752958201959082019060010161241b565b509495945050505050565b60608152600061245e6060830186612407565b82810360208481019190915285518083528682019282019060005b8181101561249557845183529383019391830191600101612479565b5050809350505050826040830152949350505050565b80356001600160a01b03811681146124c257600080fd5b919050565b6000602082840312156124d957600080fd5b61174a826124ab565b6000602082840312156124f457600080fd5b5035919050565b6000806040838503121561250e57600080fd5b612517836124ab565b946020939093013593505050565b60208152600061174a6020830184612407565b634e487b7160e01b600052604160045260246000fd5b634e487b7160e01b600052603260045260246000fd5b634e487b7160e01b600052601160045260246000fd5b60006001820161258c5761258c612564565b5060010190565b602080825260149082015273119d5b99081b9bdd081a5b9a5d1a585b1a5e995960621b604082015260600190565b6000602082840312156125d357600080fd5b5051919050565b8082018082111561122457611224612564565b808202811582820484141761122457611224612564565b60008261262157634e487b7160e01b600052601260045260246000fd5b500490565b8181038181111561122457611224612564565b6000806040838503121561264c57600080fd5b505080516020909101519092909150565b6001600160a01b03958616815293851660208501526040840192909252909216606082015262ffffff909116608082015260a00190565b6000602082840312156126a657600080fd5b8151801515811461174a57600080fd5b6000825160005b818110156126d757602081860181015185830152016126bd565b50600092019182525091905056fea2646970667358221220cf54f05d014d911a54fa6bd6a00c734766ae9d1cc0dbef5d58a72ed741b77c1164736f6c6343000814003360806040523480156200001157600080fd5b506040516200187238038062001872833981016040819052620000349162000218565b808383600362000045838262000334565b50600462000054828262000334565b5050506001600160a01b0381166200008757604051631e4fbdf760e01b8152600060048201526024015b60405180910390fd5b620000928162000101565b506005805460ff60a01b191690556001600160a01b038116620000f85760405162461bcd60e51b815260206004820152601560248201527f496e76616c6964206f776e65722061646472657373000000000000000000000060448201526064016200007e565b50505062000400565b600580546001600160a01b038381166001600160a01b0319831681179093556040519116919082907f8be0079c531659141344cd1fd0a4f28419497f9722a3daafe3b4186f6b6457e090600090a35050565b634e487b7160e01b600052604160045260246000fd5b600082601f8301126200017b57600080fd5b81516001600160401b038082111562000198576200019862000153565b604051601f8301601f19908116603f01168101908282118183101715620001c357620001c362000153565b81604052838152602092508683858801011115620001e057600080fd5b600091505b83821015620002045785820183015181830184015290820190620001e5565b600093810190920192909252949350505050565b6000806000606084860312156200022e57600080fd5b83516001600160401b03808211156200024657600080fd5b620002548783880162000169565b945060208601519150808211156200026b57600080fd5b506200027a8682870162000169565b604086015190935090506001600160a01b03811681146200029a57600080fd5b809150509250925092565b600181811c90821680620002ba57607f821691505b602082108103620002db57634e487b7160e01b600052602260045260246000fd5b50919050565b601f8211156200032f57600081815260208120601f850160051c810160208610156200030a5750805b601f850160051c820191505b818110156200032b5782815560010162000316565b5050505b505050565b81516001600160401b0381111562000350576200035062000153565b6200036881620003618454620002a5565b84620002e1565b602080601f831160018114620003a05760008415620003875750858301515b600019600386901b1c1916600185901b1785556200032b565b600085815260208120601f198616915b82811015620003d157888601518255948401946001909101908401620003b0565b5085821015620003f05787850151600019600388901b60f8161c191681555b5050505050600190811b01905550565b61146280620004106000396000f3fe608060405234801561001057600080fd5b506004361061014d5760003560e01c80635c975abb116100c357806395d89b411161007c57806395d89b41146102dc5780639dc29fac146102e4578063a9059cbb146102f7578063bd097e211461030a578063dd62ed3e1461031d578063f2fde38b1461035657600080fd5b80635c975abb14610259578063685731071461026b57806370a082311461027e578063715018a6146102a75780638456cb59146102af5780638da5cb5b146102b757600080fd5b806323b872dd1161011557806323b872dd146101f4578063313ce56714610207578063378d058d146102165780633f4ba83a1461022b57806340c10f191461023357806359144baa1461024657600080fd5b806306fdde0314610152578063095ea7b314610170578063097cd9bf146101935780630ceb1f67146101c057806318160ddd146101e2575b600080fd5b61015a610369565b604051610167919061106c565b60405180910390f35b61018361017e3660046110d6565b6103fb565b6040519015158152602001610167565b61019b610415565b604080519384526001600160a01b039092166020840152151590820152606001610167565b6101836101ce366004611100565b6006546001600160a01b0391821691161490565b6002545b604051908152602001610167565b61018361020236600461111b565b61044e565b60405160128152602001610167565b610229610224366004611157565b6104bb565b005b610229610577565b6102296102413660046110d6565b610589565b610229610254366004611100565b6106cb565b600554600160a01b900460ff16610183565b6102296102793660046111bc565b610773565b6101e661028c366004611100565b6001600160a01b031660009081526020819052604090205490565b6102296109c4565b6102296109d6565b6005546001600160a01b03165b6040516001600160a01b039091168152602001610167565b61015a6109e6565b6102296102f23660046110d6565b6109f5565b6101836103053660046110d6565b610ad5565b6006546102c4906001600160a01b031681565b6101e661032b366004611228565b6001600160a01b03918216600090815260016020908152604080832093909416825291909152205490565b610229610364366004611100565b610b3b565b6060600380546103789061125b565b80601f01602080910402602001604051908101604052809291908181526020018280546103a49061125b565b80156103f15780601f106103c6576101008083540402835291602001916103f1565b820191906000526020600020905b8154815290600101906020018083116103d457829003601f168201915b5050505050905090565b600033610409818585610b79565b60019150505b92915050565b600080600061042360025490565b6006546001600160a01b031661044360055460ff600160a01b9091041690565b925092509250909192565b600554600090600160a01b900460ff16156104a85760405162461bcd60e51b8152602060048201526015602482015274151bdad95b881d1c985b9cd9995c881c185d5cd959605a1b60448201526064015b60405180910390fd5b6104b3848484610b8b565b949350505050565b600081116104db5760405162461bcd60e51b815260040161049f90611295565b6104e76012600a6113c4565b6104f3906127106113d3565b8111156105355760405162461bcd60e51b815260206004820152601060248201526f416d6f756e7420746f6f206c6172676560801b604482015260640161049f565b61053f3382610baf565b60405181815233907f3f2c9d57c068687834f0de942a9babb9e5acab57d516d3480a3c16ee165a42739060200160405180910390a250565b61057f610be9565b610587610c16565b565b6001600160a01b0382166105df5760405162461bcd60e51b815260206004820152601b60248201527f43616e6e6f74206d696e7420746f207a65726f20616464726573730000000000604482015260640161049f565b600081116105ff5760405162461bcd60e51b815260040161049f90611295565b6006546001600160a01b031633148061062257506005546001600160a01b031633145b61067a5760405162461bcd60e51b8152602060048201526024808201527f4f6e6c792066756e6420636f6e7472616374206f72206f776e65722063616e206044820152631b5a5b9d60e21b606482015260840161049f565b6106848282610baf565b816001600160a01b03167f3f2c9d57c068687834f0de942a9babb9e5acab57d516d3480a3c16ee165a4273826040516106bf91815260200190565b60405180910390a25050565b6106d3610be9565b6001600160a01b0381166107295760405162461bcd60e51b815260206004820152601d60248201527f496e76616c69642066756e6420636f6e74726163742061646472657373000000604482015260640161049f565b600680546001600160a01b0319166001600160a01b0383169081179091556040517f7c59c205345b66e434276baacaa662cf962814720625d59b2ef6a82b9fc84a6d90600090a250565b61077b610be9565b8281146107c35760405162461bcd60e51b8152602060048201526016602482015275082e4e4c2f2e640d8cadccee8d040dad2e6dac2e8c6d60531b604482015260640161049f565b826107ff5760405162461bcd60e51b815260206004820152600c60248201526b456d7074792061727261797360a01b604482015260640161049f565b60005b838110156109bd57600085858381811061081e5761081e6113ea565b90506020020160208101906108339190611100565b6001600160a01b0316036108895760405162461bcd60e51b815260206004820152601960248201527f496e76616c696420726563697069656e74206164647265737300000000000000604482015260640161049f565b600083838381811061089d5761089d6113ea565b90506020020135116108e25760405162461bcd60e51b815260206004820152600e60248201526d125b9d985b1a5908185b5bdd5b9d60921b604482015260640161049f565b61092a8585838181106108f7576108f76113ea565b905060200201602081019061090c9190611100565b84848481811061091e5761091e6113ea565b90506020020135610baf565b84848281811061093c5761093c6113ea565b90506020020160208101906109519190611100565b6001600160a01b03167f3f2c9d57c068687834f0de942a9babb9e5acab57d516d3480a3c16ee165a427384848481811061098d5761098d6113ea565b905060200201356040516109a391815260200190565b60405180910390a2806109b581611400565b915050610802565b5050505050565b6109cc610be9565b6105876000610c6b565b6109de610be9565b610587610cbd565b6060600480546103789061125b565b60008111610a155760405162461bcd60e51b815260040161049f90611295565b6006546001600160a01b0316331480610a3857506005546001600160a01b031633145b610a905760405162461bcd60e51b8152602060048201526024808201527f4f6e6c792066756e6420636f6e7472616374206f72206f776e65722063616e20604482015263313ab93760e11b606482015260840161049f565b610a9a8282610d00565b816001600160a01b03167ffd38818f5291bf0bb3a2a48aadc06ba8757865d1dabd804585338aab3009dcb6826040516106bf91815260200190565b600554600090600160a01b900460ff1615610b2a5760405162461bcd60e51b8152602060048201526015602482015274151bdad95b881d1c985b9cd9995c881c185d5cd959605a1b604482015260640161049f565b610b348383610d36565b9392505050565b610b43610be9565b6001600160a01b038116610b6d57604051631e4fbdf760e01b81526000600482015260240161049f565b610b7681610c6b565b50565b610b868383836001610d44565b505050565b600033610b99858285610e1a565b610ba4858585610e92565b506001949350505050565b6001600160a01b038216610bd95760405163ec442f0560e01b81526000600482015260240161049f565b610be560008383610eed565b5050565b6005546001600160a01b031633146105875760405163118cdaa760e01b815233600482015260240161049f565b610c1e611017565b6005805460ff60a01b191690557f5db9ee0a495bf2e6ff9c91a7834c1ba4fdd244a5e8aa4e537bd38aeae4b073aa335b6040516001600160a01b03909116815260200160405180910390a1565b600580546001600160a01b038381166001600160a01b0319831681179093556040519116919082907f8be0079c531659141344cd1fd0a4f28419497f9722a3daafe3b4186f6b6457e090600090a35050565b610cc5611041565b6005805460ff60a01b1916600160a01b1790557f62e78cea01bee320cd4e420270b5ea74000d11b0c9f74754ebdbfc544b05a258610c4e3390565b6001600160a01b038216610d2a57604051634b637e8f60e11b81526000600482015260240161049f565b610be582600083610eed565b600033610409818585610e92565b6001600160a01b038416610d6e5760405163e602df0560e01b81526000600482015260240161049f565b6001600160a01b038316610d9857604051634a1406b160e11b81526000600482015260240161049f565b6001600160a01b0380851660009081526001602090815260408083209387168352929052208290558015610e1457826001600160a01b0316846001600160a01b03167f8c5be1e5ebec7d5bd14f71427d1e84f3dd0314c0f7b2291e5b200ac8c7c3b92584604051610e0b91815260200190565b60405180910390a35b50505050565b6001600160a01b038381166000908152600160209081526040808320938616835292905220546000198114610e145781811015610e8357604051637dc7a0d960e11b81526001600160a01b0384166004820152602481018290526044810183905260640161049f565b610e1484848484036000610d44565b6001600160a01b038316610ebc57604051634b637e8f60e11b81526000600482015260240161049f565b6001600160a01b038216610ee65760405163ec442f0560e01b81526000600482015260240161049f565b610b868383835b6001600160a01b038316610f18578060026000828254610f0d9190611419565b90915550610f8a9050565b6001600160a01b03831660009081526020819052604090205481811015610f6b5760405163391434e360e21b81526001600160a01b0385166004820152602481018290526044810183905260640161049f565b6001600160a01b03841660009081526020819052604090209082900390555b6001600160a01b038216610fa657600280548290039055610fc5565b6001600160a01b03821660009081526020819052604090208054820190555b816001600160a01b0316836001600160a01b03167fddf252ad1be2c89b69c2b068fc378daa952ba7f163c4a11628f55a4df523b3ef8360405161100a91815260200190565b60405180910390a3505050565b600554600160a01b900460ff1661058757604051638dfc202b60e01b815260040160405180910390fd5b600554600160a01b900460ff16156105875760405163d93c066560e01b815260040160405180910390fd5b600060208083528351808285015260005b818110156110995785810183015185820160400152820161107d565b506000604082860101526040601f19601f8301168501019250505092915050565b80356001600160a01b03811681146110d157600080fd5b919050565b600080604083850312156110e957600080fd5b6110f2836110ba565b946020939093013593505050565b60006020828403121561111257600080fd5b610b34826110ba565b60008060006060848603121561113057600080fd5b611139846110ba565b9250611147602085016110ba565b9150604084013590509250925092565b60006020828403121561116957600080fd5b5035919050565b60008083601f84011261118257600080fd5b50813567ffffffffffffffff81111561119a57600080fd5b6020830191508360208260051b85010111156111b557600080fd5b9250929050565b600080600080604085870312156111d257600080fd5b843567ffffffffffffffff808211156111ea57600080fd5b6111f688838901611170565b9096509450602087013591508082111561120f57600080fd5b5061121c87828801611170565b95989497509550505050565b6000806040838503121561123b57600080fd5b611244836110ba565b9150611252602084016110ba565b90509250929050565b600181811c9082168061126f57607f821691505b60208210810361128f57634e487b7160e01b600052602260045260246000fd5b50919050565b6020808252818101527f416d6f756e74206d7573742062652067726561746572207468616e207a65726f604082015260600190565b634e487b7160e01b600052601160045260246000fd5b600181815b8085111561131b578160001904821115611301576113016112ca565b8085161561130e57918102915b93841c93908002906112e5565b509250929050565b6000826113325750600161040f565b8161133f5750600061040f565b8160018114611355576002811461135f5761137b565b600191505061040f565b60ff841115611370576113706112ca565b50506001821b61040f565b5060208310610133831016604e8410600b841016171561139e575081810a61040f565b6113a883836112e0565b80600019048211156113bc576113bc6112ca565b029392505050565b6000610b3460ff841683611323565b808202811582820484141761040f5761040f6112ca565b634e487b7160e01b600052603260045260246000fd5b600060018201611412576114126112ca565b5060010190565b8082018082111561040f5761040f6112ca56fea26469706673582212205677177f9e6d31ea9976a1faa0e0c0922069f74d9d218f15b91dda520a2acd3b64736f6c63430008140033",
  "linkReferences": {},
  "deployedLinkReferences": {}
}