{
  "_format": "hh-sol-artifact-1",
  "contractName": "FundShareToken",
  "sourceName": "contracts/FundShareToken.sol",
  "abi": [
    {
      "inputs": [
        {
          "internalType": "string",
          "name": "_name",
          "type": "string"
        },
        {
          "internalType": "string",
          "name": "_symbol",
          "type": "string"
        },
        {
          "internalType": "address",
          "name": "_initialOwner",
          "type": "address"
        }
      ],
      "stateMutability": "nonpayable",
      "type": "constructor"
    },
    {
      "inputs": [],
      "name": "ECDSAInvalidSignature",
      "type": "error"
    },
    {
      "inputs": [
        {
          "internalType": "uint256",
          "name": "length",
          "type": "uint256"
        }
      ],
      "name": "ECDSAInvalidSignatureLength",
      "type": "error"
    },
    {
      "inputs": [
        {
          "internalType": "bytes32",
          "name": "s",
          "type": "bytes32"
        }
      ],
      "name": "ECDSAInvalidSignatureS",
      "type": "error"
    },
    {
      "inputs": [
        {
          "internalType": "address",
          "name": "spender",
          "type": "address"
        },
        {
          "internalType": "uint256",
          "name": "allowance",
          "type": "uint256"
        },
        {
          "internalType": "uint256",
          "name": "needed",
          "type": "uint256"
        }
      ],
      "name": "ERC20InsufficientAllowance",
      "type": "error"
    },
    {
      "inputs": [
        {
          "internalType": "address",
          "name": "sender",
          "type": "address"
        },
        {
          "internalType": "uint256",
          "name": "balance",
          "type": "uint256"
        },
        {
          "internalType": "uint256",
          "name": "needed",
          "type": "uint256"
        }
      ],
      "name": "ERC20InsufficientBalance",
      "type": "error"
    },
    {
      "inputs": [
        {
          "internalType": "address",
          "name": "approver",
          "type": "address"
        }
      ],
      "name": "ERC20InvalidApprover",
      "type": "error"
    },
    {
      "inputs": [
        {
          "internalType": "address",
          "name": "receiver",
          "type": "address"
        }
      ],
      "name": "ERC20InvalidReceiver",
      "type": "error"
    },
    {
      "inputs": [
        {
          "internalType": "address",
          "name": "sender",
          "type": "address"
        }
      ],
      "name": "ERC20InvalidSender",
      "type": "error"
    },
    {
      "inputs": [
        {
          "internalType": "address",
          "name": "spender",
          "type": "address"
        }
      ],
      "name": "ERC20InvalidSpender",
      "type": "error"
    },
    {
      "inputs": [
        {
          "internalType": "uint256",
          "name": "deadline",
          "type": "uint256"
        }
      ],
      "name": "ERC2612ExpiredSignature",
      "type": "error"
    },
    {
      "inputs": [
        {
          "internalType": "address",
          "name": "signer",
          "type": "address"
        },
        {
          "internalType": "address",
          "name": "owner",
          "type": "address"
        }
      ],
      "name": "ERC2612InvalidSigner",
      "type": "error"
    },
    {
      "inputs": [
        {
          "internalType": "address",
          "name": "account",
          "type": "address"
        },
        {
          "internalType": "uint256",
          "name": "currentNonce",
          "type": "uint256"
        }
      ],
      "name": "InvalidAccountNonce",
      "type": "error"
    },
    {
      "inputs": [],
      "name": "InvalidShortString",
      "type": "error"
    },
    {
      "inputs": [
        {
          "internalType": "address",
          "name": "owner",
          "type": "address"
        }
      ],
      "name": "OwnableInvalidOwner",
      "type": "error"
    },
    {
      "inputs": [
        {
          "internalType": "address",
          "name": "account",
          "type": "address"
        }
      ],
      "name": "OwnableUnauthorizedAccount",
      "type": "error"
    },
    {
      "inputs": [
        {
          "internalType": "string",
          "name": "str",
          "type": "string"
        }
      ],
      "name": "StringTooLong",
      "type": "error"
    },
    {
      "anonymous": false,
      "inputs": [
        {
          "indexed": true,
          "internalType": "address",
          "name": "owner",
          "type": "address"
        },
        {
          "indexed": true,
          "internalType": "address",
          "name": "spender",
          "type": "address"
        },
        {
          "indexed": false,
          "internalType": "uint256",
          "name": "value",
          "type": "uint256"
        }
      ],
      "name": "Approval",
      "type": "event"
    },
    {
      "anonymous": false,
      "inputs": [],
      "name": "EIP712DomainChanged",
      "type": "event"
    },
    {
      "anonymous": false,
      "inputs": [
        {
          "indexed": true,
          "internalType": "address",
          "name": "oldFund",
          "type": "address"
        },
        {
          "indexed": true,
          "internalType": "address",
          "name": "newFund",
          "type": "address"
        }
      ],
      "name": "FundContractSet",
      "type": "event"
    },
    {
      "anonymous": false,
      "inputs": [
        {
          "indexed": true,
          "internalType": "address",
          "name": "previousOwner",
          "type": "address"
        },
        {
          "indexed": true,
          "internalType": "address",
          "name": "newOwner",
          "type": "address"
        }
      ],
      "name": "OwnershipTransferred",
      "type": "event"
    },
    {
      "anonymous": false,
      "inputs": [
        {
          "indexed": true,
          "internalType": "address",
          "name": "from",
          "type": "address"
        },
        {
          "indexed": false,
          "internalType": "uint256",
          "name": "amount",
          "type": "uint256"
        }
      ],
      "name": "SharesBurned",
      "type": "event"
    },
    {
      "anonymous": false,
      "inputs": [
        {
          "indexed": true,
          "internalType": "address",
          "name": "to",
          "type": "address"
        },
        {
          "indexed": false,
          "internalType": "uint256",
          "name": "amount",
          "type": "uint256"
        }
      ],
      "name": "SharesMinted",
      "type": "event"
    },
    {
      "anonymous": false,
      "inputs": [
        {
          "indexed": true,
          "internalType": "address",
          "name": "from",
          "type": "address"
        },
        {
          "indexed": true,
          "internalType": "address",
          "name": "to",
          "type": "address"
        },
        {
          "indexed": false,
          "internalType": "uint256",
          "name": "value",
          "type": "uint256"
        }
      ],
      "name": "Transfer",
      "type": "event"
    },
    {
      "inputs": [],
      "name": "DOMAIN_SEPARATOR",
      "outputs": [
        {
          "internalType": "bytes32",
          "name": "",
          "type": "bytes32"
        }
      ],
      "stateMutability": "view",
      "type": "function"
    },
    {
      "inputs": [
        {
          "internalType": "address",
          "name": "owner",
          "type": "address"
        },
        {
          "internalType": "address",
          "name": "spender",
          "type": "address"
        }
      ],
      "name": "allowance",
      "outputs": [
        {
          "internalType": "uint256",
          "name": "",
          "type": "uint256"
        }
      ],
      "stateMutability": "view",
      "type": "function"
    },
    {
      "inputs": [
        {
          "internalType": "address",
          "name": "spender",
          "type": "address"
        },
        {
          "internalType": "uint256",
          "name": "value",
          "type": "uint256"
        }
      ],
      "name": "approve",
      "outputs": [
        {
          "internalType": "bool",
          "name": "",
          "type": "bool"
        }
      ],
      "stateMutability": "nonpayable",
      "type": "function"
    },
    {
      "inputs": [
        {
          "internalType": "address",
          "name": "account",
          "type": "address"
        }
      ],
      "name": "balanceOf",
      "outputs": [
        {
          "internalType": "uint256",
          "name": "",
          "type": "uint256"
        }
      ],
      "stateMutability": "view",
      "type": "function"
    },
    {
      "inputs": [
        {
          "internalType": "address",
          "name": "from",
          "type": "address"
        },
        {
          "internalType": "uint256",
          "name": "amount",
          "type": "uint256"
        }
      ],
      "name": "burn",
      "outputs": [],
      "stateMutability": "nonpayable",
      "type": "function"
    },
    {
      "inputs": [],
      "name": "decimals",
      "outputs": [
        {
          "internalType": "uint8",
          "name": "",
          "type": "uint8"
        }
      ],
      "stateMutability": "pure",
      "type": "function"
    },
    {
      "inputs": [],
      "name": "eip712Domain",
      "outputs": [
        {
          "internalType": "bytes1",
          "name": "fields",
          "type": "bytes1"
        },
        {
          "internalType": "string",
          "name": "name",
          "type": "string"
        },
        {
          "internalType": "string",
          "name": "version",
          "type": "string"
        },
        {
          "internalType": "uint256",
          "name": "chainId",
          "type": "uint256"
        },
        {
          "internalType": "address",
          "name": "verifyingContract",
          "type": "address"
        },
        {
          "internalType": "bytes32",
          "name": "salt",
          "type": "bytes32"
        },
        {
          "internalType": "uint256[]",
          "name": "extensions",
          "type": "uint256[]"
        }
      ],
      "stateMutability": "view",
      "type": "function"
    },
    {
      "inputs": [],
      "name": "fundContract",
      "outputs": [
        {
          "internalType": "address",
          "name": "",
          "type": "address"
        }
      ],
      "stateMutability": "view",
      "type": "function"
    },
    {
      "inputs": [
        {
          "internalType": "address",
          "name": "account",
          "type": "address"
        }
      ],
      "name": "isFundContract",
      "outputs": [
        {
          "internalType": "bool",
          "name": "",
          "type": "bool"
        }
      ],
      "stateMutability": "view",
      "type": "function"
    },
    {
      "inputs": [
        {
          "internalType": "address",
          "name": "to",
          "type": "address"
        },
        {
          "internalType": "uint256",
          "name": "amount",
          "type": "uint256"
        }
      ],
      "name": "mint",
      "outputs": [],
      "stateMutability": "nonpayable",
      "type": "function"
    },
    {
      "inputs": [],
      "name": "name",
      "outputs": [
        {
          "internalType": "string",
          "name": "",
          "type": "string"
        }
      ],
      "stateMutability": "view",
      "type": "function"
    },
    {
      "inputs": [
        {
          "internalType": "address",
          "name": "owner",
          "type": "address"
        }
      ],
      "name": "nonces",
      "outputs": [
        {
          "internalType": "uint256",
          "name": "",
          "type": "uint256"
        }
      ],
      "stateMutability": "view",
      "type": "function"
    },
    {
      "inputs": [],
      "name": "owner",
      "outputs": [
        {
          "internalType": "address",
          "name": "",
          "type": "address"
        }
      ],
      "stateMutability": "view",
      "type": "function"
    },
    {
      "inputs": [
        {
          "internalType": "address",
          "name": "owner",
          "type": "address"
        },
        {
          "internalType": "address",
          "name": "spender",
          "type": "address"
        },
        {
          "internalType": "uint256",
          "name": "value",
          "type": "uint256"
        },
        {
          "internalType": "uint256",
          "name": "deadline",
          "type": "uint256"
        },
        {
          "internalType": "uint8",
          "name": "v",
          "type": "uint8"
        },
        {
          "internalType": "bytes32",
          "name": "r",
          "type": "bytes32"
        },
        {
          "internalType": "bytes32",
          "name": "s",
          "type": "bytes32"
        }
      ],
      "name": "permit",
      "outputs": [],
      "stateMutability": "nonpayable",
      "type": "function"
    },
    {
      "inputs": [],
      "name": "renounceOwnership",
      "outputs": [],
      "stateMutability": "nonpayable",
      "type": "function"
    },
    {
      "inputs": [
        {
          "internalType": "address",
          "name": "_fundContract",
          "type": "address"
        }
      ],
      "name": "setFundContract",
      "outputs": [],
      "stateMutability": "nonpayable",
      "type": "function"
    },
    {
      "inputs": [],
      "name": "symbol",
      "outputs": [
        {
          "internalType": "string",
          "name": "",
          "type": "string"
        }
      ],
      "stateMutability": "view",
      "type": "function"
    },
    {
      "inputs": [],
      "name": "totalSupply",
      "outputs": [
        {
          "internalType": "uint256",
          "name": "",
          "type": "uint256"
        }
      ],
      "stateMutability": "view",
      "type": "function"
    },
    {
      "inputs": [
        {
          "internalType": "address",
          "name": "to",
          "type": "address"
        },
        {
          "internalType": "uint256",
          "name": "value",
          "type": "uint256"
        }
      ],
      "name": "transfer",
      "outputs": [
        {
          "internalType": "bool",
          "name": "",
          "type": "bool"
        }
      ],
      "stateMutability": "nonpayable",
      "type": "function"
    },
    {
      "inputs": [
        {
          "internalType": "address",
          "name": "from",
          "type": "address"
        },
        {
          "internalType": "address",
          "name": "to",
          "type": "address"
        },
        {
          "internalType": "uint256",
          "name": "value",
          "type": "uint256"
        }
      ],
      "name": "transferFrom",
      "outputs": [
        {
          "internalType": "bool",
          "name": "",
          "type": "bool"
        }
      ],
      "stateMutability": "nonpayable",
      "type": "function"
    },
    {
      "inputs": [
        {
          "internalType": "address",
          "name": "newOwner",
          "type": "address"
        }
      ],
      "name": "transferOwnership",
      "outputs": [],
      "stateMutability": "nonpayable",
      "type": "function"
    }
  ],
  "bytecode": "0x6101606040818152346200049f5762001c6e8038038091620000228286620004a4565b843982016060838203126200049f5782516001600160401b0392908381116200049f578262000053918601620004ed565b91602090818601518581116200049f57839162000072918801620004ed565b9501516001600160a01b039283821692918390036200049f57805192818401848110888211176200039e57825260019485855283850195603160f81b875287518981116200039e5760038054918383811c9316801562000494575b888410146200047e57601f9283811162000433575b508088848211600114620003c057600091620003b4575b5060001982841b1c191690841b1781555b8b51918b83116200039e5760049c8d548581811c9116801562000393575b8a8210146200037e578e83821162000333575b50508d89928511600114620002c85750938394918492600095620002bc575b50501b92600019911b1c19161789555b8115620002a557600580546001600160a01b031981168417909155167f8be0079c531659141344cd1fd0a4f28419497f9722a3daafe3b4186f6b6457e0600080a3620001b68562000548565b93610120948552620001c884620006f0565b95610140968752838151910120938460e05251902096610100978089524660a0528251938401947f8b73c3c69bb8fe3d512ecc4cf759cc79239f7b179b0ffacaa9a75d522b39400f86528385015260608401524660808401523060a084015260a0835260c0830196838810908811176200029057508590525190206080523060c0526114269384620008488539608051846110fd015260a051846111c9015260c051846110c7015260e0518461114c01525183611172015251826106aa015251816106d40152f35b604190634e487b7160e01b6000525260246000fd5b8251631e4fbdf760e01b81526000818b0152602490fd5b0151935038806200015a565b929190601f19851693600052848a6000209460005b8c898383106200031b575050501062000300575b50505050811b0189556200016a565b01519060f884600019921b161c1916905538808080620002f1565b868601518955909701969485019488935001620002dd565b600052896000208380870160051c8201928c881062000374575b0160051c019086905b828110620003675750508e6200013b565b6000815501869062000356565b925081926200034d565b60228f634e487b7160e01b6000525260246000fd5b90607f169062000128565b634e487b7160e01b600052604160045260246000fd5b90508b015138620000f9565b8592508c90601f198316856000528b600020928c6000915b83831062000411575050508311620003f8575b5050811b0181556200010a565b8d015160001983861b60f8161c191690553880620003eb565b948482949597989293960151815501940192019087949392918f8d90620003d8565b82600052886000208480840160051c8201928b851062000474575b0160051c019085905b82811062000467575050620000e2565b6000815501859062000457565b925081926200044e565b634e487b7160e01b600052602260045260246000fd5b92607f1692620000cd565b600080fd5b601f909101601f19168101906001600160401b038211908210176200039e57604052565b60005b838110620004dc5750506000910152565b8181015183820152602001620004cb565b81601f820112156200049f5780516001600160401b0381116200039e576040519262000524601f8301601f191660200185620004a4565b818452602082840101116200049f57620005459160208085019101620004c8565b90565b805160209081811015620005c65750601f8251116200058457808251920151908083106200057557501790565b82600019910360031b1b161790565b604490620005b89260405193849263305a27a960e01b845280600485015282519283918260248701528686019101620004c8565b601f01601f19168101030190fd5b906001600160401b0382116200039e57600654926001938481811c91168015620006e5575b838210146200047e57601f8111620006ab575b5081601f84116001146200063f575092829391839260009462000633575b50501b916000199060031b1c19161760065560ff90565b0151925038806200061c565b919083601f198116600660005284600020946000905b8883831062000690575050501062000676575b505050811b0160065560ff90565b015160001960f88460031b161c1916905538808062000668565b85870151885590960195948501948793509081019062000655565b600660005284601f84600020920160051c820191601f860160051c015b828110620006d8575050620005fe565b60008155018590620006c8565b90607f1690620005eb565b8051602090818110156200071d5750601f8251116200058457808251920151908083106200057557501790565b906001600160401b0382116200039e57600754926001938481811c911680156200083c575b838210146200047e57601f811162000802575b5081601f84116001146200079657509282939183926000946200078a575b50501b916000199060031b1c19161760075560ff90565b01519250388062000773565b919083601f198116600760005284600020946000905b88838310620007e75750505010620007cd575b505050811b0160075560ff90565b015160001960f88460031b161c19169055388080620007bf565b858701518855909601959485019487935090810190620007ac565b600760005284601f84600020920160051c820191601f860160051c015b8281106200082f57505062000755565b600081550185906200081f565b90607f16906200074256fe6080604081815260048036101561001557600080fd5b600092833560e01c90816306fdde0314610c4257508063095ea7b314610c185780630ceb1f6714610be457806318160ddd14610bc557806323b872dd14610ad2578063313ce56714610ab65780633644e51514610a9257806340c10f191461093b57806359144baa1461087f57806370a0823114610848578063715018a6146107e85780637ecebe00146107b057806384b0196e146106935780638da5cb5b1461066a57806395d89b41146105805780639dc29fac146103ab578063a9059cbb1461037a578063bd097e2114610351578063d505accf146101e9578063dd62ed3e1461019c5763f2fde38b1461010a57600080fd5b3461019857602036600319011261019857610123610d53565b9061012c610d84565b6001600160a01b03918216928315610182575050600554826bffffffffffffffffffffffff60a01b821617600555167f8be0079c531659141344cd1fd0a4f28419497f9722a3daafe3b4186f6b6457e08380a380f35b51631e4fbdf760e01b8152908101849052602490fd5b8280fd5b5050346101e557806003193601126101e557806020926101ba610d53565b6101c2610d6e565b6001600160a01b0391821683526001865283832091168252845220549051908152f35b5080fd5b508290346101e55760e03660031901126101e557610205610d53565b61020d610d6e565b906044359260643560843560ff8116810361034d578142116103365760018060a01b0390818516928389526008602052898920908154916001830190558a519060208201927f6e71edae12b1b97f4d1f60370fef10105fa2faae0126114a169c64845d6126c98452868d840152858a1660608401528a608084015260a083015260c082015260c0815260e0810181811067ffffffffffffffff821117610323578b525190206102f1916102e8916102c26110c4565b908c519161190160f01b83526002830152602282015260c43591604260a4359220610faf565b9092919261103f565b168181036103085786610305878787610f1c565b80f35b87516325c0072360e11b815292830152602482015260449150fd5b634e487b7160e01b8b526041875260248bfd5b875163313c898160e11b8152808401839052602490fd5b8680fd5b5050346101e557816003193601126101e55760095490516001600160a01b039091168152602090f35b5050346101e557806003193601126101e5576020906103a461039a610d53565b6024359033610e3e565b5160018152f35b5090346101985780600319360112610198576103c5610d53565b6009549091602435916001600160a01b03908116330361053d5783169384156104fb576103f38315156113a5565b8486526020938685528383882054106104b957858752868552828720549184831061048557505090827fdb79cc492679ef2624944d6ed3cdbad5b974b5550de330ae18922f2944eec78a9493928688528785520381872055816002540360025585857fddf252ad1be2c89b69c2b068fc378daa952ba7f163c4a11628f55a4df523b3ef858451868152a351908152a280f35b835163391434e360e21b81526001600160a01b03909216908201908152602081018390526040810185905281906060010390fd5b5083606492519162461bcd60e51b8352820152601c60248201527f496e73756666696369656e742062616c616e636520746f206275726e000000006044820152fd5b6020606492519162461bcd60e51b8352820152601d60248201527f43616e6e6f74206275726e2066726f6d207a65726f20616464726573730000006044820152fd5b815162461bcd60e51b8152602081870152601b60248201527f4f6e6c792066756e6420636f6e74726163742063616e206275726e00000000006044820152606490fd5b509034610198578260031936011261019857805191838154906105a282610db0565b8086529260019280841690811561063f57506001146105e3575b6105df86866105cd828b0383610e1c565b51918291602083526020830190610d13565b0390f35b815294507f8a35acfbc15ff81a39ae7d344fd709f28e8600b4aa8c65c6b64bfe7fe36bd19b5b828610610627575050506105cd8260206105df9582010194386105bc565b80546020878701810191909152909501948101610609565b90506105df9750869350602092506105cd94915060ff191682840152151560051b82010194386105bc565b5050346101e557816003193601126101e55760055490516001600160a01b039091168152602090f35b5090346101985782600319360112610198576106ce7f00000000000000000000000000000000000000000000000000000000000000006111ef565b926106f87f00000000000000000000000000000000000000000000000000000000000000006112eb565b908251926020928385019585871067ffffffffffffffff88111761079d57509280610753838896610746998b9996528686528151998a99600f60f81b8b5260e0868c015260e08b0190610d13565b91898303908a0152610d13565b924660608801523060808801528460a088015286840360c088015251928381520193925b82811061078657505050500390f35b835185528695509381019392810192600101610777565b634e487b7160e01b845260419052602483fd5b5050346101e55760203660031901126101e55760209181906001600160a01b036107d8610d53565b1681526008845220549051908152f35b8334610845578060031936011261084557610801610d84565b600580546001600160a01b0319811690915581906001600160a01b03167f8be0079c531659141344cd1fd0a4f28419497f9722a3daafe3b4186f6b6457e08280a380f35b80fd5b5050346101e55760203660031901126101e55760209181906001600160a01b03610870610d53565b16815280845220549051908152f35b503461019857602036600319011261019857610899610d53565b906108a2610d84565b6001600160a01b039182169283156108f8575050600954826bffffffffffffffffffffffff60a01b821617600955167f24ea839bf6e2c59dc275b79b43cd8833c0b850e8ef5f329037ea975d1f6c8b758380a380f35b906020606492519162461bcd60e51b8352820152601d60248201527f496e76616c69642066756e6420636f6e747261637420616464726573730000006044820152fd5b509034610198578060031936011261019857610955610d53565b60095460243592916001600160a01b039182163303610a4f5716928315610a0d576109818315156113a5565b600254908382018092116109fa5750916020917f6332ddaa8a69b5eb2524ec7ca317b7c2b01ecf678d584031415f81270977b8fc9360025584865285835280862082815401905584867fddf252ad1be2c89b69c2b068fc378daa952ba7f163c4a11628f55a4df523b3ef858451868152a351908152a280f35b634e487b7160e01b865260119052602485fd5b6020606492519162461bcd60e51b8352820152601b60248201527f43616e6e6f74206d696e7420746f207a65726f206164647265737300000000006044820152fd5b825162461bcd60e51b8152602081870152601b60248201527f4f6e6c792066756e6420636f6e74726163742063616e206d696e7400000000006044820152606490fd5b5050346101e557816003193601126101e557602090610aaf6110c4565b9051908152f35b5050346101e557816003193601126101e5576020905160128152f35b50823461084557606036600319011261084557610aed610d53565b610af5610d6e565b916044359360018060a01b038316808352600160205286832033845260205286832054916000198310610b31575b6020886103a4898989610e3e565b868310610b99578115610b82573315610b6b575082526001602090815286832033845281529186902090859003905582906103a487610b23565b8751634a1406b160e11b8152908101849052602490fd5b875163e602df0560e01b8152908101849052602490fd5b8751637dc7a0d960e11b8152339181019182526020820193909352604081018790528291506060010390fd5b5050346101e557816003193601126101e5576020906002549051908152f35b5050346101e55760203660031901126101e557602090610c02610d53565b60018060a01b0380600954169116149051908152f35b5050346101e557806003193601126101e5576020906103a4610c38610d53565b6024359033610f1c565b8490843461019857826003193601126101985782600354610c6281610db0565b80855291600191808316908115610ceb5750600114610c8e575b5050506105cd826105df940383610e1c565b9450600385527fc2575a0e9e593c00f959f8c92f12db2869c3395a3b0502d05e2516446f71f85b5b828610610cd3575050506105cd8260206105df9582010194610c7c565b80546020878701810191909152909501948101610cb6565b6105df9750869350602092506105cd94915060ff191682840152151560051b82010194610c7c565b919082519283825260005b848110610d3f575050826000602080949584010152601f8019910116010190565b602081830181015184830182015201610d1e565b600435906001600160a01b0382168203610d6957565b600080fd5b602435906001600160a01b0382168203610d6957565b6005546001600160a01b03163303610d9857565b60405163118cdaa760e01b8152336004820152602490fd5b90600182811c92168015610de0575b6020831014610dca57565b634e487b7160e01b600052602260045260246000fd5b91607f1691610dbf565b6040810190811067ffffffffffffffff821117610e0657604052565b634e487b7160e01b600052604160045260246000fd5b90601f8019910116810190811067ffffffffffffffff821117610e0657604052565b916001600160a01b03808416928315610f035716928315610eea5760009083825281602052604082205490838210610eb8575091604082827fddf252ad1be2c89b69c2b068fc378daa952ba7f163c4a11628f55a4df523b3ef958760209652828652038282205586815220818154019055604051908152a3565b60405163391434e360e21b81526001600160a01b03919091166004820152602481019190915260448101839052606490fd5b60405163ec442f0560e01b815260006004820152602490fd5b604051634b637e8f60e11b815260006004820152602490fd5b6001600160a01b03908116918215610f965716918215610f7d5760207f8c5be1e5ebec7d5bd14f71427d1e84f3dd0314c0f7b2291e5b200ac8c7c3b925918360005260018252604060002085600052825280604060002055604051908152a3565b604051634a1406b160e11b815260006004820152602490fd5b60405163e602df0560e01b815260006004820152602490fd5b91907f7fffffffffffffffffffffffffffffff5d576e7357a4501ddfe92f46681b20a0841161103357926020929160ff608095604051948552168484015260408301526060820152600092839182805260015afa156110275780516001600160a01b0381161561101e57918190565b50809160019190565b604051903d90823e3d90fd5b50505060009160039190565b60048110156110ae5780611051575050565b6001810361106b5760405163f645eedf60e01b8152600490fd5b6002810361108c5760405163fce698f760e01b815260048101839052602490fd5b6003146110965750565b602490604051906335e2f38360e21b82526004820152fd5b634e487b7160e01b600052602160045260246000fd5b307f00000000000000000000000000000000000000000000000000000000000000006001600160a01b031614806111c6575b1561111f577f000000000000000000000000000000000000000000000000000000000000000090565b60405160208101907f8b73c3c69bb8fe3d512ecc4cf759cc79239f7b179b0ffacaa9a75d522b39400f82527f000000000000000000000000000000000000000000000000000000000000000060408201527f000000000000000000000000000000000000000000000000000000000000000060608201524660808201523060a082015260a0815260c0810181811067ffffffffffffffff821117610e065760405251902090565b507f000000000000000000000000000000000000000000000000000000000000000046146110f6565b60ff811461122d5760ff811690601f821161121b576040519161121183610dea565b8252602082015290565b604051632cd44ac360e21b8152600490fd5b5060405160065481600061124083610db0565b808352926001908181169081156112c9575060011461126a575b5061126792500382610e1c565b90565b6006600090815291507ff652222313e28459528d920b65115c16c04f3efc82aaedc97be59f3f377c0d3f5b8483106112ae575061126793505081016020013861125a565b81935090816020925483858901015201910190918492611295565b90506020925061126794915060ff191682840152151560051b8201013861125a565b60ff811461130d5760ff811690601f821161121b576040519161121183610dea565b5060405160075481600061132083610db0565b808352926001908181169081156112c95750600114611346575061126792500382610e1c565b6007600090815291507fa66cc928b5edb82af9bd49922954155ab7b0942694bea4ce44661d9a8736c6885b84831061138a575061126793505081016020013861125a565b81935090816020925483858901015201910190918492611371565b156113ac57565b606460405162461bcd60e51b815260206004820152602060248201527f416d6f756e74206d7573742062652067726561746572207468616e207a65726f6044820152fdfea2646970667358221220d68efccf3292b95754f189a3f9db0a2f9b2a1f6fc7feddfb8a0df20daa27c48064736f6c63430008140033",
  "linkReferences": {},
  "deployedLinkReferences": {}
}