{
  "_format": "hh-sol-artifact-1",
  "contractName": "MockUniswapIntegration",
  "sourceName": "contracts/MockUniswapIntegration.sol",
  "abi": [
    {
      "inputs": [
        {
          "internalType": "address",
          "name": "_initialOwner",
          "type": "address"
        }
      ],
      "stateMutability": "nonpayable",
      "type": "constructor"
    },
    {
      "inputs": [
        {
          "internalType": "address",
          "name": "owner",
          "type": "address"
        }
      ],
      "name": "OwnableInvalidOwner",
      "type": "error"
    },
    {
      "inputs": [
        {
          "internalType": "address",
          "name": "account",
          "type": "address"
        }
      ],
      "name": "OwnableUnauthorizedAccount",
      "type": "error"
    },
    {
      "inputs": [],
      "name": "ReentrancyGuardReentrantCall",
      "type": "error"
    },
    {
      "inputs": [
        {
          "internalType": "address",
          "name": "token",
          "type": "address"
        }
      ],
      "name": "SafeERC20FailedOperation",
      "type": "error"
    },
    {
      "anonymous": false,
      "inputs": [
        {
          "indexed": true,
          "internalType": "address",
          "name": "tokenIn",
          "type": "address"
        },
        {
          "indexed": true,
          "internalType": "address",
          "name": "tokenOut",
          "type": "address"
        },
        {
          "indexed": false,
          "internalType": "uint256",
          "name": "rate",
          "type": "uint256"
        }
      ],
      "name": "ExchangeRateSet",
      "type": "event"
    },
    {
      "anonymous": false,
      "inputs": [
        {
          "indexed": true,
          "internalType": "address",
          "name": "previousOwner",
          "type": "address"
        },
        {
          "indexed": true,
          "internalType": "address",
          "name": "newOwner",
          "type": "address"
        }
      ],
      "name": "OwnershipTransferred",
      "type": "event"
    },
    {
      "anonymous": false,
      "inputs": [
        {
          "indexed": true,
          "internalType": "address",
          "name": "tokenIn",
          "type": "address"
        },
        {
          "indexed": true,
          "internalType": "address",
          "name": "tokenOut",
          "type": "address"
        },
        {
          "indexed": false,
          "internalType": "uint256",
          "name": "amountIn",
          "type": "uint256"
        },
        {
          "indexed": false,
          "internalType": "uint256",
          "name": "amountOut",
          "type": "uint256"
        },
        {
          "indexed": true,
          "internalType": "address",
          "name": "recipient",
          "type": "address"
        }
      ],
      "name": "TokenSwapped",
      "type": "event"
    },
    {
      "inputs": [],
      "name": "BASIS_POINTS",
      "outputs": [
        {
          "internalType": "uint256",
          "name": "",
          "type": "uint256"
        }
      ],
      "stateMutability": "view",
      "type": "function"
    },
    {
      "inputs": [],
      "name": "DEFAULT_RATE",
      "outputs": [
        {
          "internalType": "uint256",
          "name": "",
          "type": "uint256"
        }
      ],
      "stateMutability": "view",
      "type": "function"
    },
    {
      "inputs": [
        {
          "internalType": "address",
          "name": "_token",
          "type": "address"
        },
        {
          "internalType": "address",
          "name": "_recipient",
          "type": "address"
        },
        {
          "internalType": "uint256",
          "name": "_amount",
          "type": "uint256"
        }
      ],
      "name": "_callMint",
      "outputs": [],
      "stateMutability": "nonpayable",
      "type": "function"
    },
    {
      "inputs": [
        {
          "internalType": "address",
          "name": "_tokenIn",
          "type": "address"
        },
        {
          "internalType": "address[]",
          "name": "_tokensOut",
          "type": "address[]"
        },
        {
          "internalType": "uint256[]",
          "name": "_amountsIn",
          "type": "uint256[]"
        },
        {
          "internalType": "address",
          "name": "_recipient",
          "type": "address"
        },
        {
          "internalType": "uint24[]",
          "name": "_fees",
          "type": "uint24[]"
        }
      ],
      "name": "batchSwap",
      "outputs": [
        {
          "internalType": "uint256[]",
          "name": "amountsOut",
          "type": "uint256[]"
        }
      ],
      "stateMutability": "nonpayable",
      "type": "function"
    },
    {
      "inputs": [
        {
          "internalType": "address",
          "name": "_token",
          "type": "address"
        },
        {
          "internalType": "uint256",
          "name": "_amount",
          "type": "uint256"
        }
      ],
      "name": "depositToken",
      "outputs": [],
      "stateMutability": "nonpayable",
      "type": "function"
    },
    {
      "inputs": [
        {
          "internalType": "address",
          "name": "_token",
          "type": "address"
        },
        {
          "internalType": "uint256",
          "name": "_amount",
          "type": "uint256"
        }
      ],
      "name": "emergencyWithdraw",
      "outputs": [],
      "stateMutability": "nonpayable",
      "type": "function"
    },
    {
      "inputs": [
        {
          "internalType": "address",
          "name": "",
          "type": "address"
        },
        {
          "internalType": "address",
          "name": "",
          "type": "address"
        }
      ],
      "name": "exchangeRates",
      "outputs": [
        {
          "internalType": "uint256",
          "name": "",
          "type": "uint256"
        }
      ],
      "stateMutability": "view",
      "type": "function"
    },
    {
      "inputs": [
        {
          "internalType": "address",
          "name": "_tokenIn",
          "type": "address"
        },
        {
          "internalType": "address",
          "name": "_tokenOut",
          "type": "address"
        }
      ],
      "name": "getExchangeRate",
      "outputs": [
        {
          "internalType": "uint256",
          "name": "rate",
          "type": "uint256"
        }
      ],
      "stateMutability": "view",
      "type": "function"
    },
    {
      "inputs": [
        {
          "internalType": "address",
          "name": "_tokenIn",
          "type": "address"
        },
        {
          "internalType": "address",
          "name": "_tokenOut",
          "type": "address"
        },
        {
          "internalType": "uint256",
          "name": "_amountIn",
          "type": "uint256"
        },
        {
          "internalType": "uint24",
          "name": "_fee",
          "type": "uint24"
        }
      ],
      "name": "getQuote",
      "outputs": [
        {
          "internalType": "uint256",
          "name": "amountOut",
          "type": "uint256"
        }
      ],
      "stateMutability": "view",
      "type": "function"
    },
    {
      "inputs": [
        {
          "internalType": "address",
          "name": "_token",
          "type": "address"
        }
      ],
      "name": "getTokenBalance",
      "outputs": [
        {
          "internalType": "uint256",
          "name": "balance",
          "type": "uint256"
        }
      ],
      "stateMutability": "view",
      "type": "function"
    },
    {
      "inputs": [],
      "name": "owner",
      "outputs": [
        {
          "internalType": "address",
          "name": "",
          "type": "address"
        }
      ],
      "stateMutability": "view",
      "type": "function"
    },
    {
      "inputs": [],
      "name": "renounceOwnership",
      "outputs": [],
      "stateMutability": "nonpayable",
      "type": "function"
    },
    {
      "inputs": [
        {
          "internalType": "address",
          "name": "_tokenIn",
          "type": "address"
        },
        {
          "internalType": "address",
          "name": "_tokenOut",
          "type": "address"
        },
        {
          "internalType": "uint256",
          "name": "_rate",
          "type": "uint256"
        }
      ],
      "name": "setExchangeRate",
      "outputs": [],
      "stateMutability": "nonpayable",
      "type": "function"
    },
    {
      "inputs": [
        {
          "internalType": "address",
          "name": "_tokenIn",
          "type": "address"
        },
        {
          "internalType": "address",
          "name": "_tokenOut",
          "type": "address"
        },
        {
          "internalType": "uint256",
          "name": "_amountIn",
          "type": "uint256"
        },
        {
          "internalType": "address",
          "name": "_recipient",
          "type": "address"
        },
        {
          "internalType": "uint24",
          "name": "_fee",
          "type": "uint24"
        }
      ],
      "name": "swapExactInputSingle",
      "outputs": [
        {
          "internalType": "uint256",
          "name": "amountOut",
          "type": "uint256"
        }
      ],
      "stateMutability": "nonpayable",
      "type": "function"
    },
    {
      "inputs": [
        {
          "internalType": "address",
          "name": "newOwner",
          "type": "address"
        }
      ],
      "name": "transferOwnership",
      "outputs": [],
      "stateMutability": "nonpayable",
      "type": "function"
    }
  ],
  "bytecode": "0x6080346100bf57601f610f6438819003918201601f19168301916001600160401b038311848410176100c4578084926020946040528339810103126100bf57516001600160a01b0390818116908190036100bf5780156100a657600080546001600160a01b03198116831782556040519316907f8be0079c531659141344cd1fd0a4f28419497f9722a3daafe3b4186f6b6457e09080a360018055610e8990816100db8239f35b604051631e4fbdf760e01b815260006004820152602490fd5b600080fd5b634e487b7160e01b600052604160045260246000fdfe6040608081526004908136101561001557600080fd5b600091823560e01c8063338b5dea146109915780633aecd0e3146108fc578063503fa44f146108b357806359ebfd1814610587578063715018a61461052d578063782aaeea14610481578063882f3da21461035a5780638da5cb5b146103325780638ebb36c71461022457806395ccea67146101e5578063a3e860fe1461014f578063a917902a1461018d578063baaa61be14610154578063e1f1c4a71461014f5763f2fde38b146100c657600080fd5b3461014b57602036600319011261014b576100df6109c3565b906100e8610a8d565b6001600160a01b0391821692831561013557505082546001600160a01b0319811683178455167f8be0079c531659141344cd1fd0a4f28419497f9722a3daafe3b4186f6b6457e08380a380f35b51631e4fbdf760e01b8152908101849052602490fd5b8280fd5b610a70565b5050346101895780600319360112610189576020906101826101746109c3565b61017c6109de565b90610ab9565b9051908152f35b5080fd5b505034610189576080366003190112610189576101a86109c3565b6101b06109de565b9260643562ffffff8116036101e257506101da6101d260209461271093610ab9565b604435610aee565b049051908152f35b80fd5b505034610189573660031901126101e2576102216102016109c3565b610209610a8d565b8254602435916001600160a01b039182169116610e1a565b80f35b50903461014b5760a036600319011261014b5761023f6109c3565b6102476109de565b92604435906102546109f4565b9560843562ffffff8116036101e2575061026c610c4a565b81156102f857506020947f6a0992b0dd04360ee09f12e09e8c666a668efdcc85c8ed6d0527687ac5db9ed68460018060a01b0380976102e1828616976102b3891515610b17565b6127106102c96102c38584610ab9565b8a610aee565b049a8b9116966102db8930338b610b8f565b83610ce2565b8251958652888a8701521693a46001805551908152f35b606490602085519162461bcd60e51b83528201526014602482015273125b9d985b1a59081a5b9c1d5d08185b5bdd5b9d60621b6044820152fd5b505034610189578160031936011261018957905490516001600160a01b039091168152602090f35b50903461014b5761036a36610a3b565b3033036104455783516340c10f1960e01b602082019081526001600160a01b03939093166024820152604480820192909252908152601f19928692839283906103b4606482610b57565b51925af1903d1561043f573d67ffffffffffffffff811161042c576103e36020855193601f8401160183610b57565b81528460203d92013e5b156103f6578280f35b906020606492519162461bcd60e51b8352820152601060248201526f135a5b9d0818d85b1b0819985a5b195960821b6044820152fd5b634e487b7160e01b865260418552602486fd5b506103ed565b835162461bcd60e51b8152602081870152601660248201527513db9b1e481cd95b198818d85b1b08185b1b1bddd95960521b6044820152606490fd5b50903461014b5761049136610a3b565b9192909361049d610a8d565b82156104f357507ffda5f3c763773db764875ece48aacb54b5cb44dc12489b81299f3c49bf6bc81d9160209160018060a01b0380951694858852600284528188209616958688528352818188205551908152a380f35b6020606492519162461bcd60e51b8352820152601560248201527452617465206d75737420626520706f73697469766560581b6044820152fd5b83346101e257806003193601126101e257610546610a8d565b80546001600160a01b03198116825581906001600160a01b03167f8be0079c531659141344cd1fd0a4f28419497f9722a3daafe3b4186f6b6457e08280a380f35b503461014b5760a036600319011261014b576105a16109c3565b60249167ffffffffffffffff9183358381116108af576105c49036908401610a0a565b93906044358281116108ab576105dd9036908601610a0a565b93906105e76109f4565b936084359081116108a7576105ff9036908801610a0a565b9050610609610c4a565b85880361086c57870361082a57959688968a95936001600160a01b038681169491929091610638861515610b17565b6106418c610c6d565b9761064e8c51998a610b57565b8c895261065a8d610c6d565b9c60209b8c8b019e8f90601f1901903690378b978c915b8383106107e45750505061068a8584169730338a610b8f565b8a5b8181106106d1578e8e8e8e8e6001928380558451948186019282875251809352850195925b8281106106be5785870386f35b83518752958101959281019284016106b1565b808b9c9f9d9b8f908a8a8f938f8f958c908c8f939a8d8d8d6106f86107109f859089610c94565b3561071a575b50505050505050505050505050610c85565b9d9a999b9d61068c565b6107b361077285848f9d6107ae7f6a0992b0dd04360ee09f12e09e8c666a668efdcc85c8ed6d0527687ac5db9ed69f6107b9996127108f610783906107c09f898d819f61077d9361017c61077285610777948f610c94565b610cba565b93610c94565b35610aee565b0461078e8784610cce565b526107a7866107a1610772828989610c94565b93610cce565b5191610ce2565b610c94565b96610c94565b3598610cce565b519084519788528701521693a4898f8a8f918f908f8b8e938c8f938d8d8c926106fe565b9091989c9f9d9b9c6107f78a8d89610c94565b3581018091116108175761080b9099610c85565b91909f9c9b9d9f610671565b508f90601190634e487b7160e01b835252fd5b885162461bcd60e51b8152602081880152601a818a01527f46656573206172726179206c656e677468206d69736d617463680000000000006044820152606490fd5b895162461bcd60e51b81526020818901526016818b015275082e4e4c2f2e640d8cadccee8d040dad2e6dac2e8c6d60531b6044820152606490fd5b8a80fd5b8880fd5b8680fd5b505034610189578060031936011261018957806020926108d16109c3565b6108d96109de565b6001600160a01b0391821683526002865283832091168252845220549051908152f35b50919034610189576020928360031936011261014b57836001600160a01b036109236109c3565b169160248451809481936370a0823160e01b835230908301525afa928315610986578093610954575b505051908152f35b909192508382813d831161097f575b61096d8183610b57565b810103126101e257505190388061094c565b503d610963565b8251903d90823e3d90fd5b505034610189573660031901126101e2576102216109ad6109c3565b60243590309033906001600160a01b0316610b8f565b600435906001600160a01b03821682036109d957565b600080fd5b602435906001600160a01b03821682036109d957565b606435906001600160a01b03821682036109d957565b9181601f840112156109d95782359167ffffffffffffffff83116109d9576020808501948460051b0101116109d957565b60609060031901126109d9576001600160a01b039060043582811681036109d9579160243590811681036109d9579060443590565b346109d95760003660031901126109d95760206040516127108152f35b6000546001600160a01b03163303610aa157565b60405163118cdaa760e01b8152336004820152602490fd5b60018060a01b03809116600052600260205260406000209116600052602052604060002054908115610ae757565b6127109150565b81810292918115918404141715610b0157565b634e487b7160e01b600052601160045260246000fd5b15610b1e57565b60405162461bcd60e51b8152602060048201526011602482015270125b9d985b1a59081c9958da5c1a595b9d607a1b6044820152606490fd5b90601f8019910116810190811067ffffffffffffffff821117610b7957604052565b634e487b7160e01b600052604160045260246000fd5b6040516323b872dd60e01b60208201526001600160a01b0392831660248201529290911660448301526064820192909252610be091610bdb82608481015b03601f198101845283610b57565b610be2565b565b906000602091828151910182855af115610c3e576000513d610c3557506001600160a01b0381163b155b610c135750565b604051635274afe760e01b81526001600160a01b039091166004820152602490fd5b60011415610c0c565b6040513d6000823e3d90fd5b600260015414610c5b576002600155565b604051633ee5aeb560e01b8152600490fd5b67ffffffffffffffff8111610b795760051b60200190565b6000198114610b015760010190565b9190811015610ca45760051b0190565b634e487b7160e01b600052603260045260246000fd5b356001600160a01b03811681036109d95790565b8051821015610ca45760209160051b010190565b6040516370a0823160e01b81523060048201529091906001600160a01b03831690602081602481855afa8015610c3e578591600091610de6575b501015610ddb5750303b156109d9576040516344179ed160e11b81526001600160a01b03928316600482015291166024820152604481019190915260008160648183305af19081610dc3575b50610be05760405162461bcd60e51b815260206004820152602860248201527f496e73756666696369656e7420746f6b656e2062616c616e636520666f72206d60448201526706f636b20737761760c41b6064820152608490fd5b67ffffffffffffffff8111610b795760405238610d68565b610be0939250610e1a565b91506020823d8211610e12575b81610e0060209383610b57565b810103126101e2575084905138610d1c565b3d9150610df3565b60405163a9059cbb60e01b60208201526001600160a01b0390921660248301526044820192909252610be091610bdb8260648101610bcd56fea2646970667358221220cda101f5597eb84b9cdf7b44f377b5ae23eb73e3e22b20d6ccdbcf9792e8167364736f6c63430008140033",
  "linkReferences": {},
  "deployedLinkReferences": {}
}